{
    "contractName": "YearnCompDaiStrategy",
    "abi": [
        {
            "inputs": [
                {
                    "internalType": "address",
                    "name": "_controller",
                    "type": "address"
                }
            ],
            "stateMutability": "nonpayable",
            "type": "constructor"
        },
        {
            "inputs": [],
            "name": "DAI",
            "outputs": [
                {
                    "internalType": "address",
                    "name": "",
                    "type": "address"
                }
            ],
            "stateMutability": "view",
            "type": "function"
        },
        {
            "inputs": [],
            "name": "active",
            "outputs": [
                {
                    "internalType": "bool",
                    "name": "",
                    "type": "bool"
                }
            ],
            "stateMutability": "view",
            "type": "function"
        },
        {
            "inputs": [],
            "name": "balanceC",
            "outputs": [
                {
                    "internalType": "uint256",
                    "name": "",
                    "type": "uint256"
                }
            ],
            "stateMutability": "view",
            "type": "function"
        },
        {
            "inputs": [],
            "name": "balanceCInToken",
            "outputs": [
                {
                    "internalType": "uint256",
                    "name": "",
                    "type": "uint256"
                }
            ],
            "stateMutability": "view",
            "type": "function"
        },
        {
            "inputs": [],
            "name": "balanceOf",
            "outputs": [
                {
                    "internalType": "uint256",
                    "name": "",
                    "type": "uint256"
                }
            ],
            "stateMutability": "view",
            "type": "function"
        },
        {
            "inputs": [],
            "name": "balanceOfWant",
            "outputs": [
                {
                    "internalType": "uint256",
                    "name": "",
                    "type": "uint256"
                }
            ],
            "stateMutability": "view",
            "type": "function"
        },
        {
            "inputs": [],
            "name": "cDAI",
            "outputs": [
                {
                    "internalType": "address",
                    "name": "",
                    "type": "address"
                }
            ],
            "stateMutability": "view",
            "type": "function"
        },
        {
            "inputs": [
                {
                    "internalType": "address",
                    "name": "sender",
                    "type": "address"
                },
                {
                    "components": [
                        {
                            "internalType": "address",
                            "name": "owner",
                            "type": "address"
                        },
                        {
                            "internalType": "uint256",
                            "name": "number",
                            "type": "uint256"
                        }
                    ],
                    "internalType": "struct Account.Info",
                    "name": "account",
                    "type": "tuple"
                },
                {
                    "internalType": "bytes",
                    "name": "data",
                    "type": "bytes"
                }
            ],
            "name": "callFunction",
            "outputs": [],
            "stateMutability": "nonpayable",
            "type": "function"
        },
        {
            "inputs": [],
            "name": "comp",
            "outputs": [
                {
                    "internalType": "address",
                    "name": "",
                    "type": "address"
                }
            ],
            "stateMutability": "view",
            "type": "function"
        },
        {
            "inputs": [],
            "name": "compound",
            "outputs": [
                {
                    "internalType": "contract ComptrollerI",
                    "name": "",
                    "type": "address"
                }
            ],
            "stateMutability": "view",
            "type": "function"
        },
        {
            "inputs": [],
            "name": "controller",
            "outputs": [
                {
                    "internalType": "address",
                    "name": "",
                    "type": "address"
                }
            ],
            "stateMutability": "view",
            "type": "function"
        },
        {
            "inputs": [],
            "name": "deposit",
            "outputs": [],
            "stateMutability": "nonpayable",
            "type": "function"
        },
        {
            "inputs": [],
            "name": "getCurrentPosition",
            "outputs": [
                {
                    "internalType": "uint256",
                    "name": "deposits",
                    "type": "uint256"
                },
                {
                    "internalType": "uint256",
                    "name": "borrows",
                    "type": "uint256"
                }
            ],
            "stateMutability": "view",
            "type": "function"
        },
        {
            "inputs": [],
            "name": "getLiquidity",
            "outputs": [
                {
                    "internalType": "uint256",
                    "name": "liquidity",
                    "type": "uint256"
                }
            ],
            "stateMutability": "view",
            "type": "function"
        },
        {
            "inputs": [],
            "name": "getName",
            "outputs": [
                {
                    "internalType": "string",
                    "name": "",
                    "type": "string"
                }
            ],
            "stateMutability": "pure",
            "type": "function"
        },
        {
            "inputs": [],
            "name": "getblocksUntilLiquidation",
            "outputs": [
                {
                    "internalType": "uint256",
                    "name": "blocks",
                    "type": "uint256"
                }
            ],
            "stateMutability": "view",
            "type": "function"
        },
        {
            "inputs": [],
            "name": "governance",
            "outputs": [
                {
                    "internalType": "address",
                    "name": "",
                    "type": "address"
                }
            ],
            "stateMutability": "view",
            "type": "function"
        },
        {
            "inputs": [],
            "name": "harvest",
            "outputs": [],
            "stateMutability": "nonpayable",
            "type": "function"
        },
        {
            "inputs": [],
            "name": "leverageTarget",
            "outputs": [
                {
                    "internalType": "uint256",
                    "name": "",
                    "type": "uint256"
                }
            ],
            "stateMutability": "view",
            "type": "function"
        },
        {
            "inputs": [],
            "name": "minCompToSell",
            "outputs": [
                {
                    "internalType": "uint256",
                    "name": "",
                    "type": "uint256"
                }
            ],
            "stateMutability": "view",
            "type": "function"
        },
        {
            "inputs": [],
            "name": "minDAI",
            "outputs": [
                {
                    "internalType": "uint256",
                    "name": "",
                    "type": "uint256"
                }
            ],
            "stateMutability": "view",
            "type": "function"
        },
        {
            "inputs": [],
            "name": "performanceFee",
            "outputs": [
                {
                    "internalType": "uint256",
                    "name": "",
                    "type": "uint256"
                }
            ],
            "stateMutability": "view",
            "type": "function"
        },
        {
            "inputs": [],
            "name": "performanceMax",
            "outputs": [
                {
                    "internalType": "uint256",
                    "name": "",
                    "type": "uint256"
                }
            ],
            "stateMutability": "view",
            "type": "function"
        },
        {
            "inputs": [
                {
                    "internalType": "uint256",
                    "name": "target",
                    "type": "uint256"
                }
            ],
            "name": "setCollateralTarget",
            "outputs": [],
            "stateMutability": "nonpayable",
            "type": "function"
        },
        {
            "inputs": [
                {
                    "internalType": "address",
                    "name": "_controller",
                    "type": "address"
                }
            ],
            "name": "setController",
            "outputs": [],
            "stateMutability": "nonpayable",
            "type": "function"
        },
        {
            "inputs": [
                {
                    "internalType": "address",
                    "name": "_governance",
                    "type": "address"
                }
            ],
            "name": "setGovernance",
            "outputs": [],
            "stateMutability": "nonpayable",
            "type": "function"
        },
        {
            "inputs": [
                {
                    "internalType": "uint256",
                    "name": "_performanceFee",
                    "type": "uint256"
                }
            ],
            "name": "setPerformanceFee",
            "outputs": [],
            "stateMutability": "nonpayable",
            "type": "function"
        },
        {
            "inputs": [
                {
                    "internalType": "address",
                    "name": "_strategist",
                    "type": "address"
                }
            ],
            "name": "setStrategist",
            "outputs": [],
            "stateMutability": "nonpayable",
            "type": "function"
        },
        {
            "inputs": [
                {
                    "internalType": "uint256",
                    "name": "_withdrawalFee",
                    "type": "uint256"
                }
            ],
            "name": "setWithdrawalFee",
            "outputs": [],
            "stateMutability": "nonpayable",
            "type": "function"
        },
        {
            "inputs": [],
            "name": "strategist",
            "outputs": [
                {
                    "internalType": "address",
                    "name": "",
                    "type": "address"
                }
            ],
            "stateMutability": "view",
            "type": "function"
        },
        {
            "inputs": [],
            "name": "uni",
            "outputs": [
                {
                    "internalType": "address",
                    "name": "",
                    "type": "address"
                }
            ],
            "stateMutability": "view",
            "type": "function"
        },
        {
            "inputs": [],
            "name": "want",
            "outputs": [
                {
                    "internalType": "address",
                    "name": "",
                    "type": "address"
                }
            ],
            "stateMutability": "view",
            "type": "function"
        },
        {
            "inputs": [],
            "name": "weth",
            "outputs": [
                {
                    "internalType": "address",
                    "name": "",
                    "type": "address"
                }
            ],
            "stateMutability": "view",
            "type": "function"
        },
        {
            "inputs": [
                {
                    "internalType": "uint256",
                    "name": "_amount",
                    "type": "uint256"
                }
            ],
            "name": "withdraw",
            "outputs": [],
            "stateMutability": "nonpayable",
            "type": "function"
        },
        {
            "inputs": [],
            "name": "withdrawAll",
            "outputs": [
                {
                    "internalType": "uint256",
                    "name": "balance",
                    "type": "uint256"
                }
            ],
            "stateMutability": "nonpayable",
            "type": "function"
        },
        {
            "inputs": [],
            "name": "withdrawalFee",
            "outputs": [
                {
                    "internalType": "uint256",
                    "name": "",
                    "type": "uint256"
                }
            ],
            "stateMutability": "view",
            "type": "function"
        },
        {
            "inputs": [],
            "name": "withdrawalMax",
            "outputs": [
                {
                    "internalType": "uint256",
                    "name": "",
                    "type": "uint256"
                }
            ],
            "stateMutability": "view",
            "type": "function"
        }
    ],
    "bytecode": "60806040526101f460005560326001908155610e7460025568056bc75e2d631000006003556706f05b59d3b200006004556005805460ff191690911790553480156200004a57600080fd5b506040516200305f3803806200305f8339810160408190526200006d91620000bd565b60058054610100600160a81b03191633610100810291909117909155600780546001600160a01b03199081169092179055600680549091166001600160a01b0392909216919091179055620000ed565b600060208284031215620000cf578081fd5b81516001600160a01b0381168114620000e6578182fd5b9392505050565b612f6280620000fd6000396000f3fe608060405234801561001057600080fd5b50600436106102275760003560e01c80637cc7911311610130578063ac1e5025116100b8578063d5c1ff731161007c578063d5c1ff731461031f578063e0bab4c414610291578063edc9af95146103d1578063f69e2046146103d9578063f77c4791146103e157610227565b8063ac1e502514610393578063b655d653146103a6578063c1a3d44c146103ae578063c7b9d530146103b6578063d0e30db0146103c957610227565b80638b418713116100ff5780638b4187131461033f5780638bc7e8c41461035257806392eefe9b1461035a5780639a561fbf1461036d578063ab033ea91461038057610227565b80637cc791131461031f578063853828b614610327578063853e0a3b1461032f578063877887821461033757610227565b8063418f35cc116101b35780634641257d116101825780634641257d146102ec5780635aa6e675146102f45780636f6941b9146102fc57806370897b2314610304578063722713f71461031757610227565b8063418f35cc146102be5780634254b506146102d4578063456d8027146102dc5780634627cb71146102e457610227565b806317d7de7c116101fa57806317d7de7c1461027c5780631f1fcd51146102915780631fe4a686146102995780632e1a7d4d146102a15780633fc8cef3146102b657610227565b806302fb0c5e1461022c57806304324af81461024a5780630910a5101461025f578063109d0af814610267575b600080fd5b6102346103e9565b6040516102419190612a93565b60405180910390f35b6102526103f2565b6040516102419190612da3565b6102526103f8565b61026f610489565b604051610241919061294e565b6102846104a1565b6040516102419190612aae565b61026f6104d0565b61026f6104e2565b6102b46102af36600461278d565b6104f1565b005b61026f610772565b6102c661078a565b604051610241929190612dac565b61025261084b565b610252610901565b610252610907565b6102b461090d565b61026f61095b565b61026f61096f565b6102b461031236600461278d565b610981565b6102526109b5565b6102526109f5565b6102526109fb565b610252610b90565b610252610dc7565b6102b461034d3660046125de565b610dcd565b61025261114c565b6102b46103683660046125a6565b611152565b6102b461037b36600461278d565b6111a3565b6102b461038e3660046125a6565b6111f3565b6102b46103a136600461278d565b61124a565b61025261127e565b610252611302565b6102b46103c43660046125a6565b611336565b6102b4611387565b61026f6114ed565b61026f611505565b61026f61151d565b60055460ff1681565b60045481565b604051635ec88c7960e01b8152600090733d9819210a31b4961b30ef54be2aed79b9c9cd3b90635ec88c799061043290309060040161294e565b60606040518083038186803b15801561044a57600080fd5b505afa15801561045e573d6000803e3d6000fd5b505050506040513d601f19601f8201168201806040525081019061048291906127bd565b5092915050565b73c00e94cb662c3520282e6f5717214004a7f2688881565b60408051808201909152601581527413195d995c9859d95911185a50dbdb5c14dd1c985d605a1b602082015290565b600080516020612f0d83398151915281565b6007546001600160a01b031681565b6040516370a0823160e01b8152600090600080516020612f0d833981519152906370a082319061052590309060040161294e565b60206040518083038186803b15801561053d57600080fd5b505afa158015610551573d6000803e3d6000fd5b505050506040513d601f19601f8201168201806040525081019061057591906127a5565b9050818110156105ac57610597610592838363ffffffff61152c16565b611577565b91506105a9828263ffffffff61174616565b91505b60006105d56127106105c96001548661176b90919063ffffffff16565b9063ffffffff6117a516565b905061067c600660009054906101000a90046001600160a01b03166001600160a01b0316639ec5a8946040518163ffffffff1660e01b815260040160206040518083038186803b15801561062857600080fd5b505afa15801561063c573d6000803e3d6000fd5b505050506040513d601f19601f8201168201806040525081019061066091906125c2565b600080516020612f0d833981519152908363ffffffff6117e716565b600654604051632988bb9f60e21b81526000916001600160a01b03169063a622ee7c906106bb90600080516020612f0d8339815191529060040161294e565b60206040518083038186803b1580156106d357600080fd5b505afa1580156106e7573d6000803e3d6000fd5b505050506040513d601f19601f8201168201806040525081019061070b91906125c2565b90506001600160a01b03811661073c5760405162461bcd60e51b815260040161073390612c0c565b60405180910390fd5b61076c81610750868563ffffffff61152c16565b600080516020612f0d833981519152919063ffffffff6117e716565b50505050565b73c02aaa39b223fe8d0a0e5c4f27ead9083c756cc281565b6040516361bfb47160e11b81526000908190600080516020612eed83398151915290829081908190849063c37f68e2906107c890309060040161294e565b60806040518083038186803b1580156107e057600080fd5b505afa1580156107f4573d6000803e3d6000fd5b505050506040513d601f19601f8201168201806040525081019061081891906127ea565b93509350935050819450610841670de0b6b3a76400006105c9838661176b90919063ffffffff16565b9550505050509091565b60008061085661127e565b905080156108fc576108f9670de0b6b3a76400006105c9600080516020612eed8339815191526001600160a01b031663182df0f56040518163ffffffff1660e01b815260040160206040518083038186803b1580156108b457600080fd5b505afa1580156108c8573d6000803e3d6000fd5b505050506040513d601f19601f820116820180604052508101906108ec91906127a5565b849063ffffffff61176b16565b90505b905090565b60025481565b60035481565b6007546001600160a01b0316331480610935575060055461010090046001600160a01b031633145b6109515760405162461bcd60e51b815260040161073390612cde565b610959611387565b565b60055461010090046001600160a01b031681565b600080516020612eed83398151915281565b60055461010090046001600160a01b031633146109b05760405162461bcd60e51b815260040161073390612b1d565b600055565b60008060006109c261078a565b915091506109ee816109e2846109d6611302565b9063ffffffff61174616565b9063ffffffff61152c16565b9250505090565b61271081565b6006546000906001600160a01b03163314610a285760405162461bcd60e51b815260040161073390612b42565b610a3061183d565b6040516370a0823160e01b8152600080516020612f0d833981519152906370a0823190610a6190309060040161294e565b60206040518083038186803b158015610a7957600080fd5b505afa158015610a8d573d6000803e3d6000fd5b505050506040513d601f19601f82011682018060405250810190610ab191906127a5565b600654604051632988bb9f60e21b81529192506000916001600160a01b039091169063a622ee7c90610af590600080516020612f0d8339815191529060040161294e565b60206040518083038186803b158015610b0d57600080fd5b505afa158015610b21573d6000803e3d6000fd5b505050506040513d601f19601f82011682018060405250810190610b4591906125c2565b90506001600160a01b038116610b6d5760405162461bcd60e51b815260040161073390612c0c565b610b8c600080516020612f0d833981519152828463ffffffff6117e716565b5090565b6000806000610b9d61078a565b915091506000600080516020612eed83398151915290506000816001600160a01b031663f8f9da286040518163ffffffff1660e01b815260040160206040518083038186803b158015610bef57600080fd5b505afa158015610c03573d6000803e3d6000fd5b505050506040513d601f19601f82011682018060405250810190610c2791906127a5565b90506000826001600160a01b031663ae9d70b06040518163ffffffff1660e01b815260040160206040518083038186803b158015610c6457600080fd5b505afa158015610c78573d6000803e3d6000fd5b505050506040513d601f19601f82011682018060405250810190610c9c91906127a5565b90506000610cb0838663ffffffff61176b16565b90506000610cc4838863ffffffff61176b16565b9050808211610cd7576000199750610dbd565b6000610cf5670de0b6b3a76400006105c9858563ffffffff61152c16565b90506000610d13886109e260646105c98d604b63ffffffff61176b16565b9050610d25818363ffffffff6117a516565b9950610db8610dab886001600160a01b0316636c540baf6040518163ffffffff1660e01b815260040160206040518083038186803b158015610d6657600080fd5b505afa158015610d7a573d6000803e3d6000fd5b505050506040513d601f19601f82011682018060405250810190610d9e91906127a5565b439063ffffffff61152c16565b8b9063ffffffff61152c16565b995050505b5050505050505090565b60005481565b60008082806020019051810190610de4919061275c565b9092509050600080516020612f0d833981519152600080516020612eed8339815191528315610f6957610e366001600160a01b038316600080516020612eed833981519152600063ffffffff61186316565b610e5e6001600160a01b038316600080516020612eed8339815191528563ffffffff61186316565b60405163073a938160e11b81526001600160a01b03821690630e75270290610e8a908690600401612da3565b602060405180830381600087803b158015610ea457600080fd5b505af1158015610eb8573d6000803e3d6000fd5b505050506040513d601f19601f82011682018060405250810190610edc91906127a5565b50806001600160a01b031663852a12e3610ef585611926565b6040518263ffffffff1660e01b8152600401610f119190612da3565b602060405180830381600087803b158015610f2b57600080fd5b505af1158015610f3f573d6000803e3d6000fd5b505050506040513d601f19601f82011682018060405250810190610f6391906127a5565b50611143565b6040516370a0823160e01b81526000906001600160a01b038416906370a0823190610f9890309060040161294e565b60206040518083038186803b158015610fb057600080fd5b505afa158015610fc4573d6000803e3d6000fd5b505050506040513d601f19601f82011682018060405250810190610fe891906127a5565b90506110136001600160a01b038416600080516020612eed833981519152600063ffffffff61186316565b61103b6001600160a01b038416600080516020612eed8339815191528363ffffffff61186316565b60405163140e25ad60e31b81526001600160a01b0383169063a0712d6890611067908490600401612da3565b602060405180830381600087803b15801561108157600080fd5b505af1158015611095573d6000803e3d6000fd5b505050506040513d601f19601f820116820180604052508101906110b991906127a5565b50816001600160a01b031663c5ebeaec6110d286611926565b6040518263ffffffff1660e01b81526004016110ee9190612da3565b602060405180830381600087803b15801561110857600080fd5b505af115801561111c573d6000803e3d6000fd5b505050506040513d601f19601f8201168201806040525081019061114091906127a5565b50505b50505050505050565b60015481565b60055461010090046001600160a01b031633146111815760405162461bcd60e51b815260040161073390612b1d565b600680546001600160a01b0319166001600160a01b0392909216919091179055565b6007546001600160a01b031633146111cd5760405162461bcd60e51b815260040161073390612ac1565b610f9681106111ee5760405162461bcd60e51b815260040161073390612c70565b600255565b60055461010090046001600160a01b031633146112225760405162461bcd60e51b815260040161073390612b1d565b600580546001600160a01b0390921661010002610100600160a81b0319909216919091179055565b60055461010090046001600160a01b031633146112795760405162461bcd60e51b815260040161073390612b1d565b600155565b6040516370a0823160e01b8152600090600080516020612eed833981519152906370a08231906112b290309060040161294e565b60206040518083038186803b1580156112ca57600080fd5b505afa1580156112de573d6000803e3d6000fd5b505050506040513d601f19601f820116820180604052508101906108fc91906127a5565b6040516370a0823160e01b8152600090600080516020612f0d833981519152906370a08231906112b290309060040161294e565b60055461010090046001600160a01b031633146113655760405162461bcd60e51b815260040161073390612b1d565b600780546001600160a01b0319166001600160a01b0392909216919091179055565b60055460ff166113a95760405162461bcd60e51b815260040161073390612b9e565b6040516370a0823160e01b8152600090600080516020612eed833981519152906370a08231906113dd90309060040161294e565b60206040518083038186803b1580156113f557600080fd5b505afa158015611409573d6000803e3d6000fd5b505050506040513d601f19601f8201168201806040525081019061142d91906127a5565b111561143b5761143b611939565b6040516370a0823160e01b8152600090600080516020612f0d833981519152906370a082319061146f90309060040161294e565b60206040518083038186803b15801561148757600080fd5b505afa15801561149b573d6000803e3d6000fd5b505050506040513d601f19601f820116820180604052508101906114bf91906127a5565b90506003548111156114ea576000806114d9836001611c68565b915091506114e78183611d57565b50505b50565b737a250d5630b4cf539739df2c5dacb4c659f2488d81565b733d9819210a31b4961b30ef54be2aed79b9c9cd3b81565b6006546001600160a01b031681565b600061156e83836040518060400160405280601e81526020017f536166654d6174683a207375627472616374696f6e206f766572666c6f770000815250611fe7565b90505b92915050565b6000806000611587846000611c68565b6040516370a0823160e01b81529193509150600090600080516020612f0d833981519152906370a08231906115c090309060040161294e565b60206040518083038186803b1580156115d857600080fd5b505afa1580156115ec573d6000803e3d6000fd5b505050506040513d601f19601f8201168201806040525081019061161091906127a5565b905061161c8284611d57565b60405163852a12e360e01b8152600080516020612eed83398151915290819063852a12e39061164f908990600401612da3565b602060405180830381600087803b15801561166957600080fd5b505af115801561167d573d6000803e3d6000fd5b505050506040513d601f19601f820116820180604052508101906116a191906127a5565b506040516370a0823160e01b8152600090600080516020612f0d833981519152906370a08231906116d690309060040161294e565b60206040518083038186803b1580156116ee57600080fd5b505afa158015611702573d6000803e3d6000fd5b505050506040513d601f19601f8201168201806040525081019061172691906127a5565b9050600061173a828563ffffffff61152c16565b98975050505050505050565b60008282018381101561156e5760405162461bcd60e51b815260040161073390612b67565b60008261177a57506000611571565b8282028284828161178757fe5b041461156e5760405162461bcd60e51b815260040161073390612bcb565b600061156e83836040518060400160405280601a81526020017f536166654d6174683a206469766973696f6e206279207a65726f000000000000815250612013565b6114e78363a9059cbb60e01b84846040516024016118069291906129d8565b60408051601f198184030181529190526020810180516001600160e01b03166001600160e01b03199093169290921790915261204a565b600061184761127e565b905080156114ea5761185f61059260016109e261084b565b5050565b8015806118eb5750604051636eb1769f60e11b81526001600160a01b0384169063dd62ed3e906118999030908690600401612962565b60206040518083038186803b1580156118b157600080fd5b505afa1580156118c5573d6000803e3d6000fd5b505050506040513d601f19601f820116820180604052508101906118e991906127a5565b155b6119075760405162461bcd60e51b815260040161073390612d4d565b6114e78363095ea7b360e01b84846040516024016118069291906129d8565b600061157182600263ffffffff61174616565b6119416120d9565b6040516370a0823160e01b815260009073c00e94cb662c3520282e6f5717214004a7f26888906370a082319061197b90309060040161294e565b60206040518083038186803b15801561199357600080fd5b505afa1580156119a7573d6000803e3d6000fd5b505050506040513d601f19601f820116820180604052508101906119cb91906127a5565b90506004548111156114ea57611a1173c00e94cb662c3520282e6f5717214004a7f26888737a250d5630b4cf539739df2c5dacb4c659f2488d600063ffffffff61186316565b611a4a73c00e94cb662c3520282e6f5717214004a7f26888737a250d5630b4cf539739df2c5dacb4c659f2488d8363ffffffff61186316565b6040805160038082526080820190925260609160208201838036833701905050905073c00e94cb662c3520282e6f5717214004a7f2688881600081518110611a8e57fe5b60200260200101906001600160a01b031690816001600160a01b03168152505073c02aaa39b223fe8d0a0e5c4f27ead9083c756cc281600181518110611ad057fe5b60200260200101906001600160a01b031690816001600160a01b031681525050600080516020612f0d83398151915281600281518110611b0c57fe5b6001600160a01b03909216602092830291909101909101526060737a250d5630b4cf539739df2c5dacb4c659f2488d6338ed17398460008530611b574261070863ffffffff61174616565b6040518663ffffffff1660e01b8152600401611b77959493929190612dba565b600060405180830381600087803b158015611b9157600080fd5b505af1158015611ba5573d6000803e3d6000fd5b505050506040513d6000823e601f3d908101601f19168201604052611bcd91908101906126a9565b9050600081600281518110611bde57fe5b60200260200101519050600081111561076c576000611c0e6127106105c96000548561176b90919063ffffffff16565b9050611c61600660009054906101000a90046001600160a01b03166001600160a01b0316639ec5a8946040518163ffffffff1660e01b815260040160206040518083038186803b15801561062857600080fd5b5050505050565b600080600080611c7661078a565b90925090506000611c8d838363ffffffff61152c16565b905060008615611cae57611ca7828963ffffffff61174616565b9050611ce0565b878211611ccd5760405162461bcd60e51b815260040161073390612ae6565b611cdd828963ffffffff61152c16565b90505b6000611d0f6103e86105c9611d026103e860025461152c90919063ffffffff16565b859063ffffffff61176b16565b905083811015611d345760019550611d2d848263ffffffff61152c16565b9650611d4b565b60009550611d48818563ffffffff61152c16565b96505b50505050509250929050565b731e0447b19bb6ecfdae1e4ae1694b0c3659614e4e6000611d8682600080516020612f0d833981519152612195565b6040516370a0823160e01b8152909150600080516020612f0d8339815191529060009082906370a0823190611dd390731e0447b19bb6ecfdae1e4ae1694b0c3659614e4e9060040161294e565b60206040518083038186803b158015611deb57600080fd5b505afa158015611dff573d6000803e3d6000fd5b505050506040513d601f19601f82011682018060405250810190611e2391906127a5565b905084811015611e31578094505b6000611e3c86611926565b9050611e6c6001600160a01b038416731e0447b19bb6ecfdae1e4ae1694b0c3659614e4e8363ffffffff61186316565b60608787604051602001611e81929190612a9e565b60408051808303601f19018152600380845260808401909252925060609190816020015b611ead612514565b815260200190600190039081611ea5579050509050611ecc86896122e0565b81600081518110611ed957fe5b6020026020010181905250611eed8261236a565b81600181518110611efa57fe5b6020026020010181905250611f0f86846123d8565b81600281518110611f1c57fe5b6020908102919091010152604080516001808252818301909252606091816020015b611f46612566565b815260200190600190039081611f3e579050509050611f63612413565b81600081518110611f7057fe5b602090810291909101015260405163a67a6a4560e01b81526001600160a01b0389169063a67a6a4590611fa990849086906004016129f1565b600060405180830381600087803b158015611fc357600080fd5b505af1158015611fd7573d6000803e3d6000fd5b5050505050505050505050505050565b6000818484111561200b5760405162461bcd60e51b81526004016107339190612aae565b505050900390565b600081836120345760405162461bcd60e51b81526004016107339190612aae565b50600083858161204057fe5b0495945050505050565b606061209f826040518060400160405280602081526020017f5361666545524332303a206c6f772d6c6576656c2063616c6c206661696c6564815250856001600160a01b03166124339092919063ffffffff16565b8051909150156114e757808060200190518101906120bd919061273c565b6114e75760405162461bcd60e51b815260040161073390612d03565b60408051600180825281830190925260609160208083019080368337019050509050600080516020612eed8339815191528160008151811061211757fe5b6001600160a01b039092166020928302919091019091015260405162e1ed9760e51b8152733d9819210a31b4961b30ef54be2aed79b9c9cd3b90631c3db2e090612167903090859060040161297c565b600060405180830381600087803b15801561218157600080fd5b505af1158015611c61573d6000803e3d6000fd5b6000808390506000816001600160a01b031663295c39a56040518163ffffffff1660e01b815260040160206040518083038186803b1580156121d657600080fd5b505afa1580156121ea573d6000803e3d6000fd5b505050506040513d601f19601f8201168201806040525081019061220e91906127a5565b90506000805b828110156122c75760405163062bd3e960e01b81526001600160a01b0385169063062bd3e990612248908490600401612da3565b60206040518083038186803b15801561226057600080fd5b505afa158015612274573d6000803e3d6000fd5b505050506040513d601f19601f8201168201806040525081019061229891906125c2565b9150856001600160a01b0316826001600160a01b031614156122bf57935061157192505050565b600101612214565b5060405162461bcd60e51b815260040161073390612c2c565b6122e8612514565b604080516101008101825260018152600060208083018290528351608081018552828152929384019291908201905b81526020016000815260200185815250815260200184815260200160008152602001306001600160a01b031681526020016000815260200160405180602001604052806000815250815250905092915050565b612372612514565b6040805161010081018252600881526000602080830182905283516080810185528281529293840192919082019081526020016000815260006020918201819052918352820181905260408201819052306060830152608082015260a001929092525090565b6123e0612514565b60408051610100810182526000808252602080830182905283516080810185526001815292938401929190820190612317565b61241b612566565b50604080518082019091523081526001602082015290565b6060612442848460008561244a565b949350505050565b60606124558561250e565b6124715760405162461bcd60e51b815260040161073390612ca7565b60006060866001600160a01b0316858760405161248e9190612932565b60006040518083038185875af1925050503d80600081146124cb576040519150601f19603f3d011682016040523d82523d6000602084013e6124d0565b606091505b509150915081156124e45791506124429050565b8051156124f45780518082602001fd5b8360405162461bcd60e51b81526004016107339190612aae565b3b151590565b60408051610100810182526000808252602082015290810161253461257d565b8152602001600081526020016000815260200160006001600160a01b0316815260200160008152602001606081525090565b604080518082019091526000808252602082015290565b604080516080810190915260008082526020820190815260200160008152602001600081525090565b6000602082840312156125b7578081fd5b813561156e81612ed7565b6000602082840312156125d3578081fd5b815161156e81612ed7565b600080600083850360808112156125f3578283fd5b84356125fe81612ed7565b93506040601f1982011215612611578283fd5b5061261c6040612e2a565b602085013561262a81612ed7565b8152604085013560208201529150606084013567ffffffffffffffff811115612651578182fd5b80850186601f820112612662578283fd5b8035915061267761267283612e71565b612e2a565b82815287602084840101111561268b578384fd5b61269c836020830160208501612e95565b8093505050509250925092565b600060208083850312156126bb578182fd5b825167ffffffffffffffff8111156126d1578283fd5b80840185601f8201126126e2578384fd5b805191506126f261267283612e51565b828152838101908285018585028401860189101561270e578687fd5b8693505b84841015612730578051835260019390930192918501918501612712565b50979650505050505050565b60006020828403121561274d578081fd5b8151801515811461156e578182fd5b6000806040838503121561276e578182fd5b8251801515811461277d578283fd5b6020939093015192949293505050565b60006020828403121561279e578081fd5b5035919050565b6000602082840312156127b6578081fd5b5051919050565b6000806000606084860312156127d1578283fd5b8351925060208401519150604084015190509250925092565b600080600080608085870312156127ff578081fd5b505082516020840151604085015160609095015191969095509092509050565b600061016082516009811061283057fe5b8085525060208301516020850152604083015161285060408601826128fb565b50606083015160c0850152608083015160e085015260a08301516128786101008601826128c2565b5060c083015161012085015260e08301518161014086015261289c828601826128cf565b95945050505050565b80516001600160a01b031682526020908101519082015260400190565b6001600160a01b03169052565b600081518084526128e7816020860160208601612ea1565b601f01601f19169290920160200192915050565b805115158252602081015161290f81612ecd565b6020830152604081015161292281612ecd565b6040830152606090810151910152565b60008251612944818460208701612ea1565b9190910192915050565b6001600160a01b0391909116815260200190565b6001600160a01b0392831681529116602082015260400190565b6001600160a01b038381168252604060208084018290528451918401829052600092858201929091906060860190855b818110156129ca5785518516835294830194918301916001016129ac565b509098975050505050505050565b6001600160a01b03929092168252602082015260400190565b60006040820160408352808551612a088184612da3565b915060209250828701845b82811015612a3457612a268483516128a5565b935090840190600101612a13565b50505083810382850152808551612a4b8184612da3565b91508192508381028201848801865b83811015612a84578583038552612a7283835161281f565b94870194925090860190600101612a5a565b50909998505050505050505050565b901515815260200190565b9115158252602082015260400190565b60006020825261156e60208301846128cf565b6020808252600b908201526a085cdd1c985d1959da5cdd60aa1b604082015260600190565b6020808252601d908201527f7769746864726177696e67206d6f7265207468616e2062616c616e6365000000604082015260600190565b6020808252600b908201526a21676f7665726e616e636560a81b604082015260600190565b6020808252600b908201526a10b1b7b73a3937b63632b960a91b604082015260600190565b6020808252601b908201527f536166654d6174683a206164646974696f6e206f766572666c6f770000000000604082015260600190565b6020808252601390820152725374726174656779204e6f742041637469766560681b604082015260600190565b60208082526021908201527f536166654d6174683a206d756c7469706c69636174696f6e206f766572666c6f6040820152607760f81b606082015260800190565b602080825260069082015265085d985d5b1d60d21b604082015260600190565b60208082526024908201527f4e6f206d61726b6574496420666f756e6420666f722070726f7669646564207460408201526337b5b2b760e11b606082015260800190565b6020808252601f908201527f54617267657420746f6f20636c6f736520746f203478206c6576657261676500604082015260600190565b6020808252601d908201527f416464726573733a2063616c6c20746f206e6f6e2d636f6e7472616374000000604082015260600190565b6020808252600b908201526a08585d5d1a1bdc9a5e995960aa1b604082015260600190565b6020808252602a908201527f5361666545524332303a204552433230206f7065726174696f6e20646964206e6040820152691bdd081cdd58d8d9595960b21b606082015260800190565b60208082526036908201527f5361666545524332303a20617070726f76652066726f6d206e6f6e2d7a65726f60408201527520746f206e6f6e2d7a65726f20616c6c6f77616e636560501b606082015260800190565b90815260200190565b918252602082015260400190565b600060a082018783526020878185015260a0604085015281875180845260c0860191508289019350845b81811015612e095784516001600160a01b031683529383019391830191600101612de4565b50506001600160a01b03969096166060850152505050608001529392505050565b60405181810167ffffffffffffffff81118282101715612e4957600080fd5b604052919050565b600067ffffffffffffffff821115612e67578081fd5b5060209081020190565b600067ffffffffffffffff821115612e87578081fd5b50601f01601f191660200190565b82818337506000910152565b60005b83811015612ebc578181015183820152602001612ea4565b8381111561076c5750506000910152565b600281106114ea57fe5b6001600160a01b03811681146114ea57600080fdfe0000000000000000000000005d3a536e4d6dbd6114cc1ead35777bab948e36430000000000000000000000006b175474e89094c44da98b954eedeac495271d0fa2646970667358221220351f6d9035ffe9dc2336e5fe346aaed2529d0ba49fce1222a97d3b0cdbe8a93364736f6c63430006090033",
    "sourcePath": "d:/Source/Ethereum/YearnStrategies/YearnCompDaiStrat.sol",
    "compiler": {
        "name": "solc",
        "version": "0.6.9+commit.3e3065ac"
    },
    "functionHashes": {
        "DAI()": "e0bab4c4",
        "active()": "02fb0c5e",
        "balanceC()": "b655d653",
        "balanceCInToken()": "4254b506",
        "balanceOf()": "722713f7",
        "balanceOfWant()": "c1a3d44c",
        "cDAI()": "6f6941b9",
        "callFunction(address,(address,uint256),bytes)": "8b418713",
        "comp()": "109d0af8",
        "compound()": "f69e2046",
        "controller()": "f77c4791",
        "deposit()": "d0e30db0",
        "getCurrentPosition()": "418f35cc",
        "getLiquidity()": "0910a510",
        "getName()": "17d7de7c",
        "getblocksUntilLiquidation()": "853e0a3b",
        "governance()": "5aa6e675",
        "harvest()": "4641257d",
        "leverageTarget()": "456d8027",
        "minCompToSell()": "04324af8",
        "minDAI()": "4627cb71",
        "performanceFee()": "87788782",
        "performanceMax()": "7cc79113",
        "setCollateralTarget(uint256)": "9a561fbf",
        "setController(address)": "92eefe9b",
        "setGovernance(address)": "ab033ea9",
        "setPerformanceFee(uint256)": "70897b23",
        "setStrategist(address)": "c7b9d530",
        "setWithdrawalFee(uint256)": "ac1e5025",
        "strategist()": "1fe4a686",
        "uni()": "edc9af95",
        "want()": "1f1fcd51",
        "weth()": "3fc8cef3",
        "withdraw(uint256)": "2e1a7d4d",
        "withdrawAll()": "853828b6",
        "withdrawalFee()": "8bc7e8c4",
        "withdrawalMax()": "d5c1ff73"
    },
    "gasEstimates": {
        "creation": {
            "codeDepositCost": "2426000",
            "executionCost": "infinite",
            "totalCost": "infinite"
        },
        "external": {
            "DAI()": "infinite",
            "active()": "1087",
            "balanceC()": "infinite",
            "balanceCInToken()": "infinite",
            "balanceOf()": "infinite",
            "balanceOfWant()": "infinite",
            "cDAI()": "infinite",
            "callFunction(address,(address,uint256),bytes)": "infinite",
            "comp()": "365",
            "compound()": "362",
            "controller()": "1202",
            "deposit()": "infinite",
            "getCurrentPosition()": "infinite",
            "getLiquidity()": "infinite",
            "getName()": "infinite",
            "getblocksUntilLiquidation()": "infinite",
            "governance()": "1148",
            "harvest()": "infinite",
            "leverageTarget()": "1118",
            "minCompToSell()": "1097",
            "minDAI()": "1140",
            "performanceFee()": "1140",
            "performanceMax()": "274",
            "setCollateralTarget(uint256)": "21198",
            "setController(address)": "22109",
            "setGovernance(address)": "22164",
            "setPerformanceFee(uint256)": "21186",
            "setStrategist(address)": "22131",
            "setWithdrawalFee(uint256)": "21120",
            "strategist()": "1160",
            "uni()": "340",
            "want()": "infinite",
            "weth()": "386",
            "withdraw(uint256)": "infinite",
            "withdrawAll()": "infinite",
            "withdrawalFee()": "1095",
            "withdrawalMax()": "272"
        },
        "internal": {
            "_calculateDesiredPosition(uint256,bool)": "infinite",
            "_claimComp()": "infinite",
            "_harvest()": "infinite",
            "_withdrawAll()": "infinite",
            "_withdrawC(uint256)": "infinite",
            "_withdrawSome(uint256)": "infinite",
            "doFlashLoan(bool,uint256)": "infinite"
        }
    }
}