{
    "contractName": "YearnCompDaiStrategy",
    "abi": [
        {
            "inputs": [
                {
                    "internalType": "address",
                    "name": "_controller",
                    "type": "address"
                }
            ],
            "stateMutability": "nonpayable",
            "type": "constructor"
        },
        {
            "inputs": [],
            "name": "DAI",
            "outputs": [
                {
                    "internalType": "address",
                    "name": "",
                    "type": "address"
                }
            ],
            "stateMutability": "view",
            "type": "function"
        },
        {
            "inputs": [],
            "name": "balanceC",
            "outputs": [
                {
                    "internalType": "uint256",
                    "name": "",
                    "type": "uint256"
                }
            ],
            "stateMutability": "view",
            "type": "function"
        },
        {
            "inputs": [],
            "name": "balanceCInToken",
            "outputs": [
                {
                    "internalType": "uint256",
                    "name": "",
                    "type": "uint256"
                }
            ],
            "stateMutability": "view",
            "type": "function"
        },
        {
            "inputs": [],
            "name": "balanceOf",
            "outputs": [
                {
                    "internalType": "uint256",
                    "name": "",
                    "type": "uint256"
                }
            ],
            "stateMutability": "view",
            "type": "function"
        },
        {
            "inputs": [],
            "name": "balanceOfWant",
            "outputs": [
                {
                    "internalType": "uint256",
                    "name": "",
                    "type": "uint256"
                }
            ],
            "stateMutability": "view",
            "type": "function"
        },
        {
            "inputs": [],
            "name": "cDAI",
            "outputs": [
                {
                    "internalType": "address",
                    "name": "",
                    "type": "address"
                }
            ],
            "stateMutability": "view",
            "type": "function"
        },
        {
            "inputs": [
                {
                    "internalType": "address",
                    "name": "sender",
                    "type": "address"
                },
                {
                    "components": [
                        {
                            "internalType": "address",
                            "name": "owner",
                            "type": "address"
                        },
                        {
                            "internalType": "uint256",
                            "name": "number",
                            "type": "uint256"
                        }
                    ],
                    "internalType": "struct Account.Info",
                    "name": "account",
                    "type": "tuple"
                },
                {
                    "internalType": "bytes",
                    "name": "data",
                    "type": "bytes"
                }
            ],
            "name": "callFunction",
            "outputs": [],
            "stateMutability": "nonpayable",
            "type": "function"
        },
        {
            "inputs": [],
            "name": "comp",
            "outputs": [
                {
                    "internalType": "address",
                    "name": "",
                    "type": "address"
                }
            ],
            "stateMutability": "view",
            "type": "function"
        },
        {
            "inputs": [],
            "name": "compound",
            "outputs": [
                {
                    "internalType": "contract ComptrollerI",
                    "name": "",
                    "type": "address"
                }
            ],
            "stateMutability": "view",
            "type": "function"
        },
        {
            "inputs": [],
            "name": "controller",
            "outputs": [
                {
                    "internalType": "address",
                    "name": "",
                    "type": "address"
                }
            ],
            "stateMutability": "view",
            "type": "function"
        },
        {
            "inputs": [],
            "name": "deposit",
            "outputs": [],
            "stateMutability": "nonpayable",
            "type": "function"
        },
        {
            "inputs": [],
            "name": "getCurrentPosition",
            "outputs": [
                {
                    "internalType": "uint256",
                    "name": "deposits",
                    "type": "uint256"
                },
                {
                    "internalType": "uint256",
                    "name": "borrows",
                    "type": "uint256"
                }
            ],
            "stateMutability": "view",
            "type": "function"
        },
        {
            "inputs": [],
            "name": "getName",
            "outputs": [
                {
                    "internalType": "string",
                    "name": "",
                    "type": "string"
                }
            ],
            "stateMutability": "pure",
            "type": "function"
        },
        {
            "inputs": [],
            "name": "governance",
            "outputs": [
                {
                    "internalType": "address",
                    "name": "",
                    "type": "address"
                }
            ],
            "stateMutability": "view",
            "type": "function"
        },
        {
            "inputs": [],
            "name": "harvest",
            "outputs": [],
            "stateMutability": "nonpayable",
            "type": "function"
        },
        {
            "inputs": [],
            "name": "leverageTarget",
            "outputs": [
                {
                    "internalType": "uint256",
                    "name": "",
                    "type": "uint256"
                }
            ],
            "stateMutability": "view",
            "type": "function"
        },
        {
            "inputs": [],
            "name": "performanceFee",
            "outputs": [
                {
                    "internalType": "uint256",
                    "name": "",
                    "type": "uint256"
                }
            ],
            "stateMutability": "view",
            "type": "function"
        },
        {
            "inputs": [],
            "name": "performanceMax",
            "outputs": [
                {
                    "internalType": "uint256",
                    "name": "",
                    "type": "uint256"
                }
            ],
            "stateMutability": "view",
            "type": "function"
        },
        {
            "inputs": [
                {
                    "internalType": "uint256",
                    "name": "target",
                    "type": "uint256"
                }
            ],
            "name": "setCollateralTarget",
            "outputs": [],
            "stateMutability": "nonpayable",
            "type": "function"
        },
        {
            "inputs": [
                {
                    "internalType": "address",
                    "name": "_controller",
                    "type": "address"
                }
            ],
            "name": "setController",
            "outputs": [],
            "stateMutability": "nonpayable",
            "type": "function"
        },
        {
            "inputs": [
                {
                    "internalType": "address",
                    "name": "_governance",
                    "type": "address"
                }
            ],
            "name": "setGovernance",
            "outputs": [],
            "stateMutability": "nonpayable",
            "type": "function"
        },
        {
            "inputs": [
                {
                    "internalType": "uint256",
                    "name": "_performanceFee",
                    "type": "uint256"
                }
            ],
            "name": "setPerformanceFee",
            "outputs": [],
            "stateMutability": "nonpayable",
            "type": "function"
        },
        {
            "inputs": [
                {
                    "internalType": "address",
                    "name": "_strategist",
                    "type": "address"
                }
            ],
            "name": "setStrategist",
            "outputs": [],
            "stateMutability": "nonpayable",
            "type": "function"
        },
        {
            "inputs": [
                {
                    "internalType": "uint256",
                    "name": "_withdrawalFee",
                    "type": "uint256"
                }
            ],
            "name": "setWithdrawalFee",
            "outputs": [],
            "stateMutability": "nonpayable",
            "type": "function"
        },
        {
            "inputs": [],
            "name": "strategist",
            "outputs": [
                {
                    "internalType": "address",
                    "name": "",
                    "type": "address"
                }
            ],
            "stateMutability": "view",
            "type": "function"
        },
        {
            "inputs": [],
            "name": "uni",
            "outputs": [
                {
                    "internalType": "address",
                    "name": "",
                    "type": "address"
                }
            ],
            "stateMutability": "view",
            "type": "function"
        },
        {
            "inputs": [],
            "name": "want",
            "outputs": [
                {
                    "internalType": "address",
                    "name": "",
                    "type": "address"
                }
            ],
            "stateMutability": "view",
            "type": "function"
        },
        {
            "inputs": [],
            "name": "weth",
            "outputs": [
                {
                    "internalType": "address",
                    "name": "",
                    "type": "address"
                }
            ],
            "stateMutability": "view",
            "type": "function"
        },
        {
            "inputs": [
                {
                    "internalType": "uint256",
                    "name": "_amount",
                    "type": "uint256"
                }
            ],
            "name": "withdraw",
            "outputs": [],
            "stateMutability": "nonpayable",
            "type": "function"
        },
        {
            "inputs": [
                {
                    "internalType": "contract IERC20",
                    "name": "_asset",
                    "type": "address"
                }
            ],
            "name": "withdraw",
            "outputs": [
                {
                    "internalType": "uint256",
                    "name": "balance",
                    "type": "uint256"
                }
            ],
            "stateMutability": "nonpayable",
            "type": "function"
        },
        {
            "inputs": [],
            "name": "withdrawAll",
            "outputs": [
                {
                    "internalType": "uint256",
                    "name": "balance",
                    "type": "uint256"
                }
            ],
            "stateMutability": "nonpayable",
            "type": "function"
        },
        {
            "inputs": [],
            "name": "withdrawalFee",
            "outputs": [
                {
                    "internalType": "uint256",
                    "name": "",
                    "type": "uint256"
                }
            ],
            "stateMutability": "view",
            "type": "function"
        },
        {
            "inputs": [],
            "name": "withdrawalMax",
            "outputs": [
                {
                    "internalType": "uint256",
                    "name": "",
                    "type": "uint256"
                }
            ],
            "stateMutability": "view",
            "type": "function"
        }
    ],
    "bytecode": "60806040526101f46000556032600155610e7460025534801561002157600080fd5b50604051620023f4380380620023f483398101604081905261004291610082565b60038054336001600160a01b03199182168117909255600580548216909217909155600480549091166001600160a01b03929092169190911790556100b0565b600060208284031215610093578081fd5b81516001600160a01b03811681146100a9578182fd5b9392505050565b61233480620000c06000396000f3fe608060405234801561001057600080fd5b50600436106101fb5760003560e01c8063853828b61161011a578063b655d653116100ad578063d5c1ff731161007c578063d5c1ff73146102d9578063e0bab4c414610233578063edc9af9514610383578063f69e20461461038b578063f77c479114610393576101fb565b8063b655d65314610358578063c1a3d44c14610360578063c7b9d53014610368578063d0e30db01461037b576101fb565b806392eefe9b116100e957806392eefe9b1461030c5780639a561fbf1461031f578063ab033ea914610332578063ac1e502514610345576101fb565b8063853828b6146102e157806387788782146102e95780638b418713146102f15780638bc7e8c414610304576101fb565b8063456d8027116101925780636f6941b9116101615780636f6941b9146102b657806370897b23146102be578063722713f7146102d15780637cc79113146102d9576101fb565b8063456d80271461028b5780634641257d1461029357806351cff8d91461029b5780635aa6e675146102ae576101fb565b80632e1a7d4d116101ce5780632e1a7d4d146102435780633fc8cef314610258578063418f35cc146102605780634254b50614610276576101fb565b8063109d0af81461020057806317d7de7c1461021e5780631f1fcd51146102335780631fe4a6861461023b575b600080fd5b61020861039b565b6040516102159190611e2e565b60405180910390f35b6102266103b3565b6040516102159190611ed1565b6102086103e2565b6102086103f4565b610256610251366004611d8c565b610403565b005b6102086106af565b6102686106c7565b6040516102159291906121d8565b61027e610788565b60405161021591906121cf565b61027e610844565b61025661084a565b61027e6102a9366004611bc1565b610893565b610208610a15565b610208610a24565b6102566102cc366004611d8c565b610a3c565b61027e610a6b565b61027e610a8c565b61027e610a92565b61027e610c26565b6102566102ff366004611bf9565b610c2c565b61027e610c51565b61025661031a366004611bc1565b610c57565b61025661032d366004611d8c565b610ca3565b610256610340366004611bc1565b610cf3565b610256610353366004611d8c565b610d3f565b61027e610d6e565b61027e610df8565b610256610376366004611bc1565b610e2c565b610256610e78565b610208610fb2565b610208610fca565b610208610fe2565b73c00e94cb662c3520282e6f5717214004a7f2688881565b60408051808201909152601581527413195d995c9859d95911185a50dbdb5c14dd1c985d605a1b602082015290565b6000805160206122df83398151915281565b6005546001600160a01b031681565b6004546001600160a01b031633146104365760405162461bcd60e51b815260040161042d90611f85565b60405180910390fd5b6040516370a0823160e01b81526000906000805160206122df833981519152906370a082319061046a903090600401611e2e565b60206040518083038186803b15801561048257600080fd5b505afa158015610496573d6000803e3d6000fd5b505050506040513d601f19601f820116820180604052508101906104ba9190611da4565b9050818110156104f1576104dc6104d7838363ffffffff610ff116565b61103c565b91506104ee828263ffffffff6111a616565b91505b600061051a61271061050e600154866111cb90919063ffffffff16565b9063ffffffff61120516565b90506105c1600460009054906101000a90046001600160a01b03166001600160a01b0316639ec5a8946040518163ffffffff1660e01b815260040160206040518083038186803b15801561056d57600080fd5b505afa158015610581573d6000803e3d6000fd5b505050506040513d601f19601f820116820180604052508101906105a59190611bdd565b6000805160206122df833981519152908363ffffffff61124716565b60048054604051632988bb9f60e21b81526000926001600160a01b039092169163a622ee7c91610601916000805160206122df8339815191529101611e2e565b60206040518083038186803b15801561061957600080fd5b505afa15801561062d573d6000803e3d6000fd5b505050506040513d601f19601f820116820180604052508101906106519190611bdd565b90506001600160a01b0381166106795760405162461bcd60e51b815260040161042d9061205e565b6106a98161068d868563ffffffff610ff116565b6000805160206122df833981519152919063ffffffff61124716565b50505050565b73c02aaa39b223fe8d0a0e5c4f27ead9083c756cc281565b6040516361bfb47160e11b81526000908190735d3a536e4d6dbd6114cc1ead35777bab948e364390829081908190849063c37f68e29061070b903090600401611e2e565b60806040518083038186803b15801561072357600080fd5b505afa158015610737573d6000803e3d6000fd5b505050506040513d601f19601f8201168201806040525081019061075b9190611dbc565b9350935093505081945061077d604051806020016040528083815250846112a2565b979596505050505050565b600080610793610d6e565b9050801561083f5761083c670de0b6b3a764000061050e735d3a536e4d6dbd6114cc1ead35777bab948e36436001600160a01b031663182df0f56040518163ffffffff1660e01b815260040160206040518083038186803b1580156107f757600080fd5b505afa15801561080b573d6000803e3d6000fd5b505050506040513d601f19601f8201168201806040525081019061082f9190611da4565b849063ffffffff6111cb16565b90505b905090565b60025481565b6005546001600160a01b031633148061086d57506003546001600160a01b031633145b6108895760405162461bcd60e51b815260040161042d9061210a565b610891610e78565b565b6004546000906001600160a01b031633146108c05760405162461bcd60e51b815260040161042d90611f85565b6000805160206122df8339815191526001600160a01b03831614156108f75760405162461bcd60e51b815260040161042d90611fe1565b735d3a536e4d6dbd6114cc1ead35777bab948e36436001600160a01b03831614156109345760405162461bcd60e51b815260040161042d9061207e565b73c00e94cb662c3520282e6f5717214004a7f268886001600160a01b03831614156109715760405162461bcd60e51b815260040161042d90612040565b6040516370a0823160e01b81526001600160a01b038316906370a082319061099d903090600401611e2e565b60206040518083038186803b1580156109b557600080fd5b505afa1580156109c9573d6000803e3d6000fd5b505050506040513d601f19601f820116820180604052508101906109ed9190611da4565b600454909150610a10906001600160a01b0384811691168363ffffffff61124716565b919050565b6003546001600160a01b031681565b735d3a536e4d6dbd6114cc1ead35777bab948e364381565b6003546001600160a01b03163314610a665760405162461bcd60e51b815260040161042d90611f60565b600055565b600061083f610a78610788565b610a80610df8565b9063ffffffff6111a616565b61271081565b6004546000906001600160a01b03163314610abf5760405162461bcd60e51b815260040161042d90611f85565b610ac76112f6565b6040516370a0823160e01b81526000805160206122df833981519152906370a0823190610af8903090600401611e2e565b60206040518083038186803b158015610b1057600080fd5b505afa158015610b24573d6000803e3d6000fd5b505050506040513d601f19601f82011682018060405250810190610b489190611da4565b60048054604051632988bb9f60e21b81529293506000926001600160a01b039091169163a622ee7c91610b8b916000805160206122df8339815191529101611e2e565b60206040518083038186803b158015610ba357600080fd5b505afa158015610bb7573d6000803e3d6000fd5b505050506040513d601f19601f82011682018060405250810190610bdb9190611bdd565b90506001600160a01b038116610c035760405162461bcd60e51b815260040161042d9061205e565b610c226000805160206122df833981519152828463ffffffff61124716565b5090565b60005481565b600081806020019051810190610c429190611df1565b905060ff81166106a9576106a9565b60015481565b6003546001600160a01b03163314610c815760405162461bcd60e51b815260040161042d90611f60565b600480546001600160a01b0319166001600160a01b0392909216919091179055565b6005546001600160a01b03163314610ccd5760405162461bcd60e51b815260040161042d90611f04565b610f968110610cee5760405162461bcd60e51b815260040161042d9061209c565b600255565b6003546001600160a01b03163314610d1d5760405162461bcd60e51b815260040161042d90611f60565b600380546001600160a01b0319166001600160a01b0392909216919091179055565b6003546001600160a01b03163314610d695760405162461bcd60e51b815260040161042d90611f60565b600155565b6040516370a0823160e01b8152600090735d3a536e4d6dbd6114cc1ead35777bab948e3643906370a0823190610da8903090600401611e2e565b60206040518083038186803b158015610dc057600080fd5b505afa158015610dd4573d6000803e3d6000fd5b505050506040513d601f19601f8201168201806040525081019061083f9190611da4565b6040516370a0823160e01b81526000906000805160206122df833981519152906370a0823190610da8903090600401611e2e565b6003546001600160a01b03163314610e565760405162461bcd60e51b815260040161042d90611f60565b600580546001600160a01b0319166001600160a01b0392909216919091179055565b6040516370a0823160e01b8152600090735d3a536e4d6dbd6114cc1ead35777bab948e3643906370a0823190610eb2903090600401611e2e565b60206040518083038186803b158015610eca57600080fd5b505afa158015610ede573d6000803e3d6000fd5b505050506040513d601f19601f82011682018060405250810190610f029190611da4565b1115610f1057610f10611328565b6040516370a0823160e01b81526000906000805160206122df833981519152906370a0823190610f44903090600401611e2e565b60206040518083038186803b158015610f5c57600080fd5b505afa158015610f70573d6000803e3d6000fd5b505050506040513d601f19601f82011682018060405250810190610f949190611da4565b90508015610faf57600080610faa83600161164c565b505050505b50565b737a250d5630b4cf539739df2c5dacb4c659f2488d81565b733d9819210a31b4961b30ef54be2aed79b9c9cd3b81565b6004546001600160a01b031681565b600061103383836040518060400160405280601e81526020017f536166654d6174683a207375627472616374696f6e206f766572666c6f77000081525061170c565b90505b92915050565b600080611047610d6e565b90506000611053610788565b905060006110706001610a808461050e878a63ffffffff6111cb16565b6040516370a0823160e01b81529091506000906000805160206122df833981519152906370a08231906110a7903090600401611e2e565b60206040518083038186803b1580156110bf57600080fd5b505afa1580156110d3573d6000803e3d6000fd5b505050506040513d601f19601f820116820180604052508101906110f79190611da4565b905061110282611738565b6040516370a0823160e01b81526000906000805160206122df833981519152906370a0823190611136903090600401611e2e565b60206040518083038186803b15801561114e57600080fd5b505afa158015611162573d6000803e3d6000fd5b505050506040513d601f19601f820116820180604052508101906111869190611da4565b9050600061119a828463ffffffff610ff116565b98975050505050505050565b6000828201838110156110335760405162461bcd60e51b815260040161042d90611faa565b6000826111da57506000611036565b828202828482816111e757fe5b04146110335760405162461bcd60e51b815260040161042d90611fff565b600061103383836040518060400160405280601a81526020017f536166654d6174683a206469766973696f6e206279207a65726f0000000000008152506117c1565b61129d8363a9059cbb60e01b8484604051602401611266929190611eb8565b60408051601f198184030181529190526020810180516001600160e01b03166001600160e01b0319909316929092179091526117f8565b505050565b60008060006112af611ba3565b6112b98686611887565b909250905060008260038111156112cc57fe5b146112dd57509150600090506112ef565b60006112e8826118ef565b9350935050505b9250929050565b6000611300610d6e565b90508015610faf576113246104d76001611318610788565b9063ffffffff610ff116565b5050565b6113306118fe565b6040516370a0823160e01b815260009073c00e94cb662c3520282e6f5717214004a7f26888906370a082319061136a903090600401611e2e565b60206040518083038186803b15801561138257600080fd5b505afa158015611396573d6000803e3d6000fd5b505050506040513d601f19601f820116820180604052508101906113ba9190611da4565b90508015610faf576113fc73c00e94cb662c3520282e6f5717214004a7f26888737a250d5630b4cf539739df2c5dacb4c659f2488d600063ffffffff6119c016565b61143573c00e94cb662c3520282e6f5717214004a7f26888737a250d5630b4cf539739df2c5dacb4c659f2488d8363ffffffff6119c016565b6040805160038082526080820190925260609160208201838036833701905050905073c00e94cb662c3520282e6f5717214004a7f268888160008151811061147957fe5b60200260200101906001600160a01b031690816001600160a01b03168152505073c02aaa39b223fe8d0a0e5c4f27ead9083c756cc2816001815181106114bb57fe5b60200260200101906001600160a01b031690816001600160a01b0316815250506000805160206122df833981519152816002815181106114f757fe5b6001600160a01b03909216602092830291909101909101526060737a250d5630b4cf539739df2c5dacb4c659f2488d6338ed173984600085306115424261070863ffffffff6111a616565b6040518663ffffffff1660e01b81526004016115629594939291906121e6565b600060405180830381600087803b15801561157c57600080fd5b505af1158015611590573d6000803e3d6000fd5b505050506040513d6000823e601f3d908101601f191682016040526115b89190810190611cd4565b90506000816002815181106115c957fe5b6020026020010151905060008111156106a95760006115f961271061050e600054856111cb90919063ffffffff16565b9050610faa600460009054906101000a90046001600160a01b03166001600160a01b0316639ec5a8946040518163ffffffff1660e01b815260040160206040518083038186803b15801561056d57600080fd5b60008060008061165a6106c7565b90925090506000851561167e57611677838863ffffffff6111a616565b90506116b0565b86831161169d5760405162461bcd60e51b815260040161042d90611f29565b6116ad838863ffffffff610ff116565b90505b60006116df6103e861050e6116d26103e8600254610ff190919063ffffffff16565b859063ffffffff6111cb16565b9050828110156116f757600194508083039550611701565b6000945082810395505b505050509250929050565b600081848411156117305760405162461bcd60e51b815260040161042d9190611ed1565b505050900390565b60405163db006a7560e01b8152735d3a536e4d6dbd6114cc1ead35777bab948e36439063db006a759061176f9084906004016121cf565b602060405180830381600087803b15801561178957600080fd5b505af115801561179d573d6000803e3d6000fd5b505050506040513d601f19601f820116820180604052508101906113249190611da4565b600081836117e25760405162461bcd60e51b815260040161042d9190611ed1565b5060008385816117ee57fe5b0495945050505050565b606061184d826040518060400160405280602081526020017f5361666545524332303a206c6f772d6c6576656c2063616c6c206661696c6564815250856001600160a01b0316611a839092919063ffffffff16565b80519091501561129d578080602001905181019061186b9190611d6c565b61129d5760405162461bcd60e51b815260040161042d9061212f565b6000611891611ba3565b6000806118a2866000015186611a9a565b909250905060008260038111156118b557fe5b146118d4575060408051602081019091526000815290925090506112ef565b60408051602081019091529081526000969095509350505050565b51670de0b6b3a7640000900490565b60408051600180825281830190925260609160208083019080368337019050509050735d3a536e4d6dbd6114cc1ead35777bab948e36438160008151811061194257fe5b6001600160a01b039092166020928302919091019091015260405162e1ed9760e51b8152733d9819210a31b4961b30ef54be2aed79b9c9cd3b90631c3db2e0906119929030908590600401611e5c565b600060405180830381600087803b1580156119ac57600080fd5b505af1158015610faa573d6000803e3d6000fd5b801580611a485750604051636eb1769f60e11b81526001600160a01b0384169063dd62ed3e906119f69030908690600401611e42565b60206040518083038186803b158015611a0e57600080fd5b505afa158015611a22573d6000803e3d6000fd5b505050506040513d601f19601f82011682018060405250810190611a469190611da4565b155b611a645760405162461bcd60e51b815260040161042d90612179565b61129d8363095ea7b360e01b8484604051602401611266929190611eb8565b6060611a928484600085611ad9565b949350505050565b60008083611aad575060009050806112ef565b83830283858281611aba57fe5b0414611ace575060029150600090506112ef565b6000925090506112ef565b6060611ae485611b9d565b611b005760405162461bcd60e51b815260040161042d906120d3565b60006060866001600160a01b03168587604051611b1d9190611e12565b60006040518083038185875af1925050503d8060008114611b5a576040519150601f19603f3d011682016040523d82523d6000602084013e611b5f565b606091505b50915091508115611b73579150611a929050565b805115611b835780518082602001fd5b8360405162461bcd60e51b815260040161042d9190611ed1565b3b151590565b6040518060200160405280600081525090565b8035611036816122c9565b600060208284031215611bd2578081fd5b8135611033816122c9565b600060208284031215611bee578081fd5b8151611033816122c9565b60008060008385036080811215611c0e578283fd5b8435611c19816122c9565b93506020601f1960408382011215611c2f578485fd5b611c396040612256565b9250611c4788838901611bb6565b835260408701358284015291935060608601359167ffffffffffffffff80841115611c70578485fd5b83880189601f820112611c81578586fd5b8035945081851115611c91578586fd5b611ca18484601f88011601612256565b91508482528984868301011115611cb6578586fd5b84848201858401375084838583010152809450505050509250925092565b60006020808385031215611ce6578182fd5b825167ffffffffffffffff811115611cfc578283fd5b80840185601f820112611d0d578384fd5b80519150611d22611d1d8361227d565b612256565b8281528381019082850185850284018601891015611d3e578687fd5b8693505b84841015611d60578051835260019390930192918501918501611d42565b50979650505050505050565b600060208284031215611d7d578081fd5b81518015158114611033578182fd5b600060208284031215611d9d578081fd5b5035919050565b600060208284031215611db5578081fd5b5051919050565b60008060008060808587031215611dd1578081fd5b505082516020840151604085015160609095015191969095509092509050565b600060208284031215611e02578081fd5b815160ff81168114611033578182fd5b60008251611e2481846020870161229d565b9190910192915050565b6001600160a01b0391909116815260200190565b6001600160a01b0392831681529116602082015260400190565b6001600160a01b038381168252604060208084018290528451918401829052600092858201929091906060860190855b81811015611eaa578551851683529483019491830191600101611e8c565b509098975050505050505050565b6001600160a01b03929092168252602082015260400190565b6000602082528251806020840152611ef081604085016020870161229d565b601f01601f19169190910160400192915050565b6020808252600b908201526a085cdd1c985d1959da5cdd60aa1b604082015260600190565b6020808252601d908201527f7769746864726177696e67206d6f7265207468616e2062616c616e6365000000604082015260600190565b6020808252600b908201526a21676f7665726e616e636560a81b604082015260600190565b6020808252600b908201526a10b1b7b73a3937b63632b960a91b604082015260600190565b6020808252601b908201527f536166654d6174683a206164646974696f6e206f766572666c6f770000000000604082015260600190565b6020808252600490820152631dd85b9d60e21b604082015260600190565b60208082526021908201527f536166654d6174683a206d756c7469706c69636174696f6e206f766572666c6f6040820152607760f81b606082015260800190565b6020808252600490820152630636f6d760e41b604082015260600190565b602080825260069082015265085d985d5b1d60d21b604082015260600190565b6020808252600490820152636344414960e01b604082015260600190565b6020808252601f908201527f54617267657420746f6f20636c6f736520746f203478206c6576657261676500604082015260600190565b6020808252601d908201527f416464726573733a2063616c6c20746f206e6f6e2d636f6e7472616374000000604082015260600190565b6020808252600b908201526a08585d5d1a1bdc9a5e995960aa1b604082015260600190565b6020808252602a908201527f5361666545524332303a204552433230206f7065726174696f6e20646964206e6040820152691bdd081cdd58d8d9595960b21b606082015260800190565b60208082526036908201527f5361666545524332303a20617070726f76652066726f6d206e6f6e2d7a65726f60408201527520746f206e6f6e2d7a65726f20616c6c6f77616e636560501b606082015260800190565b90815260200190565b918252602082015260400190565b600060a082018783526020878185015260a0604085015281875180845260c0860191508289019350845b818110156122355784516001600160a01b031683529383019391830191600101612210565b50506001600160a01b03969096166060850152505050608001529392505050565b60405181810167ffffffffffffffff8111828210171561227557600080fd5b604052919050565b600067ffffffffffffffff821115612293578081fd5b5060209081020190565b60005b838110156122b85781810151838201526020016122a0565b838111156106a95750506000910152565b6001600160a01b0381168114610faf57600080fdfe0000000000000000000000006b175474e89094c44da98b954eedeac495271d0fa264697066735822122092d74bcc86f56e809d61b2dad03da23c1c9a5add329e6759b17c1875b45ceb0264736f6c63430006090033",
    "sourcePath": "d:/Source/Ethereum/YearnStrategies/YearnCompDaiStrat.sol",
    "compiler": {
        "name": "solc",
        "version": "0.6.9+commit.3e3065ac"
    },
    "functionHashes": {
        "DAI()": "e0bab4c4",
        "balanceC()": "b655d653",
        "balanceCInToken()": "4254b506",
        "balanceOf()": "722713f7",
        "balanceOfWant()": "c1a3d44c",
        "cDAI()": "6f6941b9",
        "callFunction(address,(address,uint256),bytes)": "8b418713",
        "comp()": "109d0af8",
        "compound()": "f69e2046",
        "controller()": "f77c4791",
        "deposit()": "d0e30db0",
        "getCurrentPosition()": "418f35cc",
        "getName()": "17d7de7c",
        "governance()": "5aa6e675",
        "harvest()": "4641257d",
        "leverageTarget()": "456d8027",
        "performanceFee()": "87788782",
        "performanceMax()": "7cc79113",
        "setCollateralTarget(uint256)": "9a561fbf",
        "setController(address)": "92eefe9b",
        "setGovernance(address)": "ab033ea9",
        "setPerformanceFee(uint256)": "70897b23",
        "setStrategist(address)": "c7b9d530",
        "setWithdrawalFee(uint256)": "ac1e5025",
        "strategist()": "1fe4a686",
        "uni()": "edc9af95",
        "want()": "1f1fcd51",
        "weth()": "3fc8cef3",
        "withdraw(address)": "51cff8d9",
        "withdraw(uint256)": "2e1a7d4d",
        "withdrawAll()": "853828b6",
        "withdrawalFee()": "8bc7e8c4",
        "withdrawalMax()": "d5c1ff73"
    },
    "gasEstimates": {
        "creation": {
            "codeDepositCost": "1802400",
            "executionCost": "infinite",
            "totalCost": "infinite"
        },
        "external": {
            "DAI()": "infinite",
            "balanceC()": "infinite",
            "balanceCInToken()": "infinite",
            "balanceOf()": "infinite",
            "balanceOfWant()": "infinite",
            "cDAI()": "297",
            "callFunction(address,(address,uint256),bytes)": "infinite",
            "comp()": "299",
            "compound()": "362",
            "controller()": "1202",
            "deposit()": "infinite",
            "getCurrentPosition()": "infinite",
            "getName()": "infinite",
            "governance()": "1182",
            "harvest()": "infinite",
            "leverageTarget()": "1074",
            "performanceFee()": "1096",
            "performanceMax()": "339",
            "setCollateralTarget(uint256)": "21154",
            "setController(address)": "22054",
            "setGovernance(address)": "22098",
            "setPerformanceFee(uint256)": "21131",
            "setStrategist(address)": "22098",
            "setWithdrawalFee(uint256)": "21175",
            "strategist()": "1183",
            "uni()": "340",
            "want()": "infinite",
            "weth()": "320",
            "withdraw(address)": "infinite",
            "withdraw(uint256)": "infinite",
            "withdrawAll()": "infinite",
            "withdrawalFee()": "1140",
            "withdrawalMax()": "272"
        },
        "internal": {
            "_calculateDesiredPosition(uint256,bool)": "infinite",
            "_claimComp()": "infinite",
            "_harvest()": "infinite",
            "_withdrawAll()": "infinite",
            "_withdrawC(uint256)": "infinite",
            "_withdrawSome(uint256)": "infinite",
            "doFlashLoan(uint8,uint256)": "infinite"
        }
    }
}