{
    "contractName": "YearnCompDaiStrategy",
    "abi": [
        {
            "inputs": [
                {
                    "internalType": "address",
                    "name": "_controller",
                    "type": "address"
                }
            ],
            "stateMutability": "nonpayable",
            "type": "constructor"
        },
        {
            "inputs": [],
            "name": "DAI",
            "outputs": [
                {
                    "internalType": "address",
                    "name": "",
                    "type": "address"
                }
            ],
            "stateMutability": "view",
            "type": "function"
        },
        {
            "inputs": [],
            "name": "active",
            "outputs": [
                {
                    "internalType": "bool",
                    "name": "",
                    "type": "bool"
                }
            ],
            "stateMutability": "view",
            "type": "function"
        },
        {
            "inputs": [],
            "name": "balanceC",
            "outputs": [
                {
                    "internalType": "uint256",
                    "name": "",
                    "type": "uint256"
                }
            ],
            "stateMutability": "view",
            "type": "function"
        },
        {
            "inputs": [],
            "name": "balanceOf",
            "outputs": [
                {
                    "internalType": "uint256",
                    "name": "",
                    "type": "uint256"
                }
            ],
            "stateMutability": "view",
            "type": "function"
        },
        {
            "inputs": [],
            "name": "balanceOfWant",
            "outputs": [
                {
                    "internalType": "uint256",
                    "name": "",
                    "type": "uint256"
                }
            ],
            "stateMutability": "view",
            "type": "function"
        },
        {
            "inputs": [],
            "name": "cDAI",
            "outputs": [
                {
                    "internalType": "address",
                    "name": "",
                    "type": "address"
                }
            ],
            "stateMutability": "view",
            "type": "function"
        },
        {
            "inputs": [
                {
                    "internalType": "address",
                    "name": "sender",
                    "type": "address"
                },
                {
                    "components": [
                        {
                            "internalType": "address",
                            "name": "owner",
                            "type": "address"
                        },
                        {
                            "internalType": "uint256",
                            "name": "number",
                            "type": "uint256"
                        }
                    ],
                    "internalType": "struct Account.Info",
                    "name": "account",
                    "type": "tuple"
                },
                {
                    "internalType": "bytes",
                    "name": "data",
                    "type": "bytes"
                }
            ],
            "name": "callFunction",
            "outputs": [],
            "stateMutability": "nonpayable",
            "type": "function"
        },
        {
            "inputs": [],
            "name": "comp",
            "outputs": [
                {
                    "internalType": "address",
                    "name": "",
                    "type": "address"
                }
            ],
            "stateMutability": "view",
            "type": "function"
        },
        {
            "inputs": [],
            "name": "compound",
            "outputs": [
                {
                    "internalType": "contract ComptrollerI",
                    "name": "",
                    "type": "address"
                }
            ],
            "stateMutability": "view",
            "type": "function"
        },
        {
            "inputs": [],
            "name": "controller",
            "outputs": [
                {
                    "internalType": "address",
                    "name": "",
                    "type": "address"
                }
            ],
            "stateMutability": "view",
            "type": "function"
        },
        {
            "inputs": [],
            "name": "deposit",
            "outputs": [],
            "stateMutability": "nonpayable",
            "type": "function"
        },
        {
            "inputs": [],
            "name": "disableLeverage",
            "outputs": [],
            "stateMutability": "nonpayable",
            "type": "function"
        },
        {
            "inputs": [],
            "name": "emergencyDeleverage",
            "outputs": [],
            "stateMutability": "nonpayable",
            "type": "function"
        },
        {
            "inputs": [],
            "name": "enableLeverage",
            "outputs": [],
            "stateMutability": "nonpayable",
            "type": "function"
        },
        {
            "inputs": [],
            "name": "getCurrentPosition",
            "outputs": [
                {
                    "internalType": "uint256",
                    "name": "deposits",
                    "type": "uint256"
                },
                {
                    "internalType": "uint256",
                    "name": "borrows",
                    "type": "uint256"
                }
            ],
            "stateMutability": "view",
            "type": "function"
        },
        {
            "inputs": [],
            "name": "getLiquidity",
            "outputs": [
                {
                    "internalType": "uint256",
                    "name": "liquidity",
                    "type": "uint256"
                }
            ],
            "stateMutability": "view",
            "type": "function"
        },
        {
            "inputs": [],
            "name": "getName",
            "outputs": [
                {
                    "internalType": "string",
                    "name": "",
                    "type": "string"
                }
            ],
            "stateMutability": "pure",
            "type": "function"
        },
        {
            "inputs": [],
            "name": "getblocksUntilLiquidation",
            "outputs": [
                {
                    "internalType": "uint256",
                    "name": "blocks",
                    "type": "uint256"
                }
            ],
            "stateMutability": "view",
            "type": "function"
        },
        {
            "inputs": [],
            "name": "governance",
            "outputs": [
                {
                    "internalType": "address",
                    "name": "",
                    "type": "address"
                }
            ],
            "stateMutability": "view",
            "type": "function"
        },
        {
            "inputs": [],
            "name": "harvest",
            "outputs": [],
            "stateMutability": "nonpayable",
            "type": "function"
        },
        {
            "inputs": [],
            "name": "leverageTarget",
            "outputs": [
                {
                    "internalType": "uint256",
                    "name": "",
                    "type": "uint256"
                }
            ],
            "stateMutability": "view",
            "type": "function"
        },
        {
            "inputs": [],
            "name": "minCompToSell",
            "outputs": [
                {
                    "internalType": "uint256",
                    "name": "",
                    "type": "uint256"
                }
            ],
            "stateMutability": "view",
            "type": "function"
        },
        {
            "inputs": [],
            "name": "minDAI",
            "outputs": [
                {
                    "internalType": "uint256",
                    "name": "",
                    "type": "uint256"
                }
            ],
            "stateMutability": "view",
            "type": "function"
        },
        {
            "inputs": [],
            "name": "netBalanceLent",
            "outputs": [
                {
                    "internalType": "uint256",
                    "name": "",
                    "type": "uint256"
                }
            ],
            "stateMutability": "view",
            "type": "function"
        },
        {
            "inputs": [],
            "name": "performanceFee",
            "outputs": [
                {
                    "internalType": "uint256",
                    "name": "",
                    "type": "uint256"
                }
            ],
            "stateMutability": "view",
            "type": "function"
        },
        {
            "inputs": [],
            "name": "performanceMax",
            "outputs": [
                {
                    "internalType": "uint256",
                    "name": "",
                    "type": "uint256"
                }
            ],
            "stateMutability": "view",
            "type": "function"
        },
        {
            "inputs": [
                {
                    "internalType": "uint256",
                    "name": "target",
                    "type": "uint256"
                }
            ],
            "name": "setCollateralTarget",
            "outputs": [],
            "stateMutability": "nonpayable",
            "type": "function"
        },
        {
            "inputs": [
                {
                    "internalType": "address",
                    "name": "_controller",
                    "type": "address"
                }
            ],
            "name": "setController",
            "outputs": [],
            "stateMutability": "nonpayable",
            "type": "function"
        },
        {
            "inputs": [
                {
                    "internalType": "address",
                    "name": "_governance",
                    "type": "address"
                }
            ],
            "name": "setGovernance",
            "outputs": [],
            "stateMutability": "nonpayable",
            "type": "function"
        },
        {
            "inputs": [
                {
                    "internalType": "uint256",
                    "name": "_performanceFee",
                    "type": "uint256"
                }
            ],
            "name": "setPerformanceFee",
            "outputs": [],
            "stateMutability": "nonpayable",
            "type": "function"
        },
        {
            "inputs": [
                {
                    "internalType": "address",
                    "name": "_strategist",
                    "type": "address"
                }
            ],
            "name": "setStrategist",
            "outputs": [],
            "stateMutability": "nonpayable",
            "type": "function"
        },
        {
            "inputs": [
                {
                    "internalType": "uint256",
                    "name": "_withdrawalFee",
                    "type": "uint256"
                }
            ],
            "name": "setWithdrawalFee",
            "outputs": [],
            "stateMutability": "nonpayable",
            "type": "function"
        },
        {
            "inputs": [],
            "name": "strategist",
            "outputs": [
                {
                    "internalType": "address",
                    "name": "",
                    "type": "address"
                }
            ],
            "stateMutability": "view",
            "type": "function"
        },
        {
            "inputs": [],
            "name": "uni",
            "outputs": [
                {
                    "internalType": "address",
                    "name": "",
                    "type": "address"
                }
            ],
            "stateMutability": "view",
            "type": "function"
        },
        {
            "inputs": [],
            "name": "want",
            "outputs": [
                {
                    "internalType": "address",
                    "name": "",
                    "type": "address"
                }
            ],
            "stateMutability": "view",
            "type": "function"
        },
        {
            "inputs": [],
            "name": "weth",
            "outputs": [
                {
                    "internalType": "address",
                    "name": "",
                    "type": "address"
                }
            ],
            "stateMutability": "view",
            "type": "function"
        },
        {
            "inputs": [
                {
                    "internalType": "uint256",
                    "name": "_amount",
                    "type": "uint256"
                }
            ],
            "name": "withdraw",
            "outputs": [],
            "stateMutability": "nonpayable",
            "type": "function"
        },
        {
            "inputs": [
                {
                    "internalType": "contract IERC20",
                    "name": "_asset",
                    "type": "address"
                }
            ],
            "name": "withdraw",
            "outputs": [
                {
                    "internalType": "uint256",
                    "name": "balance",
                    "type": "uint256"
                }
            ],
            "stateMutability": "nonpayable",
            "type": "function"
        },
        {
            "inputs": [],
            "name": "withdrawAll",
            "outputs": [
                {
                    "internalType": "uint256",
                    "name": "balance",
                    "type": "uint256"
                }
            ],
            "stateMutability": "nonpayable",
            "type": "function"
        },
        {
            "inputs": [],
            "name": "withdrawalFee",
            "outputs": [
                {
                    "internalType": "uint256",
                    "name": "",
                    "type": "uint256"
                }
            ],
            "stateMutability": "view",
            "type": "function"
        },
        {
            "inputs": [],
            "name": "withdrawalMax",
            "outputs": [
                {
                    "internalType": "uint256",
                    "name": "",
                    "type": "uint256"
                }
            ],
            "stateMutability": "view",
            "type": "function"
        }
    ],
    "bytecode": "60806040526101f460005560326001908155610e7460025568056bc75e2d631000006003556706f05b59d3b200006004556005805460ff191690911790553480156200004a57600080fd5b5060405162003892380380620038928339810160408190526200006d91620000bd565b60058054610100600160a81b03191633610100810291909117909155600780546001600160a01b03199081169092179055600680549091166001600160a01b0392909216919091179055620000ed565b600060208284031215620000cf578081fd5b81516001600160a01b0381168114620000e6578182fd5b9392505050565b61379580620000fd6000396000f3fe608060405234801561001057600080fd5b50600436106102535760003560e01c8063853828b611610146578063b655d653116100c3578063e0bab4c411610087578063e0bab4c4146102c5578063edc653ba14610418578063edc9af9514610420578063f47e699c14610428578063f69e204614610430578063f77c47911461043857610253565b8063b655d653146103ed578063c1a3d44c146103f5578063c7b9d530146103fd578063d0e30db014610410578063d5c1ff731461035e57610253565b806392eefe9b1161010a57806392eefe9b146103995780639a561fbf146103ac578063a6f84afc146103bf578063ab033ea9146103c7578063ac1e5025146103da57610253565b8063853828b614610366578063853e0a3b1461036e57806387788782146103765780638b4187131461037e5780638bc7e8c41461039157610253565b8063418f35cc116101d45780635aa6e675116101985780635aa6e675146103335780636f6941b91461033b57806370897b2314610343578063722713f7146103565780637cc791131461035e57610253565b8063418f35cc146102f2578063456d8027146103085780634627cb71146103105780634641257d1461031857806351cff8d91461032057610253565b806317d7de7c1161021b57806317d7de7c146102b05780631f1fcd51146102c55780631fe4a686146102cd5780632e1a7d4d146102d55780633fc8cef3146102ea57610253565b80630268ff0b1461025857806302fb0c5e1461027657806304324af81461028b5780630910a51014610293578063109d0af81461029b575b600080fd5b610260610440565b60405161026d91906135d6565b60405180910390f35b61027e610469565b60405161026d91906131f4565b610260610472565b610260610478565b6102a3610509565b60405161026d91906130af565b6102b8610521565b60405161026d919061320f565b6102a3610550565b6102a3610562565b6102e86102e3366004612eee565b610571565b005b6102a361081c565b6102fa610834565b60405161026d9291906135df565b6102606108f5565b6102606108fb565b6102e8610901565b61026061032e366004612d07565b61094f565b6102a3610acb565b6102a3610adf565b6102e8610351366004612eee565b610af1565b610260610b25565b610260610b5e565b610260610b64565b610260610cf9565b610260610f30565b6102e861038c366004612d3f565b610f36565b6102606112b5565b6102e86103a7366004612d07565b6112bb565b6102e86103ba366004612eee565b61130c565b6102e861135c565b6102e86103d5366004612d07565b611660565b6102e86103e8366004612eee565b6116b7565b6102606116eb565b610260611774565b6102e861040b366004612d07565b6117a8565b6102e86117f9565b6102e861195d565b6102a36119ad565b6102e86119c5565b6102a3611a18565b6102a3611a30565b600080600061044d610834565b9092509050610462828263ffffffff611a3f16565b9250505090565b60055460ff1681565b60045481565b604051635ec88c7960e01b8152600090733d9819210a31b4961b30ef54be2aed79b9c9cd3b90635ec88c79906104b29030906004016130af565b60606040518083038186803b1580156104ca57600080fd5b505afa1580156104de573d6000803e3d6000fd5b505050506040513d601f19601f820116820180604052508101906105029190612f1e565b5092915050565b73c00e94cb662c3520282e6f5717214004a7f2688881565b60408051808201909152601581527413195d995c9859d95911185a50dbdb5c14dd1c985d605a1b602082015290565b60008051602061374083398151915281565b6007546001600160a01b031681565b6006546001600160a01b031633146105a45760405162461bcd60e51b815260040161059b906132da565b60405180910390fd5b6040516370a0823160e01b8152600090600080516020613740833981519152906370a08231906105d89030906004016130af565b60206040518083038186803b1580156105f057600080fd5b505afa158015610604573d6000803e3d6000fd5b505050506040513d601f19601f820116820180604052508101906106289190612f06565b90508181101561065f5761064a610645838363ffffffff611a3f16565b611a8a565b915061065c828263ffffffff611ca016565b91505b600061068861271061067c60015486611cc590919063ffffffff16565b9063ffffffff611cff16565b905061072f600660009054906101000a90046001600160a01b03166001600160a01b0316639ec5a8946040518163ffffffff1660e01b815260040160206040518083038186803b1580156106db57600080fd5b505afa1580156106ef573d6000803e3d6000fd5b505050506040513d601f19601f820116820180604052508101906107139190612d23565b600080516020613740833981519152908363ffffffff611d4116565b600654604051632988bb9f60e21b81526000916001600160a01b03169063a622ee7c9061076e90600080516020613740833981519152906004016130af565b60206040518083038186803b15801561078657600080fd5b505afa15801561079a573d6000803e3d6000fd5b505050506040513d601f19601f820116820180604052508101906107be9190612d23565b90506001600160a01b0381166107e65760405162461bcd60e51b815260040161059b90613421565b610816816107fa868563ffffffff611a3f16565b600080516020613740833981519152919063ffffffff611d4116565b50505050565b73c02aaa39b223fe8d0a0e5c4f27ead9083c756cc281565b6040516361bfb47160e11b8152600090819060008051602061372083398151915290829081908190849063c37f68e2906108729030906004016130af565b60806040518083038186803b15801561088a57600080fd5b505afa15801561089e573d6000803e3d6000fd5b505050506040513d601f19601f820116820180604052508101906108c29190612f4b565b935093509350508194506108eb670de0b6b3a764000061067c8386611cc590919063ffffffff16565b9550505050509091565b60025481565b60035481565b6007546001600160a01b0316331480610929575060055461010090046001600160a01b031633145b6109455760405162461bcd60e51b815260040161059b90613511565b61094d6117f9565b565b6006546000906001600160a01b0316331461097c5760405162461bcd60e51b815260040161059b906132da565b6000805160206137408339815191526001600160a01b03831614156109b35760405162461bcd60e51b815260040161059b9061336d565b6000805160206137208339815191526001600160a01b03831614156109ea5760405162461bcd60e51b815260040161059b90613485565b73c00e94cb662c3520282e6f5717214004a7f268886001600160a01b0383161415610a275760405162461bcd60e51b815260040161059b90613403565b6040516370a0823160e01b81526001600160a01b038316906370a0823190610a539030906004016130af565b60206040518083038186803b158015610a6b57600080fd5b505afa158015610a7f573d6000803e3d6000fd5b505050506040513d601f19601f82011682018060405250810190610aa39190612f06565b600654909150610ac6906001600160a01b0384811691168363ffffffff611d4116565b919050565b60055461010090046001600160a01b031681565b60008051602061372083398151915281565b60055461010090046001600160a01b03163314610b205760405162461bcd60e51b815260040161059b906132b5565b600055565b6000806000610b32610834565b9150915061046281610b5284610b46611774565b9063ffffffff611ca016565b9063ffffffff611a3f16565b61271081565b6006546000906001600160a01b03163314610b915760405162461bcd60e51b815260040161059b906132da565b610b99611d97565b6040516370a0823160e01b8152600080516020613740833981519152906370a0823190610bca9030906004016130af565b60206040518083038186803b158015610be257600080fd5b505afa158015610bf6573d6000803e3d6000fd5b505050506040513d601f19601f82011682018060405250810190610c1a9190612f06565b600654604051632988bb9f60e21b81529192506000916001600160a01b039091169063a622ee7c90610c5e90600080516020613740833981519152906004016130af565b60206040518083038186803b158015610c7657600080fd5b505afa158015610c8a573d6000803e3d6000fd5b505050506040513d601f19601f82011682018060405250810190610cae9190612d23565b90506001600160a01b038116610cd65760405162461bcd60e51b815260040161059b90613421565b610cf5600080516020613740833981519152828463ffffffff611d4116565b5090565b6000806000610d06610834565b91509150600060008051602061372083398151915290506000816001600160a01b031663f8f9da286040518163ffffffff1660e01b815260040160206040518083038186803b158015610d5857600080fd5b505afa158015610d6c573d6000803e3d6000fd5b505050506040513d601f19601f82011682018060405250810190610d909190612f06565b90506000826001600160a01b031663ae9d70b06040518163ffffffff1660e01b815260040160206040518083038186803b158015610dcd57600080fd5b505afa158015610de1573d6000803e3d6000fd5b505050506040513d601f19601f82011682018060405250810190610e059190612f06565b90506000610e19838663ffffffff611cc516565b90506000610e2d838863ffffffff611cc516565b9050808211610e40576000199750610f26565b6000610e5e670de0b6b3a764000061067c858563ffffffff611a3f16565b90506000610e7c88610b52606461067c8d604b63ffffffff611cc516565b9050610e8e818363ffffffff611cff16565b9950610f21610f14886001600160a01b0316636c540baf6040518163ffffffff1660e01b815260040160206040518083038186803b158015610ecf57600080fd5b505afa158015610ee3573d6000803e3d6000fd5b505050506040513d601f19601f82011682018060405250810190610f079190612f06565b439063ffffffff611a3f16565b8b9063ffffffff611a3f16565b995050505b5050505050505090565b60005481565b60008082806020019051810190610f4d9190612ebd565b909250905060008051602061374083398151915260008051602061372083398151915283156110d257610f9f6001600160a01b038316600080516020613720833981519152600063ffffffff611fc316565b610fc76001600160a01b0383166000805160206137208339815191528563ffffffff611fc316565b60405163073a938160e11b81526001600160a01b03821690630e75270290610ff39086906004016135d6565b602060405180830381600087803b15801561100d57600080fd5b505af1158015611021573d6000803e3d6000fd5b505050506040513d601f19601f820116820180604052508101906110459190612f06565b50806001600160a01b031663852a12e361105e85612086565b6040518263ffffffff1660e01b815260040161107a91906135d6565b602060405180830381600087803b15801561109457600080fd5b505af11580156110a8573d6000803e3d6000fd5b505050506040513d601f19601f820116820180604052508101906110cc9190612f06565b506112ac565b6040516370a0823160e01b81526000906001600160a01b038416906370a08231906111019030906004016130af565b60206040518083038186803b15801561111957600080fd5b505afa15801561112d573d6000803e3d6000fd5b505050506040513d601f19601f820116820180604052508101906111519190612f06565b905061117c6001600160a01b038416600080516020613720833981519152600063ffffffff611fc316565b6111a46001600160a01b0384166000805160206137208339815191528363ffffffff611fc316565b60405163140e25ad60e31b81526001600160a01b0383169063a0712d68906111d09084906004016135d6565b602060405180830381600087803b1580156111ea57600080fd5b505af11580156111fe573d6000803e3d6000fd5b505050506040513d601f19601f820116820180604052508101906112229190612f06565b50816001600160a01b031663c5ebeaec61123b86612086565b6040518263ffffffff1660e01b815260040161125791906135d6565b602060405180830381600087803b15801561127157600080fd5b505af1158015611285573d6000803e3d6000fd5b505050506040513d601f19601f820116820180604052508101906112a99190612f06565b50505b50505050505050565b60015481565b60055461010090046001600160a01b031633146112ea5760405162461bcd60e51b815260040161059b906132b5565b600680546001600160a01b0319166001600160a01b0392909216919091179055565b6007546001600160a01b031633146113365760405162461bcd60e51b815260040161059b90613259565b610f9681106113575760405162461bcd60e51b815260040161059b906134a3565b600255565b6007546001600160a01b0316331480611384575060055461010090046001600160a01b031633145b6113a05760405162461bcd60e51b815260040161059b9061338b565b604051633af9e66960e01b8152600080516020613720833981519152906000908290633af9e669906113d69030906004016130af565b602060405180830381600087803b1580156113f057600080fd5b505af1158015611404573d6000803e3d6000fd5b505050506040513d601f19601f820116820180604052508101906114289190612f06565b90506000826001600160a01b03166395dd9193306040518263ffffffff1660e01b815260040161145891906130af565b60206040518083038186803b15801561147057600080fd5b505afa158015611484573d6000803e3d6000fd5b505050506040513d601f19601f820116820180604052508101906114a89190612f06565b905060006114c2604b61067c84606463ffffffff611cc516565b905060006114d6848363ffffffff611a3f16565b60405163852a12e360e01b81529091506001600160a01b0386169063852a12e3906115059084906004016135d6565b602060405180830381600087803b15801561151f57600080fd5b505af1158015611533573d6000803e3d6000fd5b505050506040513d601f19601f820116820180604052508101906115579190612f06565b506040516370a0823160e01b81526001600160a01b03861690630e75270290600080516020613740833981519152906370a082319061159a9030906004016130af565b60206040518083038186803b1580156115b257600080fd5b505afa1580156115c6573d6000803e3d6000fd5b505050506040513d601f19601f820116820180604052508101906115ea9190612f06565b6040518263ffffffff1660e01b815260040161160691906135d6565b602060405180830381600087803b15801561162057600080fd5b505af1158015611634573d6000803e3d6000fd5b505050506040513d601f19601f820116820180604052508101906116589190612f06565b505050505050565b60055461010090046001600160a01b0316331461168f5760405162461bcd60e51b815260040161059b906132b5565b600580546001600160a01b0390921661010002610100600160a81b0319909216919091179055565b60055461010090046001600160a01b031633146116e65760405162461bcd60e51b815260040161059b906132b5565b600155565b6040516370a0823160e01b8152600090600080516020613720833981519152906370a082319061171f9030906004016130af565b60206040518083038186803b15801561173757600080fd5b505afa15801561174b573d6000803e3d6000fd5b505050506040513d601f19601f8201168201806040525081019061176f9190612f06565b905090565b6040516370a0823160e01b8152600090600080516020613740833981519152906370a082319061171f9030906004016130af565b60055461010090046001600160a01b031633146117d75760405162461bcd60e51b815260040161059b906132b5565b600780546001600160a01b0319166001600160a01b0392909216919091179055565b6040516370a0823160e01b8152600090600080516020613720833981519152906370a082319061182d9030906004016130af565b60206040518083038186803b15801561184557600080fd5b505afa158015611859573d6000803e3d6000fd5b505050506040513d601f19601f8201168201806040525081019061187d9190612f06565b111561188b5761188b612099565b6005546000908190819060ff1615611935576040516370a0823160e01b8152600080516020613740833981519152906370a08231906118ce9030906004016130af565b60206040518083038186803b1580156118e657600080fd5b505afa1580156118fa573d6000803e3d6000fd5b505050506040513d601f19601f8201168201806040525081019061191e9190612f06565b905061192b8160016123c4565b9093509150611944565b60019150611941610440565b92505b6003548311156119585761081682846124b4565b505050565b60055461010090046001600160a01b031633148061198557506007546001600160a01b031633145b6119a15760405162461bcd60e51b815260040161059b90613222565b6005805460ff19169055565b737a250d5630b4cf539739df2c5dacb4c659f2488d81565b60055461010090046001600160a01b03163314806119ed57506007546001600160a01b031633145b611a095760405162461bcd60e51b815260040161059b90613222565b6005805460ff19166001179055565b733d9819210a31b4961b30ef54be2aed79b9c9cd3b81565b6006546001600160a01b031681565b6000611a8183836040518060400160405280601e81526020017f536166654d6174683a207375627472616374696f6e206f766572666c6f770000815250612748565b90505b92915050565b6000806000611a9a8460006123c4565b6040516370a0823160e01b81529193509150600090600080516020613740833981519152906370a0823190611ad39030906004016130af565b60206040518083038186803b158015611aeb57600080fd5b505afa158015611aff573d6000803e3d6000fd5b505050506040513d601f19601f82011682018060405250810190611b239190612f06565b905060005b8315611b755760068160ff1610611b515760405162461bcd60e51b815260040161059b90613336565b611b6b611b5e84866124b4565b859063ffffffff611a3f16565b9350600101611b28565b60405163852a12e360e01b815260008051602061372083398151915290819063852a12e390611ba8908a906004016135d6565b602060405180830381600087803b158015611bc257600080fd5b505af1158015611bd6573d6000803e3d6000fd5b505050506040513d601f19601f82011682018060405250810190611bfa9190612f06565b506040516370a0823160e01b8152600090600080516020613740833981519152906370a0823190611c2f9030906004016130af565b60206040518083038186803b158015611c4757600080fd5b505afa158015611c5b573d6000803e3d6000fd5b505050506040513d601f19601f82011682018060405250810190611c7f9190612f06565b90506000611c93828663ffffffff611a3f16565b9998505050505050505050565b600082820183811015611a815760405162461bcd60e51b815260040161059b906132ff565b600082611cd457506000611a84565b82820282848281611ce157fe5b0414611a815760405162461bcd60e51b815260040161059b906133c2565b6000611a8183836040518060400160405280601a81526020017f536166654d6174683a206469766973696f6e206279207a65726f000000000000815250612774565b6119588363a9059cbb60e01b8484604051602401611d60929190613139565b60408051601f198184030181529190526020810180516001600160e01b03166001600160e01b0319909316929092179091526127ab565b604051633af9e66960e01b8152600080516020613720833981519152906000908290633af9e66990611dcd9030906004016130af565b602060405180830381600087803b158015611de757600080fd5b505af1158015611dfb573d6000803e3d6000fd5b505050506040513d601f19601f82011682018060405250810190611e1f9190612f06565b90506000826001600160a01b03166317bfdfbc306040518263ffffffff1660e01b8152600401611e4f91906130af565b602060405180830381600087803b158015611e6957600080fd5b505af1158015611e7d573d6000803e3d6000fd5b505050506040513d601f19601f82011682018060405250810190611ea19190612f06565b9050611eb6610645838363ffffffff611a3f16565b506040516370a0823160e01b81526000906001600160a01b038516906370a0823190611ee69030906004016130af565b60206040518083038186803b158015611efe57600080fd5b505afa158015611f12573d6000803e3d6000fd5b505050506040513d601f19601f82011682018060405250810190611f369190612f06565b905080156108165760405163db006a7560e01b81526001600160a01b0385169063db006a7590611f6a9084906004016135d6565b602060405180830381600087803b158015611f8457600080fd5b505af1158015611f98573d6000803e3d6000fd5b505050506040513d601f19601f82011682018060405250810190611fbc9190612f06565b5050505050565b80158061204b5750604051636eb1769f60e11b81526001600160a01b0384169063dd62ed3e90611ff990309086906004016130c3565b60206040518083038186803b15801561201157600080fd5b505afa158015612025573d6000803e3d6000fd5b505050506040513d601f19601f820116820180604052508101906120499190612f06565b155b6120675760405162461bcd60e51b815260040161059b90613580565b6119588363095ea7b360e01b8484604051602401611d60929190613139565b6000611a8482600263ffffffff611ca016565b6120a161283a565b6040516370a0823160e01b815260009073c00e94cb662c3520282e6f5717214004a7f26888906370a08231906120db9030906004016130af565b60206040518083038186803b1580156120f357600080fd5b505afa158015612107573d6000803e3d6000fd5b505050506040513d601f19601f8201168201806040525081019061212b9190612f06565b90506004548111156123c15761217173c00e94cb662c3520282e6f5717214004a7f26888737a250d5630b4cf539739df2c5dacb4c659f2488d600063ffffffff611fc316565b6121aa73c00e94cb662c3520282e6f5717214004a7f26888737a250d5630b4cf539739df2c5dacb4c659f2488d8363ffffffff611fc316565b6040805160038082526080820190925260609160208201838036833701905050905073c00e94cb662c3520282e6f5717214004a7f26888816000815181106121ee57fe5b60200260200101906001600160a01b031690816001600160a01b03168152505073c02aaa39b223fe8d0a0e5c4f27ead9083c756cc28160018151811061223057fe5b60200260200101906001600160a01b031690816001600160a01b0316815250506000805160206137408339815191528160028151811061226c57fe5b6001600160a01b03909216602092830291909101909101526060737a250d5630b4cf539739df2c5dacb4c659f2488d6338ed173984600085306122b74261070863ffffffff611ca016565b6040518663ffffffff1660e01b81526004016122d79594939291906135ed565b600060405180830381600087803b1580156122f157600080fd5b505af1158015612305573d6000803e3d6000fd5b505050506040513d6000823e601f3d908101601f1916820160405261232d9190810190612e0a565b905060008160028151811061233e57fe5b60200260200101519050600081111561081657600061236e61271061067c60005485611cc590919063ffffffff16565b9050611fbc600660009054906101000a90046001600160a01b03166001600160a01b0316639ec5a8946040518163ffffffff1660e01b815260040160206040518083038186803b1580156106db57600080fd5b50565b6000806000806123d2610834565b909250905060006123e9838363ffffffff611a3f16565b90506000861561240a57612403828963ffffffff611ca016565b905061243d565b8782101561242a5760405162461bcd60e51b815260040161059b9061327e565b61243a828963ffffffff611a3f16565b90505b600061246c6103e861067c61245f6103e8600254611a3f90919063ffffffff16565b859063ffffffff611cc516565b905083811015612491576001955061248a848263ffffffff611a3f16565b96506124a8565b600095506124a5818563ffffffff611a3f16565b96505b50505050509250929050565b6000731e0447b19bb6ecfdae1e4ae1694b0c3659614e4e816124e4826000805160206137408339815191526128f6565b6040516370a0823160e01b81529091506000805160206137408339815191529060009082906370a082319061253190731e0447b19bb6ecfdae1e4ae1694b0c3659614e4e906004016130af565b60206040518083038186803b15801561254957600080fd5b505afa15801561255d573d6000803e3d6000fd5b505050506040513d601f19601f820116820180604052508101906125819190612f06565b90508581101561258f578095505b600061259a87612086565b90506125ca6001600160a01b038416731e0447b19bb6ecfdae1e4ae1694b0c3659614e4e8363ffffffff611fc316565b606088886040516020016125df9291906131ff565b60408051808303601f19018152600380845260808401909252925060609190816020015b61260b612c75565b81526020019060019003908161260357905050905061262a868a612a41565b8160008151811061263757fe5b602002602001018190525061264b82612acb565b8160018151811061265857fe5b602002602001018190525061266d8684612b39565b8160028151811061267a57fe5b6020908102919091010152604080516001808252818301909252606091816020015b6126a4612cc7565b81526020019060019003908161269c5790505090506126c1612b74565b816000815181106126ce57fe5b602090810291909101015260405163a67a6a4560e01b81526001600160a01b0389169063a67a6a45906127079084908690600401613152565b600060405180830381600087803b15801561272157600080fd5b505af1158015612735573d6000803e3d6000fd5b509b9d9c50505050505050505050505050565b6000818484111561276c5760405162461bcd60e51b815260040161059b919061320f565b505050900390565b600081836127955760405162461bcd60e51b815260040161059b919061320f565b5060008385816127a157fe5b0495945050505050565b6060612800826040518060400160405280602081526020017f5361666545524332303a206c6f772d6c6576656c2063616c6c206661696c6564815250856001600160a01b0316612b949092919063ffffffff16565b805190915015611958578080602001905181019061281e9190612e9d565b6119585760405162461bcd60e51b815260040161059b90613536565b604080516001808252818301909252606091602080830190803683370190505090506000805160206137208339815191528160008151811061287857fe5b6001600160a01b039092166020928302919091019091015260405162e1ed9760e51b8152733d9819210a31b4961b30ef54be2aed79b9c9cd3b90631c3db2e0906128c890309085906004016130dd565b600060405180830381600087803b1580156128e257600080fd5b505af1158015611fbc573d6000803e3d6000fd5b6000808390506000816001600160a01b031663295c39a56040518163ffffffff1660e01b815260040160206040518083038186803b15801561293757600080fd5b505afa15801561294b573d6000803e3d6000fd5b505050506040513d601f19601f8201168201806040525081019061296f9190612f06565b90506000805b82811015612a285760405163062bd3e960e01b81526001600160a01b0385169063062bd3e9906129a99084906004016135d6565b60206040518083038186803b1580156129c157600080fd5b505afa1580156129d5573d6000803e3d6000fd5b505050506040513d601f19601f820116820180604052508101906129f99190612d23565b9150856001600160a01b0316826001600160a01b03161415612a20579350611a8492505050565b600101612975565b5060405162461bcd60e51b815260040161059b90613441565b612a49612c75565b604080516101008101825260018152600060208083018290528351608081018552828152929384019291908201905b81526020016000815260200185815250815260200184815260200160008152602001306001600160a01b031681526020016000815260200160405180602001604052806000815250815250905092915050565b612ad3612c75565b6040805161010081018252600881526000602080830182905283516080810185528281529293840192919082019081526020016000815260006020918201819052918352820181905260408201819052306060830152608082015260a001929092525090565b612b41612c75565b60408051610100810182526000808252602080830182905283516080810185526001815292938401929190820190612a78565b612b7c612cc7565b50604080518082019091523081526001602082015290565b6060612ba38484600085612bab565b949350505050565b6060612bb685612c6f565b612bd25760405162461bcd60e51b815260040161059b906134da565b60006060866001600160a01b03168587604051612bef9190613093565b60006040518083038185875af1925050503d8060008114612c2c576040519150601f19603f3d011682016040523d82523d6000602084013e612c31565b606091505b50915091508115612c45579150612ba39050565b805115612c555780518082602001fd5b8360405162461bcd60e51b815260040161059b919061320f565b3b151590565b604080516101008101825260008082526020820152908101612c95612cde565b8152602001600081526020016000815260200160006001600160a01b0316815260200160008152602001606081525090565b604080518082019091526000808252602082015290565b604080516080810190915260008082526020820190815260200160008152602001600081525090565b600060208284031215612d18578081fd5b8135611a818161370a565b600060208284031215612d34578081fd5b8151611a818161370a565b60008060008385036080811215612d54578283fd5b8435612d5f8161370a565b93506040601f1982011215612d72578283fd5b50612d7d604061365d565b6020850135612d8b8161370a565b8152604085013560208201529150606084013567ffffffffffffffff811115612db2578182fd5b80850186601f820112612dc3578283fd5b80359150612dd8612dd3836136a4565b61365d565b828152876020848401011115612dec578384fd5b612dfd8360208301602085016136c8565b8093505050509250925092565b60006020808385031215612e1c578182fd5b825167ffffffffffffffff811115612e32578283fd5b80840185601f820112612e43578384fd5b80519150612e53612dd383613684565b8281528381019082850185850284018601891015612e6f578687fd5b8693505b84841015612e91578051835260019390930192918501918501612e73565b50979650505050505050565b600060208284031215612eae578081fd5b81518015158114611a81578182fd5b60008060408385031215612ecf578182fd5b82518015158114612ede578283fd5b6020939093015192949293505050565b600060208284031215612eff578081fd5b5035919050565b600060208284031215612f17578081fd5b5051919050565b600080600060608486031215612f32578283fd5b8351925060208401519150604084015190509250925092565b60008060008060808587031215612f60578081fd5b505082516020840151604085015160609095015191969095509092509050565b6000610160825160098110612f9157fe5b80855250602083015160208501526040830151612fb1604086018261305c565b50606083015160c0850152608083015160e085015260a0830151612fd9610100860182613023565b5060c083015161012085015260e083015181610140860152612ffd82860182613030565b95945050505050565b80516001600160a01b031682526020908101519082015260400190565b6001600160a01b03169052565b600081518084526130488160208601602086016136d4565b601f01601f19169290920160200192915050565b805115158252602081015161307081613700565b6020830152604081015161308381613700565b6040830152606090810151910152565b600082516130a58184602087016136d4565b9190910192915050565b6001600160a01b0391909116815260200190565b6001600160a01b0392831681529116602082015260400190565b6001600160a01b038381168252604060208084018290528451918401829052600092858201929091906060860190855b8181101561312b57855185168352948301949183019160010161310d565b509098975050505050505050565b6001600160a01b03929092168252602082015260400190565b6000604082016040835280855161316981846135d6565b915060209250828701845b8281101561319557613187848351613006565b935090840190600101613174565b505050838103828501528085516131ac81846135d6565b91508192508381028201848801865b838110156131e55785830385526131d3838351612f80565b948701949250908601906001016131bb565b50909998505050505050505050565b901515815260200190565b9115158252602082015260400190565b600060208252611a816020830184613030565b6020808252601c908201527f6e6f7420676f7665726e616e6365206f72207374726174656769737400000000604082015260600190565b6020808252600b908201526a085cdd1c985d1959da5cdd60aa1b604082015260600190565b6020808252601d908201527f7769746864726177696e67206d6f7265207468616e2062616c616e6365000000604082015260600190565b6020808252600b908201526a21676f7665726e616e636560a81b604082015260600190565b6020808252600b908201526a10b1b7b73a3937b63632b960a91b604082015260600190565b6020808252601b908201527f536166654d6174683a206164646974696f6e206f766572666c6f770000000000604082015260600190565b6020808252601f908201527f746f6f206d616e7920697465726174696f6e7320746f20776974686472617700604082015260600190565b6020808252600490820152631dd85b9d60e21b604082015260600190565b6020808252601a908201527f212073747261746567697374206f7220676f7665726e616e6365000000000000604082015260600190565b60208082526021908201527f536166654d6174683a206d756c7469706c69636174696f6e206f766572666c6f6040820152607760f81b606082015260800190565b6020808252600490820152630636f6d760e41b604082015260600190565b602080825260069082015265085d985d5b1d60d21b604082015260600190565b60208082526024908201527f4e6f206d61726b6574496420666f756e6420666f722070726f7669646564207460408201526337b5b2b760e11b606082015260800190565b6020808252600490820152636344414960e01b604082015260600190565b6020808252601f908201527f54617267657420746f6f20636c6f736520746f203478206c6576657261676500604082015260600190565b6020808252601d908201527f416464726573733a2063616c6c20746f206e6f6e2d636f6e7472616374000000604082015260600190565b6020808252600b908201526a08585d5d1a1bdc9a5e995960aa1b604082015260600190565b6020808252602a908201527f5361666545524332303a204552433230206f7065726174696f6e20646964206e6040820152691bdd081cdd58d8d9595960b21b606082015260800190565b60208082526036908201527f5361666545524332303a20617070726f76652066726f6d206e6f6e2d7a65726f60408201527520746f206e6f6e2d7a65726f20616c6c6f77616e636560501b606082015260800190565b90815260200190565b918252602082015260400190565b600060a082018783526020878185015260a0604085015281875180845260c0860191508289019350845b8181101561363c5784516001600160a01b031683529383019391830191600101613617565b50506001600160a01b03969096166060850152505050608001529392505050565b60405181810167ffffffffffffffff8111828210171561367c57600080fd5b604052919050565b600067ffffffffffffffff82111561369a578081fd5b5060209081020190565b600067ffffffffffffffff8211156136ba578081fd5b50601f01601f191660200190565b82818337506000910152565b60005b838110156136ef5781810151838201526020016136d7565b838111156108165750506000910152565b600281106123c157fe5b6001600160a01b03811681146123c157600080fdfe0000000000000000000000005d3a536e4d6dbd6114cc1ead35777bab948e36430000000000000000000000006b175474e89094c44da98b954eedeac495271d0fa26469706673582212207184f76f60a1da1a4c5c2a8253b315194f8aa157ccf4d81e8954d3b844960f8564736f6c63430006090033",
    "sourcePath": "d:/Source/Ethereum/YearnStrategies/YearnCompDaiStrat.sol",
    "compiler": {
        "name": "solc",
        "version": "0.6.9+commit.3e3065ac"
    },
    "functionHashes": {
        "DAI()": "e0bab4c4",
        "active()": "02fb0c5e",
        "balanceC()": "b655d653",
        "balanceOf()": "722713f7",
        "balanceOfWant()": "c1a3d44c",
        "cDAI()": "6f6941b9",
        "callFunction(address,(address,uint256),bytes)": "8b418713",
        "comp()": "109d0af8",
        "compound()": "f69e2046",
        "controller()": "f77c4791",
        "deposit()": "d0e30db0",
        "disableLeverage()": "edc653ba",
        "emergencyDeleverage()": "a6f84afc",
        "enableLeverage()": "f47e699c",
        "getCurrentPosition()": "418f35cc",
        "getLiquidity()": "0910a510",
        "getName()": "17d7de7c",
        "getblocksUntilLiquidation()": "853e0a3b",
        "governance()": "5aa6e675",
        "harvest()": "4641257d",
        "leverageTarget()": "456d8027",
        "minCompToSell()": "04324af8",
        "minDAI()": "4627cb71",
        "netBalanceLent()": "0268ff0b",
        "performanceFee()": "87788782",
        "performanceMax()": "7cc79113",
        "setCollateralTarget(uint256)": "9a561fbf",
        "setController(address)": "92eefe9b",
        "setGovernance(address)": "ab033ea9",
        "setPerformanceFee(uint256)": "70897b23",
        "setStrategist(address)": "c7b9d530",
        "setWithdrawalFee(uint256)": "ac1e5025",
        "strategist()": "1fe4a686",
        "uni()": "edc9af95",
        "want()": "1f1fcd51",
        "weth()": "3fc8cef3",
        "withdraw(address)": "51cff8d9",
        "withdraw(uint256)": "2e1a7d4d",
        "withdrawAll()": "853828b6",
        "withdrawalFee()": "8bc7e8c4",
        "withdrawalMax()": "d5c1ff73"
    },
    "gasEstimates": {
        "creation": {
            "codeDepositCost": "2845800",
            "executionCost": "infinite",
            "totalCost": "infinite"
        },
        "external": {
            "DAI()": "infinite",
            "active()": "1109",
            "balanceC()": "infinite",
            "balanceOf()": "infinite",
            "balanceOfWant()": "infinite",
            "cDAI()": "infinite",
            "callFunction(address,(address,uint256),bytes)": "infinite",
            "comp()": "387",
            "compound()": "384",
            "controller()": "1224",
            "deposit()": "infinite",
            "disableLeverage()": "22724",
            "emergencyDeleverage()": "infinite",
            "enableLeverage()": "22774",
            "getCurrentPosition()": "infinite",
            "getLiquidity()": "infinite",
            "getName()": "infinite",
            "getblocksUntilLiquidation()": "infinite",
            "governance()": "1126",
            "harvest()": "infinite",
            "leverageTarget()": "1096",
            "minCompToSell()": "1119",
            "minDAI()": "1118",
            "netBalanceLent()": "infinite",
            "performanceFee()": "1118",
            "performanceMax()": "361",
            "setCollateralTarget(uint256)": "21154",
            "setController(address)": "22065",
            "setGovernance(address)": "22142",
            "setPerformanceFee(uint256)": "21164",
            "setStrategist(address)": "22109",
            "setWithdrawalFee(uint256)": "21208",
            "strategist()": "1160",
            "uni()": "340",
            "want()": "infinite",
            "weth()": "386",
            "withdraw(address)": "infinite",
            "withdraw(uint256)": "infinite",
            "withdrawAll()": "infinite",
            "withdrawalFee()": "1162",
            "withdrawalMax()": "361"
        },
        "internal": {
            "_calculateDesiredPosition(uint256,bool)": "infinite",
            "_claimComp()": "infinite",
            "_harvest()": "infinite",
            "_withdrawAll()": "infinite",
            "_withdrawSome(uint256)": "infinite",
            "doFlashLoan(bool,uint256)": "infinite"
        }
    }
}