{
    "contractName": "YearnCompDaiStrategy",
    "abi": [
        {
            "inputs": [
                {
                    "internalType": "address",
                    "name": "_controller",
                    "type": "address"
                }
            ],
            "stateMutability": "nonpayable",
            "type": "constructor"
        },
        {
            "inputs": [],
            "name": "DAI",
            "outputs": [
                {
                    "internalType": "address",
                    "name": "",
                    "type": "address"
                }
            ],
            "stateMutability": "view",
            "type": "function"
        },
        {
            "inputs": [],
            "name": "active",
            "outputs": [
                {
                    "internalType": "bool",
                    "name": "",
                    "type": "bool"
                }
            ],
            "stateMutability": "view",
            "type": "function"
        },
        {
            "inputs": [],
            "name": "balanceC",
            "outputs": [
                {
                    "internalType": "uint256",
                    "name": "",
                    "type": "uint256"
                }
            ],
            "stateMutability": "view",
            "type": "function"
        },
        {
            "inputs": [],
            "name": "balanceCInToken",
            "outputs": [
                {
                    "internalType": "uint256",
                    "name": "",
                    "type": "uint256"
                }
            ],
            "stateMutability": "view",
            "type": "function"
        },
        {
            "inputs": [],
            "name": "balanceOf",
            "outputs": [
                {
                    "internalType": "uint256",
                    "name": "",
                    "type": "uint256"
                }
            ],
            "stateMutability": "view",
            "type": "function"
        },
        {
            "inputs": [],
            "name": "balanceOfWant",
            "outputs": [
                {
                    "internalType": "uint256",
                    "name": "",
                    "type": "uint256"
                }
            ],
            "stateMutability": "view",
            "type": "function"
        },
        {
            "inputs": [],
            "name": "cDAI",
            "outputs": [
                {
                    "internalType": "address",
                    "name": "",
                    "type": "address"
                }
            ],
            "stateMutability": "view",
            "type": "function"
        },
        {
            "inputs": [
                {
                    "internalType": "address",
                    "name": "sender",
                    "type": "address"
                },
                {
                    "components": [
                        {
                            "internalType": "address",
                            "name": "owner",
                            "type": "address"
                        },
                        {
                            "internalType": "uint256",
                            "name": "number",
                            "type": "uint256"
                        }
                    ],
                    "internalType": "struct Account.Info",
                    "name": "account",
                    "type": "tuple"
                },
                {
                    "internalType": "bytes",
                    "name": "data",
                    "type": "bytes"
                }
            ],
            "name": "callFunction",
            "outputs": [],
            "stateMutability": "nonpayable",
            "type": "function"
        },
        {
            "inputs": [],
            "name": "comp",
            "outputs": [
                {
                    "internalType": "address",
                    "name": "",
                    "type": "address"
                }
            ],
            "stateMutability": "view",
            "type": "function"
        },
        {
            "inputs": [],
            "name": "compound",
            "outputs": [
                {
                    "internalType": "contract ComptrollerI",
                    "name": "",
                    "type": "address"
                }
            ],
            "stateMutability": "view",
            "type": "function"
        },
        {
            "inputs": [],
            "name": "controller",
            "outputs": [
                {
                    "internalType": "address",
                    "name": "",
                    "type": "address"
                }
            ],
            "stateMutability": "view",
            "type": "function"
        },
        {
            "inputs": [],
            "name": "deposit",
            "outputs": [],
            "stateMutability": "nonpayable",
            "type": "function"
        },
        {
            "inputs": [],
            "name": "emergencyDeleverage",
            "outputs": [],
            "stateMutability": "nonpayable",
            "type": "function"
        },
        {
            "inputs": [],
            "name": "getCurrentPosition",
            "outputs": [
                {
                    "internalType": "uint256",
                    "name": "deposits",
                    "type": "uint256"
                },
                {
                    "internalType": "uint256",
                    "name": "borrows",
                    "type": "uint256"
                }
            ],
            "stateMutability": "view",
            "type": "function"
        },
        {
            "inputs": [],
            "name": "getLiquidity",
            "outputs": [
                {
                    "internalType": "uint256",
                    "name": "liquidity",
                    "type": "uint256"
                }
            ],
            "stateMutability": "view",
            "type": "function"
        },
        {
            "inputs": [],
            "name": "getName",
            "outputs": [
                {
                    "internalType": "string",
                    "name": "",
                    "type": "string"
                }
            ],
            "stateMutability": "pure",
            "type": "function"
        },
        {
            "inputs": [],
            "name": "getblocksUntilLiquidation",
            "outputs": [
                {
                    "internalType": "uint256",
                    "name": "blocks",
                    "type": "uint256"
                }
            ],
            "stateMutability": "view",
            "type": "function"
        },
        {
            "inputs": [],
            "name": "governance",
            "outputs": [
                {
                    "internalType": "address",
                    "name": "",
                    "type": "address"
                }
            ],
            "stateMutability": "view",
            "type": "function"
        },
        {
            "inputs": [],
            "name": "harvest",
            "outputs": [],
            "stateMutability": "nonpayable",
            "type": "function"
        },
        {
            "inputs": [],
            "name": "leverageTarget",
            "outputs": [
                {
                    "internalType": "uint256",
                    "name": "",
                    "type": "uint256"
                }
            ],
            "stateMutability": "view",
            "type": "function"
        },
        {
            "inputs": [],
            "name": "minCompToSell",
            "outputs": [
                {
                    "internalType": "uint256",
                    "name": "",
                    "type": "uint256"
                }
            ],
            "stateMutability": "view",
            "type": "function"
        },
        {
            "inputs": [],
            "name": "minDAI",
            "outputs": [
                {
                    "internalType": "uint256",
                    "name": "",
                    "type": "uint256"
                }
            ],
            "stateMutability": "view",
            "type": "function"
        },
        {
            "inputs": [],
            "name": "performanceFee",
            "outputs": [
                {
                    "internalType": "uint256",
                    "name": "",
                    "type": "uint256"
                }
            ],
            "stateMutability": "view",
            "type": "function"
        },
        {
            "inputs": [],
            "name": "performanceMax",
            "outputs": [
                {
                    "internalType": "uint256",
                    "name": "",
                    "type": "uint256"
                }
            ],
            "stateMutability": "view",
            "type": "function"
        },
        {
            "inputs": [
                {
                    "internalType": "uint256",
                    "name": "target",
                    "type": "uint256"
                }
            ],
            "name": "setCollateralTarget",
            "outputs": [],
            "stateMutability": "nonpayable",
            "type": "function"
        },
        {
            "inputs": [
                {
                    "internalType": "address",
                    "name": "_controller",
                    "type": "address"
                }
            ],
            "name": "setController",
            "outputs": [],
            "stateMutability": "nonpayable",
            "type": "function"
        },
        {
            "inputs": [
                {
                    "internalType": "address",
                    "name": "_governance",
                    "type": "address"
                }
            ],
            "name": "setGovernance",
            "outputs": [],
            "stateMutability": "nonpayable",
            "type": "function"
        },
        {
            "inputs": [
                {
                    "internalType": "uint256",
                    "name": "_performanceFee",
                    "type": "uint256"
                }
            ],
            "name": "setPerformanceFee",
            "outputs": [],
            "stateMutability": "nonpayable",
            "type": "function"
        },
        {
            "inputs": [
                {
                    "internalType": "address",
                    "name": "_strategist",
                    "type": "address"
                }
            ],
            "name": "setStrategist",
            "outputs": [],
            "stateMutability": "nonpayable",
            "type": "function"
        },
        {
            "inputs": [
                {
                    "internalType": "uint256",
                    "name": "_withdrawalFee",
                    "type": "uint256"
                }
            ],
            "name": "setWithdrawalFee",
            "outputs": [],
            "stateMutability": "nonpayable",
            "type": "function"
        },
        {
            "inputs": [],
            "name": "strategist",
            "outputs": [
                {
                    "internalType": "address",
                    "name": "",
                    "type": "address"
                }
            ],
            "stateMutability": "view",
            "type": "function"
        },
        {
            "inputs": [],
            "name": "uni",
            "outputs": [
                {
                    "internalType": "address",
                    "name": "",
                    "type": "address"
                }
            ],
            "stateMutability": "view",
            "type": "function"
        },
        {
            "inputs": [],
            "name": "want",
            "outputs": [
                {
                    "internalType": "address",
                    "name": "",
                    "type": "address"
                }
            ],
            "stateMutability": "view",
            "type": "function"
        },
        {
            "inputs": [],
            "name": "weth",
            "outputs": [
                {
                    "internalType": "address",
                    "name": "",
                    "type": "address"
                }
            ],
            "stateMutability": "view",
            "type": "function"
        },
        {
            "inputs": [
                {
                    "internalType": "uint256",
                    "name": "_amount",
                    "type": "uint256"
                }
            ],
            "name": "withdraw",
            "outputs": [],
            "stateMutability": "nonpayable",
            "type": "function"
        },
        {
            "inputs": [],
            "name": "withdrawAll",
            "outputs": [
                {
                    "internalType": "uint256",
                    "name": "balance",
                    "type": "uint256"
                }
            ],
            "stateMutability": "nonpayable",
            "type": "function"
        },
        {
            "inputs": [],
            "name": "withdrawalFee",
            "outputs": [
                {
                    "internalType": "uint256",
                    "name": "",
                    "type": "uint256"
                }
            ],
            "stateMutability": "view",
            "type": "function"
        },
        {
            "inputs": [],
            "name": "withdrawalMax",
            "outputs": [
                {
                    "internalType": "uint256",
                    "name": "",
                    "type": "uint256"
                }
            ],
            "stateMutability": "view",
            "type": "function"
        }
    ],
    "bytecode": "60806040526101f460005560326001908155610e7460025568056bc75e2d631000006003556706f05b59d3b200006004556005805460ff191690911790553480156200004a57600080fd5b5060405162003321380380620033218339810160408190526200006d91620000bd565b60058054610100600160a81b03191633610100810291909117909155600780546001600160a01b03199081169092179055600680549091166001600160a01b0392909216919091179055620000ed565b600060208284031215620000cf578081fd5b81516001600160a01b0381168114620000e6578182fd5b9392505050565b61322480620000fd6000396000f3fe608060405234801561001057600080fd5b50600436106102325760003560e01c8063853828b611610130578063ac1e5025116100b8578063d5c1ff731161007c578063d5c1ff731461032a578063e0bab4c41461029c578063edc9af95146103e4578063f69e2046146103ec578063f77c4791146103f457610232565b8063ac1e5025146103a6578063b655d653146103b9578063c1a3d44c146103c1578063c7b9d530146103c9578063d0e30db0146103dc57610232565b80638bc7e8c4116100ff5780638bc7e8c41461035d57806392eefe9b146103655780639a561fbf14610378578063a6f84afc1461038b578063ab033ea91461039357610232565b8063853828b614610332578063853e0a3b1461033a57806387788782146103425780638b4187131461034a57610232565b8063418f35cc116101be5780635aa6e675116101825780635aa6e675146102ff5780636f6941b91461030757806370897b231461030f578063722713f7146103225780637cc791131461032a57610232565b8063418f35cc146102c95780634254b506146102df578063456d8027146102e75780634627cb71146102ef5780634641257d146102f757610232565b806317d7de7c1161020557806317d7de7c146102875780631f1fcd511461029c5780631fe4a686146102a45780632e1a7d4d146102ac5780633fc8cef3146102c157610232565b806302fb0c5e1461023757806304324af8146102555780630910a5101461026a578063109d0af814610272575b600080fd5b61023f6103fc565b60405161024c9190612d0c565b60405180910390f35b61025d610405565b60405161024c9190613065565b61025d61040b565b61027a61049c565b60405161024c9190612bc7565b61028f6104b4565b60405161024c9190612d27565b61027a6104e3565b61027a6104f5565b6102bf6102ba366004612a06565b610504565b005b61027a610785565b6102d161079d565b60405161024c92919061306e565b61025d61085e565b61025d610914565b61025d61091a565b6102bf610920565b61027a61096e565b61027a610982565b6102bf61031d366004612a06565b610994565b61025d6109c8565b61025d610a08565b61025d610a0e565b61025d610b78565b61025d610daf565b6102bf610358366004612857565b610db5565b61025d611134565b6102bf61037336600461281f565b61113a565b6102bf610386366004612a06565b61118b565b6102bf6111db565b6102bf6103a136600461281f565b61121f565b6102bf6103b4366004612a06565b611276565b61025d6112aa565b61025d61132e565b6102bf6103d736600461281f565b611362565b6102bf6113b3565b61027a611518565b61027a611530565b61027a611548565b60055460ff1681565b60045481565b604051635ec88c7960e01b8152600090733d9819210a31b4961b30ef54be2aed79b9c9cd3b90635ec88c7990610445903090600401612bc7565b60606040518083038186803b15801561045d57600080fd5b505afa158015610471573d6000803e3d6000fd5b505050506040513d601f19601f820116820180604052508101906104959190612a36565b5092915050565b73c00e94cb662c3520282e6f5717214004a7f2688881565b60408051808201909152601581527413195d995c9859d95911185a50dbdb5c14dd1c985d605a1b602082015290565b6000805160206131cf83398151915281565b6007546001600160a01b031681565b6040516370a0823160e01b81526000906000805160206131cf833981519152906370a0823190610538903090600401612bc7565b60206040518083038186803b15801561055057600080fd5b505afa158015610564573d6000803e3d6000fd5b505050506040513d601f19601f820116820180604052508101906105889190612a1e565b9050818110156105bf576105aa6105a5838363ffffffff61155716565b6115a2565b91506105bc828263ffffffff6117b816565b91505b60006105e86127106105dc600154866117dd90919063ffffffff16565b9063ffffffff61181716565b905061068f600660009054906101000a90046001600160a01b03166001600160a01b0316639ec5a8946040518163ffffffff1660e01b815260040160206040518083038186803b15801561063b57600080fd5b505afa15801561064f573d6000803e3d6000fd5b505050506040513d601f19601f82011682018060405250810190610673919061283b565b6000805160206131cf833981519152908363ffffffff61185916565b600654604051632988bb9f60e21b81526000916001600160a01b03169063a622ee7c906106ce906000805160206131cf83398151915290600401612bc7565b60206040518083038186803b1580156106e657600080fd5b505afa1580156106fa573d6000803e3d6000fd5b505050506040513d601f19601f8201168201806040525081019061071e919061283b565b90506001600160a01b03811661074f5760405162461bcd60e51b815260040161074690612ece565b60405180910390fd5b61077f81610763868563ffffffff61155716565b6000805160206131cf833981519152919063ffffffff61185916565b50505050565b73c02aaa39b223fe8d0a0e5c4f27ead9083c756cc281565b6040516361bfb47160e11b815260009081906000805160206131af83398151915290829081908190849063c37f68e2906107db903090600401612bc7565b60806040518083038186803b1580156107f357600080fd5b505afa158015610807573d6000803e3d6000fd5b505050506040513d601f19601f8201168201806040525081019061082b9190612a63565b93509350935050819450610854670de0b6b3a76400006105dc83866117dd90919063ffffffff16565b9550505050509091565b6000806108696112aa565b9050801561090f5761090c670de0b6b3a76400006105dc6000805160206131af8339815191526001600160a01b031663182df0f56040518163ffffffff1660e01b815260040160206040518083038186803b1580156108c757600080fd5b505afa1580156108db573d6000803e3d6000fd5b505050506040513d601f19601f820116820180604052508101906108ff9190612a1e565b849063ffffffff6117dd16565b90505b905090565b60025481565b60035481565b6007546001600160a01b0316331480610948575060055461010090046001600160a01b031633145b6109645760405162461bcd60e51b815260040161074690612fa0565b61096c6113b3565b565b60055461010090046001600160a01b031681565b6000805160206131af83398151915281565b60055461010090046001600160a01b031633146109c35760405162461bcd60e51b815260040161074690612d96565b600055565b60008060006109d561079d565b91509150610a01816109f5846109e961132e565b9063ffffffff6117b816565b9063ffffffff61155716565b9250505090565b61271081565b6000610a186118af565b6040516370a0823160e01b81526000805160206131cf833981519152906370a0823190610a49903090600401612bc7565b60206040518083038186803b158015610a6157600080fd5b505afa158015610a75573d6000803e3d6000fd5b505050506040513d601f19601f82011682018060405250810190610a999190612a1e565b600654604051632988bb9f60e21b81529192506000916001600160a01b039091169063a622ee7c90610add906000805160206131cf83398151915290600401612bc7565b60206040518083038186803b158015610af557600080fd5b505afa158015610b09573d6000803e3d6000fd5b505050506040513d601f19601f82011682018060405250810190610b2d919061283b565b90506001600160a01b038116610b555760405162461bcd60e51b815260040161074690612ece565b610b746000805160206131cf833981519152828463ffffffff61185916565b5090565b6000806000610b8561079d565b9150915060006000805160206131af83398151915290506000816001600160a01b031663f8f9da286040518163ffffffff1660e01b815260040160206040518083038186803b158015610bd757600080fd5b505afa158015610beb573d6000803e3d6000fd5b505050506040513d601f19601f82011682018060405250810190610c0f9190612a1e565b90506000826001600160a01b031663ae9d70b06040518163ffffffff1660e01b815260040160206040518083038186803b158015610c4c57600080fd5b505afa158015610c60573d6000803e3d6000fd5b505050506040513d601f19601f82011682018060405250810190610c849190612a1e565b90506000610c98838663ffffffff6117dd16565b90506000610cac838863ffffffff6117dd16565b9050808211610cbf576000199750610da5565b6000610cdd670de0b6b3a76400006105dc858563ffffffff61155716565b90506000610cfb886109f560646105dc8d604b63ffffffff6117dd16565b9050610d0d818363ffffffff61181716565b9950610da0610d93886001600160a01b0316636c540baf6040518163ffffffff1660e01b815260040160206040518083038186803b158015610d4e57600080fd5b505afa158015610d62573d6000803e3d6000fd5b505050506040513d601f19601f82011682018060405250810190610d869190612a1e565b439063ffffffff61155716565b8b9063ffffffff61155716565b995050505b5050505050505090565b60005481565b60008082806020019051810190610dcc91906129d5565b90925090506000805160206131cf8339815191526000805160206131af8339815191528315610f5157610e1e6001600160a01b0383166000805160206131af833981519152600063ffffffff611adb16565b610e466001600160a01b0383166000805160206131af8339815191528563ffffffff611adb16565b60405163073a938160e11b81526001600160a01b03821690630e75270290610e72908690600401613065565b602060405180830381600087803b158015610e8c57600080fd5b505af1158015610ea0573d6000803e3d6000fd5b505050506040513d601f19601f82011682018060405250810190610ec49190612a1e565b50806001600160a01b031663852a12e3610edd85611b9e565b6040518263ffffffff1660e01b8152600401610ef99190613065565b602060405180830381600087803b158015610f1357600080fd5b505af1158015610f27573d6000803e3d6000fd5b505050506040513d601f19601f82011682018060405250810190610f4b9190612a1e565b5061112b565b6040516370a0823160e01b81526000906001600160a01b038416906370a0823190610f80903090600401612bc7565b60206040518083038186803b158015610f9857600080fd5b505afa158015610fac573d6000803e3d6000fd5b505050506040513d601f19601f82011682018060405250810190610fd09190612a1e565b9050610ffb6001600160a01b0384166000805160206131af833981519152600063ffffffff611adb16565b6110236001600160a01b0384166000805160206131af8339815191528363ffffffff611adb16565b60405163140e25ad60e31b81526001600160a01b0383169063a0712d689061104f908490600401613065565b602060405180830381600087803b15801561106957600080fd5b505af115801561107d573d6000803e3d6000fd5b505050506040513d601f19601f820116820180604052508101906110a19190612a1e565b50816001600160a01b031663c5ebeaec6110ba86611b9e565b6040518263ffffffff1660e01b81526004016110d69190613065565b602060405180830381600087803b1580156110f057600080fd5b505af1158015611104573d6000803e3d6000fd5b505050506040513d601f19601f820116820180604052508101906111289190612a1e565b50505b50505050505050565b60015481565b60055461010090046001600160a01b031633146111695760405162461bcd60e51b815260040161074690612d96565b600680546001600160a01b0319166001600160a01b0392909216919091179055565b6007546001600160a01b031633146111b55760405162461bcd60e51b815260040161074690612d3a565b610f9681106111d65760405162461bcd60e51b815260040161074690612f32565b600255565b6007546001600160a01b0316331480611203575060055461010090046001600160a01b031633145b61096c5760405162461bcd60e51b815260040161074690612e56565b60055461010090046001600160a01b0316331461124e5760405162461bcd60e51b815260040161074690612d96565b600580546001600160a01b0390921661010002610100600160a81b0319909216919091179055565b60055461010090046001600160a01b031633146112a55760405162461bcd60e51b815260040161074690612d96565b600155565b6040516370a0823160e01b81526000906000805160206131af833981519152906370a08231906112de903090600401612bc7565b60206040518083038186803b1580156112f657600080fd5b505afa15801561130a573d6000803e3d6000fd5b505050506040513d601f19601f8201168201806040525081019061090f9190612a1e565b6040516370a0823160e01b81526000906000805160206131cf833981519152906370a08231906112de903090600401612bc7565b60055461010090046001600160a01b031633146113915760405162461bcd60e51b815260040161074690612d96565b600780546001600160a01b0319166001600160a01b0392909216919091179055565b60055460ff166113d55760405162461bcd60e51b815260040161074690612e29565b6040516370a0823160e01b81526000906000805160206131af833981519152906370a0823190611409903090600401612bc7565b60206040518083038186803b15801561142157600080fd5b505afa158015611435573d6000803e3d6000fd5b505050506040513d601f19601f820116820180604052508101906114599190612a1e565b111561146757611467611bb1565b6040516370a0823160e01b81526000906000805160206131cf833981519152906370a082319061149b903090600401612bc7565b60206040518083038186803b1580156114b357600080fd5b505afa1580156114c7573d6000803e3d6000fd5b505050506040513d601f19601f820116820180604052508101906114eb9190612a1e565b90506000806114fb836001611edc565b915091506003548211156115135761077f8183611fcc565b505050565b737a250d5630b4cf539739df2c5dacb4c659f2488d81565b733d9819210a31b4961b30ef54be2aed79b9c9cd3b81565b6006546001600160a01b031681565b600061159983836040518060400160405280601e81526020017f536166654d6174683a207375627472616374696f6e206f766572666c6f770000815250612260565b90505b92915050565b60008060006115b2846000611edc565b6040516370a0823160e01b815291935091506000906000805160206131cf833981519152906370a08231906115eb903090600401612bc7565b60206040518083038186803b15801561160357600080fd5b505afa158015611617573d6000803e3d6000fd5b505050506040513d601f19601f8201168201806040525081019061163b9190612a1e565b905060005b831561168d5760068160ff16106116695760405162461bcd60e51b815260040161074690612df2565b6116836116768486611fcc565b859063ffffffff61155716565b9350600101611640565b60405163852a12e360e01b81526000805160206131af83398151915290819063852a12e3906116c0908a90600401613065565b602060405180830381600087803b1580156116da57600080fd5b505af11580156116ee573d6000803e3d6000fd5b505050506040513d601f19601f820116820180604052508101906117129190612a1e565b506040516370a0823160e01b81526000906000805160206131cf833981519152906370a0823190611747903090600401612bc7565b60206040518083038186803b15801561175f57600080fd5b505afa158015611773573d6000803e3d6000fd5b505050506040513d601f19601f820116820180604052508101906117979190612a1e565b905060006117ab828663ffffffff61155716565b9998505050505050505050565b6000828201838110156115995760405162461bcd60e51b815260040161074690612dbb565b6000826117ec5750600061159c565b828202828482816117f957fe5b04146115995760405162461bcd60e51b815260040161074690612e8d565b600061159983836040518060400160405280601a81526020017f536166654d6174683a206469766973696f6e206279207a65726f00000000000081525061228c565b6115138363a9059cbb60e01b8484604051602401611878929190612c51565b60408051601f198184030181529190526020810180516001600160e01b03166001600160e01b0319909316929092179091526122c3565b604051633af9e66960e01b81526000805160206131af833981519152906000908290633af9e669906118e5903090600401612bc7565b602060405180830381600087803b1580156118ff57600080fd5b505af1158015611913573d6000803e3d6000fd5b505050506040513d601f19601f820116820180604052508101906119379190612a1e565b90506000826001600160a01b03166317bfdfbc306040518263ffffffff1660e01b81526004016119679190612bc7565b602060405180830381600087803b15801561198157600080fd5b505af1158015611995573d6000803e3d6000fd5b505050506040513d601f19601f820116820180604052508101906119b99190612a1e565b90506119ce6105a5838363ffffffff61155716565b506040516370a0823160e01b81526000906001600160a01b038516906370a08231906119fe903090600401612bc7565b60206040518083038186803b158015611a1657600080fd5b505afa158015611a2a573d6000803e3d6000fd5b505050506040513d601f19601f82011682018060405250810190611a4e9190612a1e565b9050801561077f5760405163db006a7560e01b81526001600160a01b0385169063db006a7590611a82908490600401613065565b602060405180830381600087803b158015611a9c57600080fd5b505af1158015611ab0573d6000803e3d6000fd5b505050506040513d601f19601f82011682018060405250810190611ad49190612a1e565b5050505050565b801580611b635750604051636eb1769f60e11b81526001600160a01b0384169063dd62ed3e90611b119030908690600401612bdb565b60206040518083038186803b158015611b2957600080fd5b505afa158015611b3d573d6000803e3d6000fd5b505050506040513d601f19601f82011682018060405250810190611b619190612a1e565b155b611b7f5760405162461bcd60e51b81526004016107469061300f565b6115138363095ea7b360e01b8484604051602401611878929190612c51565b600061159c82600263ffffffff6117b816565b611bb9612352565b6040516370a0823160e01b815260009073c00e94cb662c3520282e6f5717214004a7f26888906370a0823190611bf3903090600401612bc7565b60206040518083038186803b158015611c0b57600080fd5b505afa158015611c1f573d6000803e3d6000fd5b505050506040513d601f19601f82011682018060405250810190611c439190612a1e565b9050600454811115611ed957611c8973c00e94cb662c3520282e6f5717214004a7f26888737a250d5630b4cf539739df2c5dacb4c659f2488d600063ffffffff611adb16565b611cc273c00e94cb662c3520282e6f5717214004a7f26888737a250d5630b4cf539739df2c5dacb4c659f2488d8363ffffffff611adb16565b6040805160038082526080820190925260609160208201838036833701905050905073c00e94cb662c3520282e6f5717214004a7f2688881600081518110611d0657fe5b60200260200101906001600160a01b031690816001600160a01b03168152505073c02aaa39b223fe8d0a0e5c4f27ead9083c756cc281600181518110611d4857fe5b60200260200101906001600160a01b031690816001600160a01b0316815250506000805160206131cf83398151915281600281518110611d8457fe5b6001600160a01b03909216602092830291909101909101526060737a250d5630b4cf539739df2c5dacb4c659f2488d6338ed17398460008530611dcf4261070863ffffffff6117b816565b6040518663ffffffff1660e01b8152600401611def95949392919061307c565b600060405180830381600087803b158015611e0957600080fd5b505af1158015611e1d573d6000803e3d6000fd5b505050506040513d6000823e601f3d908101601f19168201604052611e459190810190612922565b9050600081600281518110611e5657fe5b60200260200101519050600081111561077f576000611e866127106105dc600054856117dd90919063ffffffff16565b9050611ad4600660009054906101000a90046001600160a01b03166001600160a01b0316639ec5a8946040518163ffffffff1660e01b815260040160206040518083038186803b15801561063b57600080fd5b50565b600080600080611eea61079d565b90925090506000611f01838363ffffffff61155716565b905060008615611f2257611f1b828963ffffffff6117b816565b9050611f55565b87821015611f425760405162461bcd60e51b815260040161074690612d5f565b611f52828963ffffffff61155716565b90505b6000611f846103e86105dc611f776103e860025461155790919063ffffffff16565b859063ffffffff6117dd16565b905083811015611fa95760019550611fa2848263ffffffff61155716565b9650611fc0565b60009550611fbd818563ffffffff61155716565b96505b50505050509250929050565b6000731e0447b19bb6ecfdae1e4ae1694b0c3659614e4e81611ffc826000805160206131cf83398151915261240e565b6040516370a0823160e01b81529091506000805160206131cf8339815191529060009082906370a082319061204990731e0447b19bb6ecfdae1e4ae1694b0c3659614e4e90600401612bc7565b60206040518083038186803b15801561206157600080fd5b505afa158015612075573d6000803e3d6000fd5b505050506040513d601f19601f820116820180604052508101906120999190612a1e565b9050858110156120a7578095505b60006120b287611b9e565b90506120e26001600160a01b038416731e0447b19bb6ecfdae1e4ae1694b0c3659614e4e8363ffffffff611adb16565b606088886040516020016120f7929190612d17565b60408051808303601f19018152600380845260808401909252925060609190816020015b61212361278d565b81526020019060019003908161211b579050509050612142868a612559565b8160008151811061214f57fe5b6020026020010181905250612163826125e3565b8160018151811061217057fe5b60200260200101819052506121858684612651565b8160028151811061219257fe5b6020908102919091010152604080516001808252818301909252606091816020015b6121bc6127df565b8152602001906001900390816121b45790505090506121d961268c565b816000815181106121e657fe5b602090810291909101015260405163a67a6a4560e01b81526001600160a01b0389169063a67a6a459061221f9084908690600401612c6a565b600060405180830381600087803b15801561223957600080fd5b505af115801561224d573d6000803e3d6000fd5b509b9d9c50505050505050505050505050565b600081848411156122845760405162461bcd60e51b81526004016107469190612d27565b505050900390565b600081836122ad5760405162461bcd60e51b81526004016107469190612d27565b5060008385816122b957fe5b0495945050505050565b6060612318826040518060400160405280602081526020017f5361666545524332303a206c6f772d6c6576656c2063616c6c206661696c6564815250856001600160a01b03166126ac9092919063ffffffff16565b805190915015611513578080602001905181019061233691906129b5565b6115135760405162461bcd60e51b815260040161074690612fc5565b604080516001808252818301909252606091602080830190803683370190505090506000805160206131af8339815191528160008151811061239057fe5b6001600160a01b039092166020928302919091019091015260405162e1ed9760e51b8152733d9819210a31b4961b30ef54be2aed79b9c9cd3b90631c3db2e0906123e09030908590600401612bf5565b600060405180830381600087803b1580156123fa57600080fd5b505af1158015611ad4573d6000803e3d6000fd5b6000808390506000816001600160a01b031663295c39a56040518163ffffffff1660e01b815260040160206040518083038186803b15801561244f57600080fd5b505afa158015612463573d6000803e3d6000fd5b505050506040513d601f19601f820116820180604052508101906124879190612a1e565b90506000805b828110156125405760405163062bd3e960e01b81526001600160a01b0385169063062bd3e9906124c1908490600401613065565b60206040518083038186803b1580156124d957600080fd5b505afa1580156124ed573d6000803e3d6000fd5b505050506040513d601f19601f82011682018060405250810190612511919061283b565b9150856001600160a01b0316826001600160a01b0316141561253857935061159c92505050565b60010161248d565b5060405162461bcd60e51b815260040161074690612eee565b61256161278d565b604080516101008101825260018152600060208083018290528351608081018552828152929384019291908201905b81526020016000815260200185815250815260200184815260200160008152602001306001600160a01b031681526020016000815260200160405180602001604052806000815250815250905092915050565b6125eb61278d565b6040805161010081018252600881526000602080830182905283516080810185528281529293840192919082019081526020016000815260006020918201819052918352820181905260408201819052306060830152608082015260a001929092525090565b61265961278d565b60408051610100810182526000808252602080830182905283516080810185526001815292938401929190820190612590565b6126946127df565b50604080518082019091523081526001602082015290565b60606126bb84846000856126c3565b949350505050565b60606126ce85612787565b6126ea5760405162461bcd60e51b815260040161074690612f69565b60006060866001600160a01b031685876040516127079190612bab565b60006040518083038185875af1925050503d8060008114612744576040519150601f19603f3d011682016040523d82523d6000602084013e612749565b606091505b5091509150811561275d5791506126bb9050565b80511561276d5780518082602001fd5b8360405162461bcd60e51b81526004016107469190612d27565b3b151590565b6040805161010081018252600080825260208201529081016127ad6127f6565b8152602001600081526020016000815260200160006001600160a01b0316815260200160008152602001606081525090565b604080518082019091526000808252602082015290565b604080516080810190915260008082526020820190815260200160008152602001600081525090565b600060208284031215612830578081fd5b813561159981613199565b60006020828403121561284c578081fd5b815161159981613199565b6000806000838503608081121561286c578283fd5b843561287781613199565b93506040601f198201121561288a578283fd5b5061289560406130ec565b60208501356128a381613199565b8152604085013560208201529150606084013567ffffffffffffffff8111156128ca578182fd5b80850186601f8201126128db578283fd5b803591506128f06128eb83613133565b6130ec565b828152876020848401011115612904578384fd5b612915836020830160208501613157565b8093505050509250925092565b60006020808385031215612934578182fd5b825167ffffffffffffffff81111561294a578283fd5b80840185601f82011261295b578384fd5b8051915061296b6128eb83613113565b8281528381019082850185850284018601891015612987578687fd5b8693505b848410156129a957805183526001939093019291850191850161298b565b50979650505050505050565b6000602082840312156129c6578081fd5b81518015158114611599578182fd5b600080604083850312156129e7578182fd5b825180151581146129f6578283fd5b6020939093015192949293505050565b600060208284031215612a17578081fd5b5035919050565b600060208284031215612a2f578081fd5b5051919050565b600080600060608486031215612a4a578283fd5b8351925060208401519150604084015190509250925092565b60008060008060808587031215612a78578081fd5b505082516020840151604085015160609095015191969095509092509050565b6000610160825160098110612aa957fe5b80855250602083015160208501526040830151612ac96040860182612b74565b50606083015160c0850152608083015160e085015260a0830151612af1610100860182612b3b565b5060c083015161012085015260e083015181610140860152612b1582860182612b48565b95945050505050565b80516001600160a01b031682526020908101519082015260400190565b6001600160a01b03169052565b60008151808452612b60816020860160208601613163565b601f01601f19169290920160200192915050565b8051151582526020810151612b888161318f565b60208301526040810151612b9b8161318f565b6040830152606090810151910152565b60008251612bbd818460208701613163565b9190910192915050565b6001600160a01b0391909116815260200190565b6001600160a01b0392831681529116602082015260400190565b6001600160a01b038381168252604060208084018290528451918401829052600092858201929091906060860190855b81811015612c43578551851683529483019491830191600101612c25565b509098975050505050505050565b6001600160a01b03929092168252602082015260400190565b60006040820160408352808551612c818184613065565b915060209250828701845b82811015612cad57612c9f848351612b1e565b935090840190600101612c8c565b50505083810382850152808551612cc48184613065565b91508192508381028201848801865b83811015612cfd578583038552612ceb838351612a98565b94870194925090860190600101612cd3565b50909998505050505050505050565b901515815260200190565b9115158252602082015260400190565b6000602082526115996020830184612b48565b6020808252600b908201526a085cdd1c985d1959da5cdd60aa1b604082015260600190565b6020808252601d908201527f7769746864726177696e67206d6f7265207468616e2062616c616e6365000000604082015260600190565b6020808252600b908201526a21676f7665726e616e636560a81b604082015260600190565b6020808252601b908201527f536166654d6174683a206164646974696f6e206f766572666c6f770000000000604082015260600190565b6020808252601f908201527f746f6f206d616e7920697465726174696f6e7320746f20776974686472617700604082015260600190565b6020808252601390820152725374726174656779204e6f742041637469766560681b604082015260600190565b6020808252601a908201527f212073747261746567697374206f7220676f7665726e616e6365000000000000604082015260600190565b60208082526021908201527f536166654d6174683a206d756c7469706c69636174696f6e206f766572666c6f6040820152607760f81b606082015260800190565b602080825260069082015265085d985d5b1d60d21b604082015260600190565b60208082526024908201527f4e6f206d61726b6574496420666f756e6420666f722070726f7669646564207460408201526337b5b2b760e11b606082015260800190565b6020808252601f908201527f54617267657420746f6f20636c6f736520746f203478206c6576657261676500604082015260600190565b6020808252601d908201527f416464726573733a2063616c6c20746f206e6f6e2d636f6e7472616374000000604082015260600190565b6020808252600b908201526a08585d5d1a1bdc9a5e995960aa1b604082015260600190565b6020808252602a908201527f5361666545524332303a204552433230206f7065726174696f6e20646964206e6040820152691bdd081cdd58d8d9595960b21b606082015260800190565b60208082526036908201527f5361666545524332303a20617070726f76652066726f6d206e6f6e2d7a65726f60408201527520746f206e6f6e2d7a65726f20616c6c6f77616e636560501b606082015260800190565b90815260200190565b918252602082015260400190565b600060a082018783526020878185015260a0604085015281875180845260c0860191508289019350845b818110156130cb5784516001600160a01b0316835293830193918301916001016130a6565b50506001600160a01b03969096166060850152505050608001529392505050565b60405181810167ffffffffffffffff8111828210171561310b57600080fd5b604052919050565b600067ffffffffffffffff821115613129578081fd5b5060209081020190565b600067ffffffffffffffff821115613149578081fd5b50601f01601f191660200190565b82818337506000910152565b60005b8381101561317e578181015183820152602001613166565b8381111561077f5750506000910152565b60028110611ed957fe5b6001600160a01b0381168114611ed957600080fdfe0000000000000000000000005d3a536e4d6dbd6114cc1ead35777bab948e36430000000000000000000000006b175474e89094c44da98b954eedeac495271d0fa264697066735822122049d1353432ac4808855037269bb2b887584a47b12121b64fd80b684b1aea050464736f6c63430006090033",
    "sourcePath": "d:/Source/Ethereum/YearnStrategies/YearnCompDaiStrat.sol",
    "compiler": {
        "name": "solc",
        "version": "0.6.9+commit.3e3065ac"
    },
    "functionHashes": {
        "DAI()": "e0bab4c4",
        "active()": "02fb0c5e",
        "balanceC()": "b655d653",
        "balanceCInToken()": "4254b506",
        "balanceOf()": "722713f7",
        "balanceOfWant()": "c1a3d44c",
        "cDAI()": "6f6941b9",
        "callFunction(address,(address,uint256),bytes)": "8b418713",
        "comp()": "109d0af8",
        "compound()": "f69e2046",
        "controller()": "f77c4791",
        "deposit()": "d0e30db0",
        "emergencyDeleverage()": "a6f84afc",
        "getCurrentPosition()": "418f35cc",
        "getLiquidity()": "0910a510",
        "getName()": "17d7de7c",
        "getblocksUntilLiquidation()": "853e0a3b",
        "governance()": "5aa6e675",
        "harvest()": "4641257d",
        "leverageTarget()": "456d8027",
        "minCompToSell()": "04324af8",
        "minDAI()": "4627cb71",
        "performanceFee()": "87788782",
        "performanceMax()": "7cc79113",
        "setCollateralTarget(uint256)": "9a561fbf",
        "setController(address)": "92eefe9b",
        "setGovernance(address)": "ab033ea9",
        "setPerformanceFee(uint256)": "70897b23",
        "setStrategist(address)": "c7b9d530",
        "setWithdrawalFee(uint256)": "ac1e5025",
        "strategist()": "1fe4a686",
        "uni()": "edc9af95",
        "want()": "1f1fcd51",
        "weth()": "3fc8cef3",
        "withdraw(uint256)": "2e1a7d4d",
        "withdrawAll()": "853828b6",
        "withdrawalFee()": "8bc7e8c4",
        "withdrawalMax()": "d5c1ff73"
    },
    "gasEstimates": {
        "creation": {
            "codeDepositCost": "2567200",
            "executionCost": "infinite",
            "totalCost": "infinite"
        },
        "external": {
            "DAI()": "infinite",
            "active()": "1087",
            "balanceC()": "infinite",
            "balanceCInToken()": "infinite",
            "balanceOf()": "infinite",
            "balanceOfWant()": "infinite",
            "cDAI()": "infinite",
            "callFunction(address,(address,uint256),bytes)": "infinite",
            "comp()": "365",
            "compound()": "362",
            "controller()": "1202",
            "deposit()": "infinite",
            "emergencyDeleverage()": "2079",
            "getCurrentPosition()": "infinite",
            "getLiquidity()": "infinite",
            "getName()": "infinite",
            "getblocksUntilLiquidation()": "infinite",
            "governance()": "1126",
            "harvest()": "infinite",
            "leverageTarget()": "1118",
            "minCompToSell()": "1097",
            "minDAI()": "1140",
            "performanceFee()": "1118",
            "performanceMax()": "361",
            "setCollateralTarget(uint256)": "21176",
            "setController(address)": "22087",
            "setGovernance(address)": "22164",
            "setPerformanceFee(uint256)": "21164",
            "setStrategist(address)": "22131",
            "setWithdrawalFee(uint256)": "21120",
            "strategist()": "1160",
            "uni()": "340",
            "want()": "infinite",
            "weth()": "386",
            "withdraw(uint256)": "infinite",
            "withdrawAll()": "infinite",
            "withdrawalFee()": "1073",
            "withdrawalMax()": "272"
        },
        "internal": {
            "_calculateDesiredPosition(uint256,bool)": "infinite",
            "_claimComp()": "infinite",
            "_harvest()": "infinite",
            "_withdrawAll()": "infinite",
            "_withdrawC(uint256)": "infinite",
            "_withdrawSome(uint256)": "infinite",
            "doFlashLoan(bool,uint256)": "infinite"
        }
    }
}