{
    "contractName": "YearnCompDaiStrategy",
    "abi": [
        {
            "inputs": [
                {
                    "internalType": "address",
                    "name": "_controller",
                    "type": "address"
                }
            ],
            "stateMutability": "nonpayable",
            "type": "constructor"
        },
        {
            "inputs": [],
            "name": "DAI",
            "outputs": [
                {
                    "internalType": "address",
                    "name": "",
                    "type": "address"
                }
            ],
            "stateMutability": "view",
            "type": "function"
        },
        {
            "inputs": [],
            "name": "balanceC",
            "outputs": [
                {
                    "internalType": "uint256",
                    "name": "",
                    "type": "uint256"
                }
            ],
            "stateMutability": "view",
            "type": "function"
        },
        {
            "inputs": [],
            "name": "balanceCInToken",
            "outputs": [
                {
                    "internalType": "uint256",
                    "name": "",
                    "type": "uint256"
                }
            ],
            "stateMutability": "view",
            "type": "function"
        },
        {
            "inputs": [],
            "name": "balanceOf",
            "outputs": [
                {
                    "internalType": "uint256",
                    "name": "",
                    "type": "uint256"
                }
            ],
            "stateMutability": "view",
            "type": "function"
        },
        {
            "inputs": [],
            "name": "balanceOfWant",
            "outputs": [
                {
                    "internalType": "uint256",
                    "name": "",
                    "type": "uint256"
                }
            ],
            "stateMutability": "view",
            "type": "function"
        },
        {
            "inputs": [],
            "name": "cDAI",
            "outputs": [
                {
                    "internalType": "address",
                    "name": "",
                    "type": "address"
                }
            ],
            "stateMutability": "view",
            "type": "function"
        },
        {
            "inputs": [
                {
                    "internalType": "address",
                    "name": "sender",
                    "type": "address"
                },
                {
                    "components": [
                        {
                            "internalType": "address",
                            "name": "owner",
                            "type": "address"
                        },
                        {
                            "internalType": "uint256",
                            "name": "number",
                            "type": "uint256"
                        }
                    ],
                    "internalType": "struct Account.Info",
                    "name": "account",
                    "type": "tuple"
                },
                {
                    "internalType": "bytes",
                    "name": "data",
                    "type": "bytes"
                }
            ],
            "name": "callFunction",
            "outputs": [],
            "stateMutability": "nonpayable",
            "type": "function"
        },
        {
            "inputs": [],
            "name": "comp",
            "outputs": [
                {
                    "internalType": "address",
                    "name": "",
                    "type": "address"
                }
            ],
            "stateMutability": "view",
            "type": "function"
        },
        {
            "inputs": [],
            "name": "compound",
            "outputs": [
                {
                    "internalType": "contract ComptrollerI",
                    "name": "",
                    "type": "address"
                }
            ],
            "stateMutability": "view",
            "type": "function"
        },
        {
            "inputs": [],
            "name": "controller",
            "outputs": [
                {
                    "internalType": "address",
                    "name": "",
                    "type": "address"
                }
            ],
            "stateMutability": "view",
            "type": "function"
        },
        {
            "inputs": [],
            "name": "deposit",
            "outputs": [],
            "stateMutability": "nonpayable",
            "type": "function"
        },
        {
            "inputs": [],
            "name": "getCurrentPosition",
            "outputs": [
                {
                    "internalType": "uint256",
                    "name": "deposits",
                    "type": "uint256"
                },
                {
                    "internalType": "uint256",
                    "name": "borrows",
                    "type": "uint256"
                }
            ],
            "stateMutability": "view",
            "type": "function"
        },
        {
            "inputs": [],
            "name": "getName",
            "outputs": [
                {
                    "internalType": "string",
                    "name": "",
                    "type": "string"
                }
            ],
            "stateMutability": "pure",
            "type": "function"
        },
        {
            "inputs": [],
            "name": "governance",
            "outputs": [
                {
                    "internalType": "address",
                    "name": "",
                    "type": "address"
                }
            ],
            "stateMutability": "view",
            "type": "function"
        },
        {
            "inputs": [],
            "name": "harvest",
            "outputs": [],
            "stateMutability": "nonpayable",
            "type": "function"
        },
        {
            "inputs": [],
            "name": "leverageTarget",
            "outputs": [
                {
                    "internalType": "uint256",
                    "name": "",
                    "type": "uint256"
                }
            ],
            "stateMutability": "view",
            "type": "function"
        },
        {
            "inputs": [],
            "name": "performanceFee",
            "outputs": [
                {
                    "internalType": "uint256",
                    "name": "",
                    "type": "uint256"
                }
            ],
            "stateMutability": "view",
            "type": "function"
        },
        {
            "inputs": [],
            "name": "performanceMax",
            "outputs": [
                {
                    "internalType": "uint256",
                    "name": "",
                    "type": "uint256"
                }
            ],
            "stateMutability": "view",
            "type": "function"
        },
        {
            "inputs": [
                {
                    "internalType": "uint256",
                    "name": "target",
                    "type": "uint256"
                }
            ],
            "name": "setCollateralTarget",
            "outputs": [],
            "stateMutability": "nonpayable",
            "type": "function"
        },
        {
            "inputs": [
                {
                    "internalType": "address",
                    "name": "_controller",
                    "type": "address"
                }
            ],
            "name": "setController",
            "outputs": [],
            "stateMutability": "nonpayable",
            "type": "function"
        },
        {
            "inputs": [
                {
                    "internalType": "address",
                    "name": "_governance",
                    "type": "address"
                }
            ],
            "name": "setGovernance",
            "outputs": [],
            "stateMutability": "nonpayable",
            "type": "function"
        },
        {
            "inputs": [
                {
                    "internalType": "uint256",
                    "name": "_performanceFee",
                    "type": "uint256"
                }
            ],
            "name": "setPerformanceFee",
            "outputs": [],
            "stateMutability": "nonpayable",
            "type": "function"
        },
        {
            "inputs": [
                {
                    "internalType": "address",
                    "name": "_strategist",
                    "type": "address"
                }
            ],
            "name": "setStrategist",
            "outputs": [],
            "stateMutability": "nonpayable",
            "type": "function"
        },
        {
            "inputs": [
                {
                    "internalType": "uint256",
                    "name": "_withdrawalFee",
                    "type": "uint256"
                }
            ],
            "name": "setWithdrawalFee",
            "outputs": [],
            "stateMutability": "nonpayable",
            "type": "function"
        },
        {
            "inputs": [],
            "name": "strategist",
            "outputs": [
                {
                    "internalType": "address",
                    "name": "",
                    "type": "address"
                }
            ],
            "stateMutability": "view",
            "type": "function"
        },
        {
            "inputs": [],
            "name": "uni",
            "outputs": [
                {
                    "internalType": "address",
                    "name": "",
                    "type": "address"
                }
            ],
            "stateMutability": "view",
            "type": "function"
        },
        {
            "inputs": [],
            "name": "want",
            "outputs": [
                {
                    "internalType": "address",
                    "name": "",
                    "type": "address"
                }
            ],
            "stateMutability": "view",
            "type": "function"
        },
        {
            "inputs": [],
            "name": "weth",
            "outputs": [
                {
                    "internalType": "address",
                    "name": "",
                    "type": "address"
                }
            ],
            "stateMutability": "view",
            "type": "function"
        },
        {
            "inputs": [
                {
                    "internalType": "uint256",
                    "name": "_amount",
                    "type": "uint256"
                }
            ],
            "name": "withdraw",
            "outputs": [],
            "stateMutability": "nonpayable",
            "type": "function"
        },
        {
            "inputs": [],
            "name": "withdrawAll",
            "outputs": [
                {
                    "internalType": "uint256",
                    "name": "balance",
                    "type": "uint256"
                }
            ],
            "stateMutability": "nonpayable",
            "type": "function"
        },
        {
            "inputs": [],
            "name": "withdrawalFee",
            "outputs": [
                {
                    "internalType": "uint256",
                    "name": "",
                    "type": "uint256"
                }
            ],
            "stateMutability": "view",
            "type": "function"
        },
        {
            "inputs": [],
            "name": "withdrawalMax",
            "outputs": [
                {
                    "internalType": "uint256",
                    "name": "",
                    "type": "uint256"
                }
            ],
            "stateMutability": "view",
            "type": "function"
        }
    ],
    "bytecode": "60806040526101f46000556032600155610e746002553480156200002257600080fd5b5060405162002c1a38038062002c1a833981016040819052620000459162000086565b60038054336001600160a01b03199182168117909255600580548216909217909155600480549091166001600160a01b0392909216919091179055620000b6565b60006020828403121562000098578081fd5b81516001600160a01b0381168114620000af578182fd5b9392505050565b612b5480620000c66000396000f3fe608060405234801561001057600080fd5b50600436106101f05760003560e01c8063877887821161010f578063c1a3d44c116100a2578063e0bab4c411610071578063e0bab4c414610228578063edc9af9514610365578063f69e20461461036d578063f77c479114610375576101f0565b8063c1a3d44c14610342578063c7b9d5301461034a578063d0e30db01461035d578063d5c1ff73146102bb576101f0565b80639a561fbf116100de5780639a561fbf14610301578063ab033ea914610314578063ac1e502514610327578063b655d6531461033a576101f0565b806387788782146102cb5780638b418713146102d35780638bc7e8c4146102e657806392eefe9b146102ee576101f0565b8063456d80271161018757806370897b231161015657806370897b23146102a0578063722713f7146102b35780637cc79113146102bb578063853828b6146102c3576101f0565b8063456d8027146102805780634641257d146102885780635aa6e675146102905780636f6941b914610298576101f0565b80632e1a7d4d116101c35780632e1a7d4d146102385780633fc8cef31461024d578063418f35cc146102555780634254b5061461026b576101f0565b8063109d0af8146101f557806317d7de7c146102135780631f1fcd51146102285780631fe4a68614610230575b600080fd5b6101fd61037d565b60405161020a9190612549565b60405180910390f35b61021b610395565b60405161020a919061269e565b6101fd6103c4565b6101fd6103d6565b61024b6102463660046123b5565b6103e5565b005b6101fd610691565b61025d6106a9565b60405161020a9291906129be565b610273610770565b60405161020a91906129b5565b61027361082c565b61024b610832565b6101fd61087b565b6101fd61088a565b61024b6102ae3660046123b5565b6108a2565b6102736108d1565b610273610911565b610273610917565b610273610aab565b61024b6102e1366004612206565b610ab1565b610273610e4e565b61024b6102fc3660046121ce565b610e54565b61024b61030f3660046123b5565b610ea0565b61024b6103223660046121ce565b610ef0565b61024b6103353660046123b5565b610f3c565b610273610f6b565b610273610ff5565b61024b6103583660046121ce565b611029565b61024b611075565b6101fd6111bb565b6101fd6111d3565b6101fd6111eb565b73c00e94cb662c3520282e6f5717214004a7f2688881565b60408051808201909152601581527413195d995c9859d95911185a50dbdb5c14dd1c985d605a1b602082015290565b600080516020612aff83398151915281565b6005546001600160a01b031681565b6004546001600160a01b031633146104185760405162461bcd60e51b815260040161040f90612732565b60405180910390fd5b6040516370a0823160e01b8152600090600080516020612aff833981519152906370a082319061044c903090600401612549565b60206040518083038186803b15801561046457600080fd5b505afa158015610478573d6000803e3d6000fd5b505050506040513d601f19601f8201168201806040525081019061049c91906123cd565b9050818110156104d3576104be6104b9838363ffffffff6111fa16565b611245565b91506104d0828263ffffffff61138d16565b91505b60006104fc6127106104f0600154866113b290919063ffffffff16565b9063ffffffff6113ec16565b90506105a3600460009054906101000a90046001600160a01b03166001600160a01b0316639ec5a8946040518163ffffffff1660e01b815260040160206040518083038186803b15801561054f57600080fd5b505afa158015610563573d6000803e3d6000fd5b505050506040513d601f19601f8201168201806040525081019061058791906121ea565b600080516020612aff833981519152908363ffffffff61142e16565b60048054604051632988bb9f60e21b81526000926001600160a01b039092169163a622ee7c916105e391600080516020612aff8339815191529101612549565b60206040518083038186803b1580156105fb57600080fd5b505afa15801561060f573d6000803e3d6000fd5b505050506040513d601f19601f8201168201806040525081019061063391906121ea565b90506001600160a01b03811661065b5760405162461bcd60e51b815260040161040f906127cf565b61068b8161066f868563ffffffff6111fa16565b600080516020612aff833981519152919063ffffffff61142e16565b50505050565b73c02aaa39b223fe8d0a0e5c4f27ead9083c756cc281565b6040516361bfb47160e11b81526000908190735d3a536e4d6dbd6114cc1ead35777bab948e364390829081908190849063c37f68e2906106ed903090600401612549565b60806040518083038186803b15801561070557600080fd5b505afa158015610719573d6000803e3d6000fd5b505050506040513d601f19601f8201168201806040525081019061073d91906123e5565b93509350935050819450610766670de0b6b3a76400006104f083866113b290919063ffffffff16565b9550505050509091565b60008061077b610f6b565b9050801561082757610824670de0b6b3a76400006104f0735d3a536e4d6dbd6114cc1ead35777bab948e36436001600160a01b031663182df0f56040518163ffffffff1660e01b815260040160206040518083038186803b1580156107df57600080fd5b505afa1580156107f3573d6000803e3d6000fd5b505050506040513d601f19601f8201168201806040525081019061081791906123cd565b849063ffffffff6113b216565b90505b905090565b60025481565b6005546001600160a01b031633148061085557506003546001600160a01b031633145b6108715760405162461bcd60e51b815260040161040f906128a1565b610879611075565b565b6003546001600160a01b031681565b735d3a536e4d6dbd6114cc1ead35777bab948e364381565b6003546001600160a01b031633146108cc5760405162461bcd60e51b815260040161040f9061270d565b600055565b60008060006108de6106a9565b9150915061090a816108fe846108f2610ff5565b9063ffffffff61138d16565b9063ffffffff6111fa16565b9250505090565b61271081565b6004546000906001600160a01b031633146109445760405162461bcd60e51b815260040161040f90612732565b61094c611484565b6040516370a0823160e01b8152600080516020612aff833981519152906370a082319061097d903090600401612549565b60206040518083038186803b15801561099557600080fd5b505afa1580156109a9573d6000803e3d6000fd5b505050506040513d601f19601f820116820180604052508101906109cd91906123cd565b60048054604051632988bb9f60e21b81529293506000926001600160a01b039091169163a622ee7c91610a1091600080516020612aff8339815191529101612549565b60206040518083038186803b158015610a2857600080fd5b505afa158015610a3c573d6000803e3d6000fd5b505050506040513d601f19601f82011682018060405250810190610a6091906121ea565b90506001600160a01b038116610a885760405162461bcd60e51b815260040161040f906127cf565b610aa7600080516020612aff833981519152828463ffffffff61142e16565b5090565b60005481565b60008082806020019051810190610ac89190612384565b9092509050600080516020612aff833981519152735d3a536e4d6dbd6114cc1ead35777bab948e36438315610c5f57610b266001600160a01b038316735d3a536e4d6dbd6114cc1ead35777bab948e3643600063ffffffff6114aa16565b610b546001600160a01b038316735d3a536e4d6dbd6114cc1ead35777bab948e36438563ffffffff6114aa16565b60405163073a938160e11b81526001600160a01b03821690630e75270290610b809086906004016129b5565b602060405180830381600087803b158015610b9a57600080fd5b505af1158015610bae573d6000803e3d6000fd5b505050506040513d601f19601f82011682018060405250810190610bd291906123cd565b50806001600160a01b031663852a12e3610beb8561156d565b6040518263ffffffff1660e01b8152600401610c0791906129b5565b602060405180830381600087803b158015610c2157600080fd5b505af1158015610c35573d6000803e3d6000fd5b505050506040513d601f19601f82011682018060405250810190610c5991906123cd565b50610e45565b6040516370a0823160e01b81526000906001600160a01b038416906370a0823190610c8e903090600401612549565b60206040518083038186803b158015610ca657600080fd5b505afa158015610cba573d6000803e3d6000fd5b505050506040513d601f19601f82011682018060405250810190610cde91906123cd565b9050610d0f6001600160a01b038416735d3a536e4d6dbd6114cc1ead35777bab948e3643600063ffffffff6114aa16565b610d3d6001600160a01b038416735d3a536e4d6dbd6114cc1ead35777bab948e36438363ffffffff6114aa16565b60405163140e25ad60e31b81526001600160a01b0383169063a0712d6890610d699084906004016129b5565b602060405180830381600087803b158015610d8357600080fd5b505af1158015610d97573d6000803e3d6000fd5b505050506040513d601f19601f82011682018060405250810190610dbb91906123cd565b50816001600160a01b031663c5ebeaec610dd48661156d565b6040518263ffffffff1660e01b8152600401610df091906129b5565b602060405180830381600087803b158015610e0a57600080fd5b505af1158015610e1e573d6000803e3d6000fd5b505050506040513d601f19601f82011682018060405250810190610e4291906123cd565b50505b50505050505050565b60015481565b6003546001600160a01b03163314610e7e5760405162461bcd60e51b815260040161040f9061270d565b600480546001600160a01b0319166001600160a01b0392909216919091179055565b6005546001600160a01b03163314610eca5760405162461bcd60e51b815260040161040f906126b1565b610f968110610eeb5760405162461bcd60e51b815260040161040f90612833565b600255565b6003546001600160a01b03163314610f1a5760405162461bcd60e51b815260040161040f9061270d565b600380546001600160a01b0319166001600160a01b0392909216919091179055565b6003546001600160a01b03163314610f665760405162461bcd60e51b815260040161040f9061270d565b600155565b6040516370a0823160e01b8152600090735d3a536e4d6dbd6114cc1ead35777bab948e3643906370a0823190610fa5903090600401612549565b60206040518083038186803b158015610fbd57600080fd5b505afa158015610fd1573d6000803e3d6000fd5b505050506040513d601f19601f8201168201806040525081019061082791906123cd565b6040516370a0823160e01b8152600090600080516020612aff833981519152906370a0823190610fa5903090600401612549565b6003546001600160a01b031633146110535760405162461bcd60e51b815260040161040f9061270d565b600580546001600160a01b0319166001600160a01b0392909216919091179055565b6040516370a0823160e01b8152600090735d3a536e4d6dbd6114cc1ead35777bab948e3643906370a08231906110af903090600401612549565b60206040518083038186803b1580156110c757600080fd5b505afa1580156110db573d6000803e3d6000fd5b505050506040513d601f19601f820116820180604052508101906110ff91906123cd565b111561110d5761110d611580565b6040516370a0823160e01b8152600090600080516020612aff833981519152906370a0823190611141903090600401612549565b60206040518083038186803b15801561115957600080fd5b505afa15801561116d573d6000803e3d6000fd5b505050506040513d601f19601f8201168201806040525081019061119191906123cd565b905080156111b8576000806111a78360016118ab565b915091506111b5818361196b565b50505b50565b737a250d5630b4cf539739df2c5dacb4c659f2488d81565b733d9819210a31b4961b30ef54be2aed79b9c9cd3b81565b6004546001600160a01b031681565b600061123c83836040518060400160405280601e81526020017f536166654d6174683a207375627472616374696f6e206f766572666c6f770000815250611c09565b90505b92915050565b60008060006112558460016118ab565b6040516370a0823160e01b81529193509150600090600080516020612aff833981519152906370a082319061128e903090600401612549565b60206040518083038186803b1580156112a657600080fd5b505afa1580156112ba573d6000803e3d6000fd5b505050506040513d601f19601f820116820180604052508101906112de91906123cd565b90506112ea828461196b565b6040516370a0823160e01b8152600090600080516020612aff833981519152906370a082319061131e903090600401612549565b60206040518083038186803b15801561133657600080fd5b505afa15801561134a573d6000803e3d6000fd5b505050506040513d601f19601f8201168201806040525081019061136e91906123cd565b90506000611382828463ffffffff6111fa16565b979650505050505050565b60008282018381101561123c5760405162461bcd60e51b815260040161040f90612757565b6000826113c15750600061123f565b828202828482816113ce57fe5b041461123c5760405162461bcd60e51b815260040161040f9061278e565b600061123c83836040518060400160405280601a81526020017f536166654d6174683a206469766973696f6e206279207a65726f000000000000815250611c35565b6111b58363a9059cbb60e01b848460405160240161144d9291906125d3565b60408051601f198184030181529190526020810180516001600160e01b03166001600160e01b031990931692909217909152611c6c565b600061148e610f6b565b905080156111b8576114a66104b960016108fe610770565b5050565b8015806115325750604051636eb1769f60e11b81526001600160a01b0384169063dd62ed3e906114e0903090869060040161255d565b60206040518083038186803b1580156114f857600080fd5b505afa15801561150c573d6000803e3d6000fd5b505050506040513d601f19601f8201168201806040525081019061153091906123cd565b155b61154e5760405162461bcd60e51b815260040161040f9061295f565b6111b58363095ea7b360e01b848460405160240161144d9291906125d3565b600061123f82600263ffffffff61138d16565b611588611cfb565b6040516370a0823160e01b815260009073c00e94cb662c3520282e6f5717214004a7f26888906370a08231906115c2903090600401612549565b60206040518083038186803b1580156115da57600080fd5b505afa1580156115ee573d6000803e3d6000fd5b505050506040513d601f19601f8201168201806040525081019061161291906123cd565b905080156111b85761165473c00e94cb662c3520282e6f5717214004a7f26888737a250d5630b4cf539739df2c5dacb4c659f2488d600063ffffffff6114aa16565b61168d73c00e94cb662c3520282e6f5717214004a7f26888737a250d5630b4cf539739df2c5dacb4c659f2488d8363ffffffff6114aa16565b6040805160038082526080820190925260609160208201838036833701905050905073c00e94cb662c3520282e6f5717214004a7f26888816000815181106116d157fe5b60200260200101906001600160a01b031690816001600160a01b03168152505073c02aaa39b223fe8d0a0e5c4f27ead9083c756cc28160018151811061171357fe5b60200260200101906001600160a01b031690816001600160a01b031681525050600080516020612aff8339815191528160028151811061174f57fe5b6001600160a01b03909216602092830291909101909101526060737a250d5630b4cf539739df2c5dacb4c659f2488d6338ed1739846000853061179a4261070863ffffffff61138d16565b6040518663ffffffff1660e01b81526004016117ba9594939291906129cc565b600060405180830381600087803b1580156117d457600080fd5b505af11580156117e8573d6000803e3d6000fd5b505050506040513d6000823e601f3d908101601f1916820160405261181091908101906122d1565b905060008160028151811061182157fe5b60200260200101519050600081111561068b5760006118516127106104f0600054856113b290919063ffffffff16565b90506118a4600460009054906101000a90046001600160a01b03166001600160a01b0316639ec5a8946040518163ffffffff1660e01b815260040160206040518083038186803b15801561054f57600080fd5b5050505050565b6000806000806118b96106a9565b9092509050600085156118dd576118d6838863ffffffff61138d16565b905061190f565b8683116118fc5760405162461bcd60e51b815260040161040f906126d6565b61190c838863ffffffff6111fa16565b90505b600061193e6103e86104f06119316103e86002546111fa90919063ffffffff16565b859063ffffffff6113b216565b90508281101561195657600194508083039550611960565b6000945082810395505b505050509250929050565b731e0447b19bb6ecfdae1e4ae1694b0c3659614e4e600061199a82600080516020612aff833981519152611dbd565b905060006119a78461156d565b6040516370a0823160e01b8152909150600080516020612aff83398151915290859082906370a08231906119f390731e0447b19bb6ecfdae1e4ae1694b0c3659614e4e90600401612549565b60206040518083038186803b158015611a0b57600080fd5b505afa158015611a1f573d6000803e3d6000fd5b505050506040513d601f19601f82011682018060405250810190611a4391906123cd565b1015611a615760405162461bcd60e51b815260040161040f90612910565b611a8f6001600160a01b038216731e0447b19bb6ecfdae1e4ae1694b0c3659614e4e8463ffffffff6114aa16565b60608686604051602001611aa492919061268e565b60408051808303601f19018152600380845260808401909252925060609190816020015b611ad061213c565b815260200190600190039081611ac8579050509050611aef8588611f08565b81600081518110611afc57fe5b6020026020010181905250611b1082611f92565b81600181518110611b1d57fe5b6020026020010181905250611b328585612000565b81600281518110611b3f57fe5b6020908102919091010152604080516001808252818301909252606091816020015b611b6961218e565b815260200190600190039081611b61579050509050611b8661203b565b81600081518110611b9357fe5b602090810291909101015260405163a67a6a4560e01b81526001600160a01b0388169063a67a6a4590611bcc90849086906004016125ec565b600060405180830381600087803b158015611be657600080fd5b505af1158015611bfa573d6000803e3d6000fd5b50505050505050505050505050565b60008184841115611c2d5760405162461bcd60e51b815260040161040f919061269e565b505050900390565b60008183611c565760405162461bcd60e51b815260040161040f919061269e565b506000838581611c6257fe5b0495945050505050565b6060611cc1826040518060400160405280602081526020017f5361666545524332303a206c6f772d6c6576656c2063616c6c206661696c6564815250856001600160a01b031661205b9092919063ffffffff16565b8051909150156111b55780806020019051810190611cdf9190612364565b6111b55760405162461bcd60e51b815260040161040f906128c6565b60408051600180825281830190925260609160208083019080368337019050509050735d3a536e4d6dbd6114cc1ead35777bab948e364381600081518110611d3f57fe5b6001600160a01b039092166020928302919091019091015260405162e1ed9760e51b8152733d9819210a31b4961b30ef54be2aed79b9c9cd3b90631c3db2e090611d8f9030908590600401612577565b600060405180830381600087803b158015611da957600080fd5b505af11580156118a4573d6000803e3d6000fd5b6000808390506000816001600160a01b031663295c39a56040518163ffffffff1660e01b815260040160206040518083038186803b158015611dfe57600080fd5b505afa158015611e12573d6000803e3d6000fd5b505050506040513d601f19601f82011682018060405250810190611e3691906123cd565b90506000805b82811015611eef5760405163062bd3e960e01b81526001600160a01b0385169063062bd3e990611e709084906004016129b5565b60206040518083038186803b158015611e8857600080fd5b505afa158015611e9c573d6000803e3d6000fd5b505050506040513d601f19601f82011682018060405250810190611ec091906121ea565b9150856001600160a01b0316826001600160a01b03161415611ee757935061123f92505050565b600101611e3c565b5060405162461bcd60e51b815260040161040f906127ef565b611f1061213c565b604080516101008101825260018152600060208083018290528351608081018552828152929384019291908201905b81526020016000815260200185815250815260200184815260200160008152602001306001600160a01b031681526020016000815260200160405180602001604052806000815250815250905092915050565b611f9a61213c565b6040805161010081018252600881526000602080830182905283516080810185528281529293840192919082019081526020016000815260006020918201819052918352820181905260408201819052306060830152608082015260a001929092525090565b61200861213c565b60408051610100810182526000808252602080830182905283516080810185526001815292938401929190820190611f3f565b61204361218e565b50604080518082019091523081526001602082015290565b606061206a8484600085612072565b949350505050565b606061207d85612136565b6120995760405162461bcd60e51b815260040161040f9061286a565b60006060866001600160a01b031685876040516120b6919061252d565b60006040518083038185875af1925050503d80600081146120f3576040519150601f19603f3d011682016040523d82523d6000602084013e6120f8565b606091505b5091509150811561210c57915061206a9050565b80511561211c5780518082602001fd5b8360405162461bcd60e51b815260040161040f919061269e565b3b151590565b60408051610100810182526000808252602082015290810161215c6121a5565b8152602001600081526020016000815260200160006001600160a01b0316815260200160008152602001606081525090565b604080518082019091526000808252602082015290565b604080516080810190915260008082526020820190815260200160008152602001600081525090565b6000602082840312156121df578081fd5b813561123c81612ae9565b6000602082840312156121fb578081fd5b815161123c81612ae9565b6000806000838503608081121561221b578283fd5b843561222681612ae9565b93506040601f1982011215612239578283fd5b506122446040612a3c565b602085013561225281612ae9565b8152604085013560208201529150606084013567ffffffffffffffff811115612279578182fd5b80850186601f82011261228a578283fd5b8035915061229f61229a83612a83565b612a3c565b8281528760208484010111156122b3578384fd5b6122c4836020830160208501612aa7565b8093505050509250925092565b600060208083850312156122e3578182fd5b825167ffffffffffffffff8111156122f9578283fd5b80840185601f82011261230a578384fd5b8051915061231a61229a83612a63565b8281528381019082850185850284018601891015612336578687fd5b8693505b8484101561235857805183526001939093019291850191850161233a565b50979650505050505050565b600060208284031215612375578081fd5b8151801515811461123c578182fd5b60008060408385031215612396578182fd5b825180151581146123a5578283fd5b6020939093015192949293505050565b6000602082840312156123c6578081fd5b5035919050565b6000602082840312156123de578081fd5b5051919050565b600080600080608085870312156123fa578081fd5b505082516020840151604085015160609095015191969095509092509050565b600061016082516009811061242b57fe5b8085525060208301516020850152604083015161244b60408601826124f6565b50606083015160c0850152608083015160e085015260a08301516124736101008601826124bd565b5060c083015161012085015260e083015181610140860152612497828601826124ca565b95945050505050565b80516001600160a01b031682526020908101519082015260400190565b6001600160a01b03169052565b600081518084526124e2816020860160208601612ab3565b601f01601f19169290920160200192915050565b805115158252602081015161250a81612adf565b6020830152604081015161251d81612adf565b6040830152606090810151910152565b6000825161253f818460208701612ab3565b9190910192915050565b6001600160a01b0391909116815260200190565b6001600160a01b0392831681529116602082015260400190565b6001600160a01b038381168252604060208084018290528451918401829052600092858201929091906060860190855b818110156125c55785518516835294830194918301916001016125a7565b509098975050505050505050565b6001600160a01b03929092168252602082015260400190565b6000604082016040835280855161260381846129b5565b915060209250828701845b8281101561262f576126218483516124a0565b93509084019060010161260e565b5050508381038285015280855161264681846129b5565b91508192508381028201848801865b8381101561267f57858303855261266d83835161241a565b94870194925090860190600101612655565b50909998505050505050505050565b9115158252602082015260400190565b60006020825261123c60208301846124ca565b6020808252600b908201526a085cdd1c985d1959da5cdd60aa1b604082015260600190565b6020808252601d908201527f7769746864726177696e67206d6f7265207468616e2062616c616e6365000000604082015260600190565b6020808252600b908201526a21676f7665726e616e636560a81b604082015260600190565b6020808252600b908201526a10b1b7b73a3937b63632b960a91b604082015260600190565b6020808252601b908201527f536166654d6174683a206164646974696f6e206f766572666c6f770000000000604082015260600190565b60208082526021908201527f536166654d6174683a206d756c7469706c69636174696f6e206f766572666c6f6040820152607760f81b606082015260800190565b602080825260069082015265085d985d5b1d60d21b604082015260600190565b60208082526024908201527f4e6f206d61726b6574496420666f756e6420666f722070726f7669646564207460408201526337b5b2b760e11b606082015260800190565b6020808252601f908201527f54617267657420746f6f20636c6f736520746f203478206c6576657261676500604082015260600190565b6020808252601d908201527f416464726573733a2063616c6c20746f206e6f6e2d636f6e7472616374000000604082015260600190565b6020808252600b908201526a08585d5d1a1bdc9a5e995960aa1b604082015260600190565b6020808252602a908201527f5361666545524332303a204552433230206f7065726174696f6e20646964206e6040820152691bdd081cdd58d8d9595960b21b606082015260800190565b6020808252602f908201527f4e6f7420656e6f7567682064616920696e20447944782e20547279207769746860408201526e081cdb585b1b195c88185b5bdd5b9d608a1b606082015260800190565b60208082526036908201527f5361666545524332303a20617070726f76652066726f6d206e6f6e2d7a65726f60408201527520746f206e6f6e2d7a65726f20616c6c6f77616e636560501b606082015260800190565b90815260200190565b918252602082015260400190565b600060a082018783526020878185015260a0604085015281875180845260c0860191508289019350845b81811015612a1b5784516001600160a01b0316835293830193918301916001016129f6565b50506001600160a01b03969096166060850152505050608001529392505050565b60405181810167ffffffffffffffff81118282101715612a5b57600080fd5b604052919050565b600067ffffffffffffffff821115612a79578081fd5b5060209081020190565b600067ffffffffffffffff821115612a99578081fd5b50601f01601f191660200190565b82818337506000910152565b60005b83811015612ace578181015183820152602001612ab6565b8381111561068b5750506000910152565b600281106111b857fe5b6001600160a01b03811681146111b857600080fdfe0000000000000000000000006b175474e89094c44da98b954eedeac495271d0fa26469706673582212207a1a66e6a214210cbd09bfca0de5f9d82c146ae38046f3d94af8c42b2e13375e64736f6c63430006090033",
    "sourcePath": "d:/Source/Ethereum/YearnStrategies/YearnCompDaiStrat.sol",
    "compiler": {
        "name": "solc",
        "version": "0.6.9+commit.3e3065ac"
    },
    "functionHashes": {
        "DAI()": "e0bab4c4",
        "balanceC()": "b655d653",
        "balanceCInToken()": "4254b506",
        "balanceOf()": "722713f7",
        "balanceOfWant()": "c1a3d44c",
        "cDAI()": "6f6941b9",
        "callFunction(address,(address,uint256),bytes)": "8b418713",
        "comp()": "109d0af8",
        "compound()": "f69e2046",
        "controller()": "f77c4791",
        "deposit()": "d0e30db0",
        "getCurrentPosition()": "418f35cc",
        "getName()": "17d7de7c",
        "governance()": "5aa6e675",
        "harvest()": "4641257d",
        "leverageTarget()": "456d8027",
        "performanceFee()": "87788782",
        "performanceMax()": "7cc79113",
        "setCollateralTarget(uint256)": "9a561fbf",
        "setController(address)": "92eefe9b",
        "setGovernance(address)": "ab033ea9",
        "setPerformanceFee(uint256)": "70897b23",
        "setStrategist(address)": "c7b9d530",
        "setWithdrawalFee(uint256)": "ac1e5025",
        "strategist()": "1fe4a686",
        "uni()": "edc9af95",
        "want()": "1f1fcd51",
        "weth()": "3fc8cef3",
        "withdraw(uint256)": "2e1a7d4d",
        "withdrawAll()": "853828b6",
        "withdrawalFee()": "8bc7e8c4",
        "withdrawalMax()": "d5c1ff73"
    },
    "gasEstimates": {
        "creation": {
            "codeDepositCost": "2218400",
            "executionCost": "infinite",
            "totalCost": "infinite"
        },
        "external": {
            "DAI()": "infinite",
            "balanceC()": "infinite",
            "balanceCInToken()": "infinite",
            "balanceOf()": "infinite",
            "balanceOfWant()": "infinite",
            "cDAI()": "364",
            "callFunction(address,(address,uint256),bytes)": "infinite",
            "comp()": "299",
            "compound()": "340",
            "controller()": "1180",
            "deposit()": "infinite",
            "getCurrentPosition()": "infinite",
            "getName()": "infinite",
            "governance()": "1160",
            "harvest()": "infinite",
            "leverageTarget()": "1074",
            "performanceFee()": "1074",
            "performanceMax()": "317",
            "setCollateralTarget(uint256)": "21132",
            "setController(address)": "22121",
            "setGovernance(address)": "22076",
            "setPerformanceFee(uint256)": "21109",
            "setStrategist(address)": "22076",
            "setWithdrawalFee(uint256)": "21153",
            "strategist()": "1183",
            "uni()": "318",
            "want()": "infinite",
            "weth()": "320",
            "withdraw(uint256)": "infinite",
            "withdrawAll()": "infinite",
            "withdrawalFee()": "1118",
            "withdrawalMax()": "339"
        },
        "internal": {
            "_calculateDesiredPosition(uint256,bool)": "infinite",
            "_claimComp()": "infinite",
            "_harvest()": "infinite",
            "_withdrawAll()": "infinite",
            "_withdrawC(uint256)": "infinite",
            "_withdrawSome(uint256)": "infinite",
            "doFlashLoan(bool,uint256)": "infinite"
        }
    }
}