{
    "contractName": "YearnCompDaiStrategy",
    "abi": [
        {
            "inputs": [
                {
                    "internalType": "address",
                    "name": "_controller",
                    "type": "address"
                }
            ],
            "stateMutability": "nonpayable",
            "type": "constructor"
        },
        {
            "inputs": [],
            "name": "DAI",
            "outputs": [
                {
                    "internalType": "address",
                    "name": "",
                    "type": "address"
                }
            ],
            "stateMutability": "view",
            "type": "function"
        },
        {
            "inputs": [],
            "name": "balanceC",
            "outputs": [
                {
                    "internalType": "uint256",
                    "name": "",
                    "type": "uint256"
                }
            ],
            "stateMutability": "view",
            "type": "function"
        },
        {
            "inputs": [],
            "name": "balanceCInToken",
            "outputs": [
                {
                    "internalType": "uint256",
                    "name": "",
                    "type": "uint256"
                }
            ],
            "stateMutability": "view",
            "type": "function"
        },
        {
            "inputs": [],
            "name": "balanceOf",
            "outputs": [
                {
                    "internalType": "uint256",
                    "name": "",
                    "type": "uint256"
                }
            ],
            "stateMutability": "view",
            "type": "function"
        },
        {
            "inputs": [],
            "name": "balanceOfWant",
            "outputs": [
                {
                    "internalType": "uint256",
                    "name": "",
                    "type": "uint256"
                }
            ],
            "stateMutability": "view",
            "type": "function"
        },
        {
            "inputs": [],
            "name": "cDAI",
            "outputs": [
                {
                    "internalType": "address",
                    "name": "",
                    "type": "address"
                }
            ],
            "stateMutability": "view",
            "type": "function"
        },
        {
            "inputs": [
                {
                    "internalType": "address",
                    "name": "sender",
                    "type": "address"
                },
                {
                    "components": [
                        {
                            "internalType": "address",
                            "name": "owner",
                            "type": "address"
                        },
                        {
                            "internalType": "uint256",
                            "name": "number",
                            "type": "uint256"
                        }
                    ],
                    "internalType": "struct Account.Info",
                    "name": "account",
                    "type": "tuple"
                },
                {
                    "internalType": "bytes",
                    "name": "data",
                    "type": "bytes"
                }
            ],
            "name": "callFunction",
            "outputs": [],
            "stateMutability": "nonpayable",
            "type": "function"
        },
        {
            "inputs": [],
            "name": "comp",
            "outputs": [
                {
                    "internalType": "address",
                    "name": "",
                    "type": "address"
                }
            ],
            "stateMutability": "view",
            "type": "function"
        },
        {
            "inputs": [],
            "name": "compound",
            "outputs": [
                {
                    "internalType": "contract ComptrollerI",
                    "name": "",
                    "type": "address"
                }
            ],
            "stateMutability": "view",
            "type": "function"
        },
        {
            "inputs": [],
            "name": "controller",
            "outputs": [
                {
                    "internalType": "address",
                    "name": "",
                    "type": "address"
                }
            ],
            "stateMutability": "view",
            "type": "function"
        },
        {
            "inputs": [],
            "name": "deposit",
            "outputs": [],
            "stateMutability": "nonpayable",
            "type": "function"
        },
        {
            "inputs": [],
            "name": "getCurrentPosition",
            "outputs": [
                {
                    "internalType": "uint256",
                    "name": "deposits",
                    "type": "uint256"
                },
                {
                    "internalType": "uint256",
                    "name": "borrows",
                    "type": "uint256"
                }
            ],
            "stateMutability": "view",
            "type": "function"
        },
        {
            "inputs": [],
            "name": "getLiquidity",
            "outputs": [
                {
                    "internalType": "uint256",
                    "name": "liquidity",
                    "type": "uint256"
                }
            ],
            "stateMutability": "view",
            "type": "function"
        },
        {
            "inputs": [],
            "name": "getName",
            "outputs": [
                {
                    "internalType": "string",
                    "name": "",
                    "type": "string"
                }
            ],
            "stateMutability": "pure",
            "type": "function"
        },
        {
            "inputs": [],
            "name": "governance",
            "outputs": [
                {
                    "internalType": "address",
                    "name": "",
                    "type": "address"
                }
            ],
            "stateMutability": "view",
            "type": "function"
        },
        {
            "inputs": [],
            "name": "harvest",
            "outputs": [],
            "stateMutability": "nonpayable",
            "type": "function"
        },
        {
            "inputs": [],
            "name": "leverageTarget",
            "outputs": [
                {
                    "internalType": "uint256",
                    "name": "",
                    "type": "uint256"
                }
            ],
            "stateMutability": "view",
            "type": "function"
        },
        {
            "inputs": [],
            "name": "performanceFee",
            "outputs": [
                {
                    "internalType": "uint256",
                    "name": "",
                    "type": "uint256"
                }
            ],
            "stateMutability": "view",
            "type": "function"
        },
        {
            "inputs": [],
            "name": "performanceMax",
            "outputs": [
                {
                    "internalType": "uint256",
                    "name": "",
                    "type": "uint256"
                }
            ],
            "stateMutability": "view",
            "type": "function"
        },
        {
            "inputs": [
                {
                    "internalType": "uint256",
                    "name": "target",
                    "type": "uint256"
                }
            ],
            "name": "setCollateralTarget",
            "outputs": [],
            "stateMutability": "nonpayable",
            "type": "function"
        },
        {
            "inputs": [
                {
                    "internalType": "address",
                    "name": "_controller",
                    "type": "address"
                }
            ],
            "name": "setController",
            "outputs": [],
            "stateMutability": "nonpayable",
            "type": "function"
        },
        {
            "inputs": [
                {
                    "internalType": "address",
                    "name": "_governance",
                    "type": "address"
                }
            ],
            "name": "setGovernance",
            "outputs": [],
            "stateMutability": "nonpayable",
            "type": "function"
        },
        {
            "inputs": [
                {
                    "internalType": "uint256",
                    "name": "_performanceFee",
                    "type": "uint256"
                }
            ],
            "name": "setPerformanceFee",
            "outputs": [],
            "stateMutability": "nonpayable",
            "type": "function"
        },
        {
            "inputs": [
                {
                    "internalType": "address",
                    "name": "_strategist",
                    "type": "address"
                }
            ],
            "name": "setStrategist",
            "outputs": [],
            "stateMutability": "nonpayable",
            "type": "function"
        },
        {
            "inputs": [
                {
                    "internalType": "uint256",
                    "name": "_withdrawalFee",
                    "type": "uint256"
                }
            ],
            "name": "setWithdrawalFee",
            "outputs": [],
            "stateMutability": "nonpayable",
            "type": "function"
        },
        {
            "inputs": [],
            "name": "strategist",
            "outputs": [
                {
                    "internalType": "address",
                    "name": "",
                    "type": "address"
                }
            ],
            "stateMutability": "view",
            "type": "function"
        },
        {
            "inputs": [],
            "name": "uni",
            "outputs": [
                {
                    "internalType": "address",
                    "name": "",
                    "type": "address"
                }
            ],
            "stateMutability": "view",
            "type": "function"
        },
        {
            "inputs": [],
            "name": "want",
            "outputs": [
                {
                    "internalType": "address",
                    "name": "",
                    "type": "address"
                }
            ],
            "stateMutability": "view",
            "type": "function"
        },
        {
            "inputs": [],
            "name": "weth",
            "outputs": [
                {
                    "internalType": "address",
                    "name": "",
                    "type": "address"
                }
            ],
            "stateMutability": "view",
            "type": "function"
        },
        {
            "inputs": [
                {
                    "internalType": "uint256",
                    "name": "_amount",
                    "type": "uint256"
                }
            ],
            "name": "withdraw",
            "outputs": [],
            "stateMutability": "nonpayable",
            "type": "function"
        },
        {
            "inputs": [],
            "name": "withdrawAll",
            "outputs": [
                {
                    "internalType": "uint256",
                    "name": "balance",
                    "type": "uint256"
                }
            ],
            "stateMutability": "nonpayable",
            "type": "function"
        },
        {
            "inputs": [],
            "name": "withdrawalFee",
            "outputs": [
                {
                    "internalType": "uint256",
                    "name": "",
                    "type": "uint256"
                }
            ],
            "stateMutability": "view",
            "type": "function"
        },
        {
            "inputs": [],
            "name": "withdrawalMax",
            "outputs": [
                {
                    "internalType": "uint256",
                    "name": "",
                    "type": "uint256"
                }
            ],
            "stateMutability": "view",
            "type": "function"
        }
    ],
    "bytecode": "60806040526101f46000556032600155610e746002553480156200002257600080fd5b5060405162002ceb38038062002ceb833981016040819052620000459162000086565b60038054336001600160a01b03199182168117909255600580548216909217909155600480549091166001600160a01b0392909216919091179055620000b6565b60006020828403121562000098578081fd5b81516001600160a01b0381168114620000af578182fd5b9392505050565b612c2580620000c66000396000f3fe608060405234801561001057600080fd5b50600436106101fb5760003560e01c8063853828b61161011a578063b655d653116100ad578063d5c1ff731161007c578063d5c1ff73146102ce578063e0bab4c414610248578063edc9af9514610378578063f69e204614610380578063f77c479114610388576101fb565b8063b655d6531461034d578063c1a3d44c14610355578063c7b9d5301461035d578063d0e30db014610370576101fb565b806392eefe9b116100e957806392eefe9b146103015780639a561fbf14610314578063ab033ea914610327578063ac1e50251461033a576101fb565b8063853828b6146102d657806387788782146102de5780638b418713146102e65780638bc7e8c4146102f9576101fb565b80634254b506116101925780636f6941b9116101615780636f6941b9146102ab57806370897b23146102b3578063722713f7146102c65780637cc79113146102ce576101fb565b80634254b5061461028b578063456d8027146102935780634641257d1461029b5780635aa6e675146102a3576101fb565b80631fe4a686116101ce5780631fe4a686146102505780632e1a7d4d146102585780633fc8cef31461026d578063418f35cc14610275576101fb565b80630910a51014610200578063109d0af81461021e57806317d7de7c146102335780631f1fcd5114610248575b600080fd5b610208610390565b6040516102159190612a86565b60405180910390f35b610226610421565b604051610215919061261a565b61023b610439565b604051610215919061276f565b610226610468565b61022661047a565b61026b610266366004612459565b610489565b005b610226610735565b61027d61074d565b604051610215929190612a8f565b610208610814565b6102086108d0565b61026b6108d6565b61022661091f565b61022661092e565b61026b6102c1366004612459565b610946565b610208610975565b6102086109b5565b6102086109bb565b610208610b4f565b61026b6102f43660046122aa565b610b55565b610208610ef2565b61026b61030f366004612272565b610ef8565b61026b610322366004612459565b610f44565b61026b610335366004612272565b610f94565b61026b610348366004612459565b610fe0565b61020861100f565b610208611099565b61026b61036b366004612272565b6110cd565b61026b611119565b61022661125f565b610226611277565b61022661128f565b604051635ec88c7960e01b8152600090733d9819210a31b4961b30ef54be2aed79b9c9cd3b90635ec88c79906103ca90309060040161261a565b60606040518083038186803b1580156103e257600080fd5b505afa1580156103f6573d6000803e3d6000fd5b505050506040513d601f19601f8201168201806040525081019061041a9190612489565b5092915050565b73c00e94cb662c3520282e6f5717214004a7f2688881565b60408051808201909152601581527413195d995c9859d95911185a50dbdb5c14dd1c985d605a1b602082015290565b600080516020612bd083398151915281565b6005546001600160a01b031681565b6004546001600160a01b031633146104bc5760405162461bcd60e51b81526004016104b390612803565b60405180910390fd5b6040516370a0823160e01b8152600090600080516020612bd0833981519152906370a08231906104f090309060040161261a565b60206040518083038186803b15801561050857600080fd5b505afa15801561051c573d6000803e3d6000fd5b505050506040513d601f19601f820116820180604052508101906105409190612471565b9050818110156105775761056261055d838363ffffffff61129e16565b6112e9565b9150610574828263ffffffff61143116565b91505b60006105a06127106105946001548661145690919063ffffffff16565b9063ffffffff61149016565b9050610647600460009054906101000a90046001600160a01b03166001600160a01b0316639ec5a8946040518163ffffffff1660e01b815260040160206040518083038186803b1580156105f357600080fd5b505afa158015610607573d6000803e3d6000fd5b505050506040513d601f19601f8201168201806040525081019061062b919061228e565b600080516020612bd0833981519152908363ffffffff6114d216565b60048054604051632988bb9f60e21b81526000926001600160a01b039092169163a622ee7c9161068791600080516020612bd0833981519152910161261a565b60206040518083038186803b15801561069f57600080fd5b505afa1580156106b3573d6000803e3d6000fd5b505050506040513d601f19601f820116820180604052508101906106d7919061228e565b90506001600160a01b0381166106ff5760405162461bcd60e51b81526004016104b3906128a0565b61072f81610713868563ffffffff61129e16565b600080516020612bd0833981519152919063ffffffff6114d216565b50505050565b73c02aaa39b223fe8d0a0e5c4f27ead9083c756cc281565b6040516361bfb47160e11b81526000908190735d3a536e4d6dbd6114cc1ead35777bab948e364390829081908190849063c37f68e29061079190309060040161261a565b60806040518083038186803b1580156107a957600080fd5b505afa1580156107bd573d6000803e3d6000fd5b505050506040513d601f19601f820116820180604052508101906107e191906124b6565b9350935093505081945061080a670de0b6b3a7640000610594838661145690919063ffffffff16565b9550505050509091565b60008061081f61100f565b905080156108cb576108c8670de0b6b3a7640000610594735d3a536e4d6dbd6114cc1ead35777bab948e36436001600160a01b031663182df0f56040518163ffffffff1660e01b815260040160206040518083038186803b15801561088357600080fd5b505afa158015610897573d6000803e3d6000fd5b505050506040513d601f19601f820116820180604052508101906108bb9190612471565b849063ffffffff61145616565b90505b905090565b60025481565b6005546001600160a01b03163314806108f957506003546001600160a01b031633145b6109155760405162461bcd60e51b81526004016104b390612972565b61091d611119565b565b6003546001600160a01b031681565b735d3a536e4d6dbd6114cc1ead35777bab948e364381565b6003546001600160a01b031633146109705760405162461bcd60e51b81526004016104b3906127de565b600055565b600080600061098261074d565b915091506109ae816109a284610996611099565b9063ffffffff61143116565b9063ffffffff61129e16565b9250505090565b61271081565b6004546000906001600160a01b031633146109e85760405162461bcd60e51b81526004016104b390612803565b6109f0611528565b6040516370a0823160e01b8152600080516020612bd0833981519152906370a0823190610a2190309060040161261a565b60206040518083038186803b158015610a3957600080fd5b505afa158015610a4d573d6000803e3d6000fd5b505050506040513d601f19601f82011682018060405250810190610a719190612471565b60048054604051632988bb9f60e21b81529293506000926001600160a01b039091169163a622ee7c91610ab491600080516020612bd0833981519152910161261a565b60206040518083038186803b158015610acc57600080fd5b505afa158015610ae0573d6000803e3d6000fd5b505050506040513d601f19601f82011682018060405250810190610b04919061228e565b90506001600160a01b038116610b2c5760405162461bcd60e51b81526004016104b3906128a0565b610b4b600080516020612bd0833981519152828463ffffffff6114d216565b5090565b60005481565b60008082806020019051810190610b6c9190612428565b9092509050600080516020612bd0833981519152735d3a536e4d6dbd6114cc1ead35777bab948e36438315610d0357610bca6001600160a01b038316735d3a536e4d6dbd6114cc1ead35777bab948e3643600063ffffffff61154e16565b610bf86001600160a01b038316735d3a536e4d6dbd6114cc1ead35777bab948e36438563ffffffff61154e16565b60405163073a938160e11b81526001600160a01b03821690630e75270290610c24908690600401612a86565b602060405180830381600087803b158015610c3e57600080fd5b505af1158015610c52573d6000803e3d6000fd5b505050506040513d601f19601f82011682018060405250810190610c769190612471565b50806001600160a01b031663852a12e3610c8f85611611565b6040518263ffffffff1660e01b8152600401610cab9190612a86565b602060405180830381600087803b158015610cc557600080fd5b505af1158015610cd9573d6000803e3d6000fd5b505050506040513d601f19601f82011682018060405250810190610cfd9190612471565b50610ee9565b6040516370a0823160e01b81526000906001600160a01b038416906370a0823190610d3290309060040161261a565b60206040518083038186803b158015610d4a57600080fd5b505afa158015610d5e573d6000803e3d6000fd5b505050506040513d601f19601f82011682018060405250810190610d829190612471565b9050610db36001600160a01b038416735d3a536e4d6dbd6114cc1ead35777bab948e3643600063ffffffff61154e16565b610de16001600160a01b038416735d3a536e4d6dbd6114cc1ead35777bab948e36438363ffffffff61154e16565b60405163140e25ad60e31b81526001600160a01b0383169063a0712d6890610e0d908490600401612a86565b602060405180830381600087803b158015610e2757600080fd5b505af1158015610e3b573d6000803e3d6000fd5b505050506040513d601f19601f82011682018060405250810190610e5f9190612471565b50816001600160a01b031663c5ebeaec610e7886611611565b6040518263ffffffff1660e01b8152600401610e949190612a86565b602060405180830381600087803b158015610eae57600080fd5b505af1158015610ec2573d6000803e3d6000fd5b505050506040513d601f19601f82011682018060405250810190610ee69190612471565b50505b50505050505050565b60015481565b6003546001600160a01b03163314610f225760405162461bcd60e51b81526004016104b3906127de565b600480546001600160a01b0319166001600160a01b0392909216919091179055565b6005546001600160a01b03163314610f6e5760405162461bcd60e51b81526004016104b390612782565b610f968110610f8f5760405162461bcd60e51b81526004016104b390612904565b600255565b6003546001600160a01b03163314610fbe5760405162461bcd60e51b81526004016104b3906127de565b600380546001600160a01b0319166001600160a01b0392909216919091179055565b6003546001600160a01b0316331461100a5760405162461bcd60e51b81526004016104b3906127de565b600155565b6040516370a0823160e01b8152600090735d3a536e4d6dbd6114cc1ead35777bab948e3643906370a082319061104990309060040161261a565b60206040518083038186803b15801561106157600080fd5b505afa158015611075573d6000803e3d6000fd5b505050506040513d601f19601f820116820180604052508101906108cb9190612471565b6040516370a0823160e01b8152600090600080516020612bd0833981519152906370a082319061104990309060040161261a565b6003546001600160a01b031633146110f75760405162461bcd60e51b81526004016104b3906127de565b600580546001600160a01b0319166001600160a01b0392909216919091179055565b6040516370a0823160e01b8152600090735d3a536e4d6dbd6114cc1ead35777bab948e3643906370a082319061115390309060040161261a565b60206040518083038186803b15801561116b57600080fd5b505afa15801561117f573d6000803e3d6000fd5b505050506040513d601f19601f820116820180604052508101906111a39190612471565b11156111b1576111b1611624565b6040516370a0823160e01b8152600090600080516020612bd0833981519152906370a08231906111e590309060040161261a565b60206040518083038186803b1580156111fd57600080fd5b505afa158015611211573d6000803e3d6000fd5b505050506040513d601f19601f820116820180604052508101906112359190612471565b9050801561125c5760008061124b83600161194f565b915091506112598183611a0f565b50505b50565b737a250d5630b4cf539739df2c5dacb4c659f2488d81565b733d9819210a31b4961b30ef54be2aed79b9c9cd3b81565b6004546001600160a01b031681565b60006112e083836040518060400160405280601e81526020017f536166654d6174683a207375627472616374696f6e206f766572666c6f770000815250611cad565b90505b92915050565b60008060006112f984600161194f565b6040516370a0823160e01b81529193509150600090600080516020612bd0833981519152906370a082319061133290309060040161261a565b60206040518083038186803b15801561134a57600080fd5b505afa15801561135e573d6000803e3d6000fd5b505050506040513d601f19601f820116820180604052508101906113829190612471565b905061138e8284611a0f565b6040516370a0823160e01b8152600090600080516020612bd0833981519152906370a08231906113c290309060040161261a565b60206040518083038186803b1580156113da57600080fd5b505afa1580156113ee573d6000803e3d6000fd5b505050506040513d601f19601f820116820180604052508101906114129190612471565b90506000611426828463ffffffff61129e16565b979650505050505050565b6000828201838110156112e05760405162461bcd60e51b81526004016104b390612828565b600082611465575060006112e3565b8282028284828161147257fe5b04146112e05760405162461bcd60e51b81526004016104b39061285f565b60006112e083836040518060400160405280601a81526020017f536166654d6174683a206469766973696f6e206279207a65726f000000000000815250611cd9565b6112598363a9059cbb60e01b84846040516024016114f19291906126a4565b60408051601f198184030181529190526020810180516001600160e01b03166001600160e01b031990931692909217909152611d10565b600061153261100f565b9050801561125c5761154a61055d60016109a2610814565b5050565b8015806115d65750604051636eb1769f60e11b81526001600160a01b0384169063dd62ed3e90611584903090869060040161262e565b60206040518083038186803b15801561159c57600080fd5b505afa1580156115b0573d6000803e3d6000fd5b505050506040513d601f19601f820116820180604052508101906115d49190612471565b155b6115f25760405162461bcd60e51b81526004016104b390612a30565b6112598363095ea7b360e01b84846040516024016114f19291906126a4565b60006112e382600263ffffffff61143116565b61162c611d9f565b6040516370a0823160e01b815260009073c00e94cb662c3520282e6f5717214004a7f26888906370a082319061166690309060040161261a565b60206040518083038186803b15801561167e57600080fd5b505afa158015611692573d6000803e3d6000fd5b505050506040513d601f19601f820116820180604052508101906116b69190612471565b9050801561125c576116f873c00e94cb662c3520282e6f5717214004a7f26888737a250d5630b4cf539739df2c5dacb4c659f2488d600063ffffffff61154e16565b61173173c00e94cb662c3520282e6f5717214004a7f26888737a250d5630b4cf539739df2c5dacb4c659f2488d8363ffffffff61154e16565b6040805160038082526080820190925260609160208201838036833701905050905073c00e94cb662c3520282e6f5717214004a7f268888160008151811061177557fe5b60200260200101906001600160a01b031690816001600160a01b03168152505073c02aaa39b223fe8d0a0e5c4f27ead9083c756cc2816001815181106117b757fe5b60200260200101906001600160a01b031690816001600160a01b031681525050600080516020612bd0833981519152816002815181106117f357fe5b6001600160a01b03909216602092830291909101909101526060737a250d5630b4cf539739df2c5dacb4c659f2488d6338ed1739846000853061183e4261070863ffffffff61143116565b6040518663ffffffff1660e01b815260040161185e959493929190612a9d565b600060405180830381600087803b15801561187857600080fd5b505af115801561188c573d6000803e3d6000fd5b505050506040513d6000823e601f3d908101601f191682016040526118b49190810190612375565b90506000816002815181106118c557fe5b60200260200101519050600081111561072f5760006118f56127106105946000548561145690919063ffffffff16565b9050611948600460009054906101000a90046001600160a01b03166001600160a01b0316639ec5a8946040518163ffffffff1660e01b815260040160206040518083038186803b1580156105f357600080fd5b5050505050565b60008060008061195d61074d565b9092509050600085156119815761197a838863ffffffff61143116565b90506119b3565b8683116119a05760405162461bcd60e51b81526004016104b3906127a7565b6119b0838863ffffffff61129e16565b90505b60006119e26103e86105946119d56103e860025461129e90919063ffffffff16565b859063ffffffff61145616565b9050828110156119fa57600194508083039550611a04565b6000945082810395505b505050509250929050565b731e0447b19bb6ecfdae1e4ae1694b0c3659614e4e6000611a3e82600080516020612bd0833981519152611e61565b90506000611a4b84611611565b6040516370a0823160e01b8152909150600080516020612bd083398151915290859082906370a0823190611a9790731e0447b19bb6ecfdae1e4ae1694b0c3659614e4e9060040161261a565b60206040518083038186803b158015611aaf57600080fd5b505afa158015611ac3573d6000803e3d6000fd5b505050506040513d601f19601f82011682018060405250810190611ae79190612471565b1015611b055760405162461bcd60e51b81526004016104b3906129e1565b611b336001600160a01b038216731e0447b19bb6ecfdae1e4ae1694b0c3659614e4e8463ffffffff61154e16565b60608686604051602001611b4892919061275f565b60408051808303601f19018152600380845260808401909252925060609190816020015b611b746121e0565b815260200190600190039081611b6c579050509050611b938588611fac565b81600081518110611ba057fe5b6020026020010181905250611bb482612036565b81600181518110611bc157fe5b6020026020010181905250611bd685856120a4565b81600281518110611be357fe5b6020908102919091010152604080516001808252818301909252606091816020015b611c0d612232565b815260200190600190039081611c05579050509050611c2a6120df565b81600081518110611c3757fe5b602090810291909101015260405163a67a6a4560e01b81526001600160a01b0388169063a67a6a4590611c7090849086906004016126bd565b600060405180830381600087803b158015611c8a57600080fd5b505af1158015611c9e573d6000803e3d6000fd5b50505050505050505050505050565b60008184841115611cd15760405162461bcd60e51b81526004016104b3919061276f565b505050900390565b60008183611cfa5760405162461bcd60e51b81526004016104b3919061276f565b506000838581611d0657fe5b0495945050505050565b6060611d65826040518060400160405280602081526020017f5361666545524332303a206c6f772d6c6576656c2063616c6c206661696c6564815250856001600160a01b03166120ff9092919063ffffffff16565b8051909150156112595780806020019051810190611d839190612408565b6112595760405162461bcd60e51b81526004016104b390612997565b60408051600180825281830190925260609160208083019080368337019050509050735d3a536e4d6dbd6114cc1ead35777bab948e364381600081518110611de357fe5b6001600160a01b039092166020928302919091019091015260405162e1ed9760e51b8152733d9819210a31b4961b30ef54be2aed79b9c9cd3b90631c3db2e090611e339030908590600401612648565b600060405180830381600087803b158015611e4d57600080fd5b505af1158015611948573d6000803e3d6000fd5b6000808390506000816001600160a01b031663295c39a56040518163ffffffff1660e01b815260040160206040518083038186803b158015611ea257600080fd5b505afa158015611eb6573d6000803e3d6000fd5b505050506040513d601f19601f82011682018060405250810190611eda9190612471565b90506000805b82811015611f935760405163062bd3e960e01b81526001600160a01b0385169063062bd3e990611f14908490600401612a86565b60206040518083038186803b158015611f2c57600080fd5b505afa158015611f40573d6000803e3d6000fd5b505050506040513d601f19601f82011682018060405250810190611f64919061228e565b9150856001600160a01b0316826001600160a01b03161415611f8b5793506112e392505050565b600101611ee0565b5060405162461bcd60e51b81526004016104b3906128c0565b611fb46121e0565b604080516101008101825260018152600060208083018290528351608081018552828152929384019291908201905b81526020016000815260200185815250815260200184815260200160008152602001306001600160a01b031681526020016000815260200160405180602001604052806000815250815250905092915050565b61203e6121e0565b6040805161010081018252600881526000602080830182905283516080810185528281529293840192919082019081526020016000815260006020918201819052918352820181905260408201819052306060830152608082015260a001929092525090565b6120ac6121e0565b60408051610100810182526000808252602080830182905283516080810185526001815292938401929190820190611fe3565b6120e7612232565b50604080518082019091523081526001602082015290565b606061210e8484600085612116565b949350505050565b6060612121856121da565b61213d5760405162461bcd60e51b81526004016104b39061293b565b60006060866001600160a01b0316858760405161215a91906125fe565b60006040518083038185875af1925050503d8060008114612197576040519150601f19603f3d011682016040523d82523d6000602084013e61219c565b606091505b509150915081156121b057915061210e9050565b8051156121c05780518082602001fd5b8360405162461bcd60e51b81526004016104b3919061276f565b3b151590565b604080516101008101825260008082526020820152908101612200612249565b8152602001600081526020016000815260200160006001600160a01b0316815260200160008152602001606081525090565b604080518082019091526000808252602082015290565b604080516080810190915260008082526020820190815260200160008152602001600081525090565b600060208284031215612283578081fd5b81356112e081612bba565b60006020828403121561229f578081fd5b81516112e081612bba565b600080600083850360808112156122bf578283fd5b84356122ca81612bba565b93506040601f19820112156122dd578283fd5b506122e86040612b0d565b60208501356122f681612bba565b8152604085013560208201529150606084013567ffffffffffffffff81111561231d578182fd5b80850186601f82011261232e578283fd5b8035915061234361233e83612b54565b612b0d565b828152876020848401011115612357578384fd5b612368836020830160208501612b78565b8093505050509250925092565b60006020808385031215612387578182fd5b825167ffffffffffffffff81111561239d578283fd5b80840185601f8201126123ae578384fd5b805191506123be61233e83612b34565b82815283810190828501858502840186018910156123da578687fd5b8693505b848410156123fc5780518352600193909301929185019185016123de565b50979650505050505050565b600060208284031215612419578081fd5b815180151581146112e0578182fd5b6000806040838503121561243a578182fd5b82518015158114612449578283fd5b6020939093015192949293505050565b60006020828403121561246a578081fd5b5035919050565b600060208284031215612482578081fd5b5051919050565b60008060006060848603121561249d578283fd5b8351925060208401519150604084015190509250925092565b600080600080608085870312156124cb578081fd5b505082516020840151604085015160609095015191969095509092509050565b60006101608251600981106124fc57fe5b8085525060208301516020850152604083015161251c60408601826125c7565b50606083015160c0850152608083015160e085015260a083015161254461010086018261258e565b5060c083015161012085015260e0830151816101408601526125688286018261259b565b95945050505050565b80516001600160a01b031682526020908101519082015260400190565b6001600160a01b03169052565b600081518084526125b3816020860160208601612b84565b601f01601f19169290920160200192915050565b80511515825260208101516125db81612bb0565b602083015260408101516125ee81612bb0565b6040830152606090810151910152565b60008251612610818460208701612b84565b9190910192915050565b6001600160a01b0391909116815260200190565b6001600160a01b0392831681529116602082015260400190565b6001600160a01b038381168252604060208084018290528451918401829052600092858201929091906060860190855b81811015612696578551851683529483019491830191600101612678565b509098975050505050505050565b6001600160a01b03929092168252602082015260400190565b600060408201604083528085516126d48184612a86565b915060209250828701845b82811015612700576126f2848351612571565b9350908401906001016126df565b505050838103828501528085516127178184612a86565b91508192508381028201848801865b8381101561275057858303855261273e8383516124eb565b94870194925090860190600101612726565b50909998505050505050505050565b9115158252602082015260400190565b6000602082526112e0602083018461259b565b6020808252600b908201526a085cdd1c985d1959da5cdd60aa1b604082015260600190565b6020808252601d908201527f7769746864726177696e67206d6f7265207468616e2062616c616e6365000000604082015260600190565b6020808252600b908201526a21676f7665726e616e636560a81b604082015260600190565b6020808252600b908201526a10b1b7b73a3937b63632b960a91b604082015260600190565b6020808252601b908201527f536166654d6174683a206164646974696f6e206f766572666c6f770000000000604082015260600190565b60208082526021908201527f536166654d6174683a206d756c7469706c69636174696f6e206f766572666c6f6040820152607760f81b606082015260800190565b602080825260069082015265085d985d5b1d60d21b604082015260600190565b60208082526024908201527f4e6f206d61726b6574496420666f756e6420666f722070726f7669646564207460408201526337b5b2b760e11b606082015260800190565b6020808252601f908201527f54617267657420746f6f20636c6f736520746f203478206c6576657261676500604082015260600190565b6020808252601d908201527f416464726573733a2063616c6c20746f206e6f6e2d636f6e7472616374000000604082015260600190565b6020808252600b908201526a08585d5d1a1bdc9a5e995960aa1b604082015260600190565b6020808252602a908201527f5361666545524332303a204552433230206f7065726174696f6e20646964206e6040820152691bdd081cdd58d8d9595960b21b606082015260800190565b6020808252602f908201527f4e6f7420656e6f7567682064616920696e20447944782e20547279207769746860408201526e081cdb585b1b195c88185b5bdd5b9d608a1b606082015260800190565b60208082526036908201527f5361666545524332303a20617070726f76652066726f6d206e6f6e2d7a65726f60408201527520746f206e6f6e2d7a65726f20616c6c6f77616e636560501b606082015260800190565b90815260200190565b918252602082015260400190565b600060a082018783526020878185015260a0604085015281875180845260c0860191508289019350845b81811015612aec5784516001600160a01b031683529383019391830191600101612ac7565b50506001600160a01b03969096166060850152505050608001529392505050565b60405181810167ffffffffffffffff81118282101715612b2c57600080fd5b604052919050565b600067ffffffffffffffff821115612b4a578081fd5b5060209081020190565b600067ffffffffffffffff821115612b6a578081fd5b50601f01601f191660200190565b82818337506000910152565b60005b83811015612b9f578181015183820152602001612b87565b8381111561072f5750506000910152565b6002811061125c57fe5b6001600160a01b038116811461125c57600080fdfe0000000000000000000000006b175474e89094c44da98b954eedeac495271d0fa264697066735822122085df8680e818bfff26c1c4906e376a317a91b8c804e722ac3eb43524d5c0de1c64736f6c63430006090033",
    "sourcePath": "d:/Source/Ethereum/YearnStrategies/YearnCompDaiStrat.sol",
    "compiler": {
        "name": "solc",
        "version": "0.6.9+commit.3e3065ac"
    },
    "functionHashes": {
        "DAI()": "e0bab4c4",
        "balanceC()": "b655d653",
        "balanceCInToken()": "4254b506",
        "balanceOf()": "722713f7",
        "balanceOfWant()": "c1a3d44c",
        "cDAI()": "6f6941b9",
        "callFunction(address,(address,uint256),bytes)": "8b418713",
        "comp()": "109d0af8",
        "compound()": "f69e2046",
        "controller()": "f77c4791",
        "deposit()": "d0e30db0",
        "getCurrentPosition()": "418f35cc",
        "getLiquidity()": "0910a510",
        "getName()": "17d7de7c",
        "governance()": "5aa6e675",
        "harvest()": "4641257d",
        "leverageTarget()": "456d8027",
        "performanceFee()": "87788782",
        "performanceMax()": "7cc79113",
        "setCollateralTarget(uint256)": "9a561fbf",
        "setController(address)": "92eefe9b",
        "setGovernance(address)": "ab033ea9",
        "setPerformanceFee(uint256)": "70897b23",
        "setStrategist(address)": "c7b9d530",
        "setWithdrawalFee(uint256)": "ac1e5025",
        "strategist()": "1fe4a686",
        "uni()": "edc9af95",
        "want()": "1f1fcd51",
        "weth()": "3fc8cef3",
        "withdraw(uint256)": "2e1a7d4d",
        "withdrawAll()": "853828b6",
        "withdrawalFee()": "8bc7e8c4",
        "withdrawalMax()": "d5c1ff73"
    },
    "gasEstimates": {
        "creation": {
            "codeDepositCost": "2260200",
            "executionCost": "infinite",
            "totalCost": "infinite"
        },
        "external": {
            "DAI()": "infinite",
            "balanceC()": "infinite",
            "balanceCInToken()": "infinite",
            "balanceOf()": "infinite",
            "balanceOfWant()": "infinite",
            "cDAI()": "297",
            "callFunction(address,(address,uint256),bytes)": "infinite",
            "comp()": "321",
            "compound()": "362",
            "controller()": "1202",
            "deposit()": "infinite",
            "getCurrentPosition()": "infinite",
            "getLiquidity()": "infinite",
            "getName()": "infinite",
            "governance()": "1182",
            "harvest()": "infinite",
            "leverageTarget()": "1096",
            "performanceFee()": "1096",
            "performanceMax()": "339",
            "setCollateralTarget(uint256)": "21154",
            "setController(address)": "22054",
            "setGovernance(address)": "22098",
            "setPerformanceFee(uint256)": "21131",
            "setStrategist(address)": "22098",
            "setWithdrawalFee(uint256)": "21175",
            "strategist()": "1116",
            "uni()": "340",
            "want()": "infinite",
            "weth()": "342",
            "withdraw(uint256)": "infinite",
            "withdrawAll()": "infinite",
            "withdrawalFee()": "1140",
            "withdrawalMax()": "272"
        },
        "internal": {
            "_calculateDesiredPosition(uint256,bool)": "infinite",
            "_claimComp()": "infinite",
            "_harvest()": "infinite",
            "_withdrawAll()": "infinite",
            "_withdrawC(uint256)": "infinite",
            "_withdrawSome(uint256)": "infinite",
            "doFlashLoan(bool,uint256)": "infinite"
        }
    }
}