{
    "contractName": "YearnCompDaiStrategy",
    "abi": [
        {
            "inputs": [
                {
                    "internalType": "address",
                    "name": "_controller",
                    "type": "address"
                }
            ],
            "stateMutability": "nonpayable",
            "type": "constructor"
        },
        {
            "inputs": [],
            "name": "DAI",
            "outputs": [
                {
                    "internalType": "address",
                    "name": "",
                    "type": "address"
                }
            ],
            "stateMutability": "view",
            "type": "function"
        },
        {
            "inputs": [],
            "name": "balanceC",
            "outputs": [
                {
                    "internalType": "uint256",
                    "name": "",
                    "type": "uint256"
                }
            ],
            "stateMutability": "view",
            "type": "function"
        },
        {
            "inputs": [],
            "name": "balanceCInToken",
            "outputs": [
                {
                    "internalType": "uint256",
                    "name": "",
                    "type": "uint256"
                }
            ],
            "stateMutability": "view",
            "type": "function"
        },
        {
            "inputs": [],
            "name": "balanceOf",
            "outputs": [
                {
                    "internalType": "uint256",
                    "name": "",
                    "type": "uint256"
                }
            ],
            "stateMutability": "view",
            "type": "function"
        },
        {
            "inputs": [],
            "name": "balanceOfWant",
            "outputs": [
                {
                    "internalType": "uint256",
                    "name": "",
                    "type": "uint256"
                }
            ],
            "stateMutability": "view",
            "type": "function"
        },
        {
            "inputs": [],
            "name": "cDAI",
            "outputs": [
                {
                    "internalType": "address",
                    "name": "",
                    "type": "address"
                }
            ],
            "stateMutability": "view",
            "type": "function"
        },
        {
            "inputs": [
                {
                    "internalType": "address",
                    "name": "sender",
                    "type": "address"
                },
                {
                    "components": [
                        {
                            "internalType": "address",
                            "name": "owner",
                            "type": "address"
                        },
                        {
                            "internalType": "uint256",
                            "name": "number",
                            "type": "uint256"
                        }
                    ],
                    "internalType": "struct Account.Info",
                    "name": "account",
                    "type": "tuple"
                },
                {
                    "internalType": "bytes",
                    "name": "data",
                    "type": "bytes"
                }
            ],
            "name": "callFunction",
            "outputs": [],
            "stateMutability": "nonpayable",
            "type": "function"
        },
        {
            "inputs": [],
            "name": "comp",
            "outputs": [
                {
                    "internalType": "address",
                    "name": "",
                    "type": "address"
                }
            ],
            "stateMutability": "view",
            "type": "function"
        },
        {
            "inputs": [],
            "name": "compound",
            "outputs": [
                {
                    "internalType": "contract ComptrollerI",
                    "name": "",
                    "type": "address"
                }
            ],
            "stateMutability": "view",
            "type": "function"
        },
        {
            "inputs": [],
            "name": "controller",
            "outputs": [
                {
                    "internalType": "address",
                    "name": "",
                    "type": "address"
                }
            ],
            "stateMutability": "view",
            "type": "function"
        },
        {
            "inputs": [],
            "name": "deposit",
            "outputs": [],
            "stateMutability": "nonpayable",
            "type": "function"
        },
        {
            "inputs": [
                {
                    "internalType": "uint8",
                    "name": "state",
                    "type": "uint8"
                },
                {
                    "internalType": "uint256",
                    "name": "amount",
                    "type": "uint256"
                }
            ],
            "name": "doFlashLoan",
            "outputs": [],
            "stateMutability": "nonpayable",
            "type": "function"
        },
        {
            "inputs": [],
            "name": "getName",
            "outputs": [
                {
                    "internalType": "string",
                    "name": "",
                    "type": "string"
                }
            ],
            "stateMutability": "pure",
            "type": "function"
        },
        {
            "inputs": [],
            "name": "governance",
            "outputs": [
                {
                    "internalType": "address",
                    "name": "",
                    "type": "address"
                }
            ],
            "stateMutability": "view",
            "type": "function"
        },
        {
            "inputs": [],
            "name": "harvest",
            "outputs": [],
            "stateMutability": "nonpayable",
            "type": "function"
        },
        {
            "inputs": [],
            "name": "performanceFee",
            "outputs": [
                {
                    "internalType": "uint256",
                    "name": "",
                    "type": "uint256"
                }
            ],
            "stateMutability": "view",
            "type": "function"
        },
        {
            "inputs": [],
            "name": "performanceMax",
            "outputs": [
                {
                    "internalType": "uint256",
                    "name": "",
                    "type": "uint256"
                }
            ],
            "stateMutability": "view",
            "type": "function"
        },
        {
            "inputs": [
                {
                    "internalType": "address",
                    "name": "_controller",
                    "type": "address"
                }
            ],
            "name": "setController",
            "outputs": [],
            "stateMutability": "nonpayable",
            "type": "function"
        },
        {
            "inputs": [
                {
                    "internalType": "address",
                    "name": "_governance",
                    "type": "address"
                }
            ],
            "name": "setGovernance",
            "outputs": [],
            "stateMutability": "nonpayable",
            "type": "function"
        },
        {
            "inputs": [
                {
                    "internalType": "uint256",
                    "name": "_performanceFee",
                    "type": "uint256"
                }
            ],
            "name": "setPerformanceFee",
            "outputs": [],
            "stateMutability": "nonpayable",
            "type": "function"
        },
        {
            "inputs": [
                {
                    "internalType": "address",
                    "name": "_strategist",
                    "type": "address"
                }
            ],
            "name": "setStrategist",
            "outputs": [],
            "stateMutability": "nonpayable",
            "type": "function"
        },
        {
            "inputs": [
                {
                    "internalType": "uint256",
                    "name": "_withdrawalFee",
                    "type": "uint256"
                }
            ],
            "name": "setWithdrawalFee",
            "outputs": [],
            "stateMutability": "nonpayable",
            "type": "function"
        },
        {
            "inputs": [],
            "name": "strategist",
            "outputs": [
                {
                    "internalType": "address",
                    "name": "",
                    "type": "address"
                }
            ],
            "stateMutability": "view",
            "type": "function"
        },
        {
            "inputs": [],
            "name": "uni",
            "outputs": [
                {
                    "internalType": "address",
                    "name": "",
                    "type": "address"
                }
            ],
            "stateMutability": "view",
            "type": "function"
        },
        {
            "inputs": [],
            "name": "want",
            "outputs": [
                {
                    "internalType": "address",
                    "name": "",
                    "type": "address"
                }
            ],
            "stateMutability": "view",
            "type": "function"
        },
        {
            "inputs": [],
            "name": "weth",
            "outputs": [
                {
                    "internalType": "address",
                    "name": "",
                    "type": "address"
                }
            ],
            "stateMutability": "view",
            "type": "function"
        },
        {
            "inputs": [
                {
                    "internalType": "uint256",
                    "name": "_amount",
                    "type": "uint256"
                }
            ],
            "name": "withdraw",
            "outputs": [],
            "stateMutability": "nonpayable",
            "type": "function"
        },
        {
            "inputs": [
                {
                    "internalType": "contract IERC20",
                    "name": "_asset",
                    "type": "address"
                }
            ],
            "name": "withdraw",
            "outputs": [
                {
                    "internalType": "uint256",
                    "name": "balance",
                    "type": "uint256"
                }
            ],
            "stateMutability": "nonpayable",
            "type": "function"
        },
        {
            "inputs": [],
            "name": "withdrawAll",
            "outputs": [
                {
                    "internalType": "uint256",
                    "name": "balance",
                    "type": "uint256"
                }
            ],
            "stateMutability": "nonpayable",
            "type": "function"
        },
        {
            "inputs": [],
            "name": "withdrawalFee",
            "outputs": [
                {
                    "internalType": "uint256",
                    "name": "",
                    "type": "uint256"
                }
            ],
            "stateMutability": "view",
            "type": "function"
        },
        {
            "inputs": [],
            "name": "withdrawalMax",
            "outputs": [
                {
                    "internalType": "uint256",
                    "name": "",
                    "type": "uint256"
                }
            ],
            "stateMutability": "view",
            "type": "function"
        }
    ],
    "bytecode": "60806040526101f460005560326001553480156200001c57600080fd5b50604051620025ca380380620025ca8339810160408190526200003f9162000080565b60028054336001600160a01b03199182168117909255600480548216909217909155600380549091166001600160a01b0392909216919091179055620000b0565b60006020828403121562000092578081fd5b81516001600160a01b0381168114620000a9578182fd5b9392505050565b61250a80620000c06000396000f3fe608060405234801561001057600080fd5b50600436106101e55760003560e01c8063853828b61161010f578063c1a3d44c116100a2578063e0bab4c411610071578063e0bab4c41461021d578063edc9af951461034f578063f69e204614610357578063f77c47911461035f576101e5565b8063c1a3d44c1461032c578063c7b9d53014610334578063d0e30db014610347578063d5c1ff73146102a5576101e5565b806392eefe9b116100de57806392eefe9b146102eb578063ab033ea9146102fe578063ac1e502514610311578063b655d65314610324576101e5565b8063853828b6146102c057806387788782146102c85780638b418713146102d05780638bc7e8c4146102e3576101e5565b80634641257d1161018757806370897b231161015657806370897b231461028a578063722713f71461029d5780637cc79113146102a55780638190af6c146102ad576101e5565b80634641257d1461025f57806351cff8d9146102675780635aa6e6751461027a5780636f6941b914610282576101e5565b80631fe4a686116101c35780631fe4a686146102255780632e1a7d4d1461022d5780633fc8cef3146102425780634254b5061461024a576101e5565b8063109d0af8146101ea57806317d7de7c146102085780631f1fcd511461021d575b600080fd5b6101f2610367565b6040516101ff9190612017565b60405180910390f35b61021061037f565b6040516101ff91906120fd565b6101f26103ae565b6101f26103c0565b61024061023b366004611e71565b6103cf565b005b6101f261067a565b610252610692565b6040516101ff919061238c565b61024061074e565b610252610275366004611ca5565b610b20565b6101f2610ca2565b6101f2610cb1565b610240610298366004611e71565b610cc9565b610252610cf8565b610252610d19565b6102406102bb366004611ebd565b610d1f565b610252610f09565b61025261109e565b6102406102de366004611cdd565b6110a4565b6102526110c9565b6102406102f9366004611ca5565b6110cf565b61024061030c366004611ca5565b61111b565b61024061031f366004611e71565b611167565b610252611196565b610252611220565b610240610342366004611ca5565b611254565b6102406112a0565b6101f261132a565b6101f2611342565b6101f261135a565b73c00e94cb662c3520282e6f5717214004a7f2688881565b60408051808201909152601581527413195d995c9859d95911185a50dbdb5c14dd1c985d605a1b602082015290565b6000805160206124b583398151915281565b6004546001600160a01b031681565b6003546001600160a01b031633146104025760405162461bcd60e51b81526004016103f990612135565b60405180910390fd5b6040516370a0823160e01b81526000906000805160206124b5833981519152906370a0823190610436903090600401612017565b60206040518083038186803b15801561044e57600080fd5b505afa158015610462573d6000803e3d6000fd5b505050506040513d601f19601f820116820180604052508101906104869190611e89565b9050818110156104bd576104a86104a3838363ffffffff61136916565b6113b4565b91506104ba828263ffffffff61151e16565b91505b60006104e66127106104da6001548661154390919063ffffffff16565b9063ffffffff61157d16565b905061058d600360009054906101000a90046001600160a01b03166001600160a01b0316639ec5a8946040518163ffffffff1660e01b815260040160206040518083038186803b15801561053957600080fd5b505afa15801561054d573d6000803e3d6000fd5b505050506040513d601f19601f820116820180604052508101906105719190611cc1565b6000805160206124b5833981519152908363ffffffff6115bf16565b600354604051632988bb9f60e21b81526000916001600160a01b03169063a622ee7c906105cc906000805160206124b583398151915290600401612017565b60206040518083038186803b1580156105e457600080fd5b505afa1580156105f8573d6000803e3d6000fd5b505050506040513d601f19601f8201168201806040525081019061061c9190611cc1565b90506001600160a01b0381166106445760405162461bcd60e51b81526004016103f99061220e565b61067481610658868563ffffffff61136916565b6000805160206124b5833981519152919063ffffffff6115bf16565b50505050565b73c02aaa39b223fe8d0a0e5c4f27ead9083c756cc281565b60008061069d611196565b9050801561074957610746670de0b6b3a76400006104da735d3a536e4d6dbd6114cc1ead35777bab948e36436001600160a01b031663182df0f56040518163ffffffff1660e01b815260040160206040518083038186803b15801561070157600080fd5b505afa158015610715573d6000803e3d6000fd5b505050506040513d601f19601f820116820180604052508101906107399190611e89565b849063ffffffff61154316565b90505b905090565b6004546001600160a01b031633148061077157506002546001600160a01b031633145b61078d5760405162461bcd60e51b81526004016103f9906122c7565b6040516370a0823160e01b815260009073c00e94cb662c3520282e6f5717214004a7f26888906370a08231906107c7903090600401612017565b60206040518083038186803b1580156107df57600080fd5b505afa1580156107f3573d6000803e3d6000fd5b505050506040513d601f19601f820116820180604052508101906108179190611e89565b90508015610a165761085973c00e94cb662c3520282e6f5717214004a7f26888737a250d5630b4cf539739df2c5dacb4c659f2488d600063ffffffff61161516565b61089273c00e94cb662c3520282e6f5717214004a7f26888737a250d5630b4cf539739df2c5dacb4c659f2488d8363ffffffff61161516565b6040805160038082526080820190925260609160208201838036833701905050905073c00e94cb662c3520282e6f5717214004a7f26888816000815181106108d657fe5b60200260200101906001600160a01b031690816001600160a01b03168152505073c02aaa39b223fe8d0a0e5c4f27ead9083c756cc28160018151811061091857fe5b60200260200101906001600160a01b031690816001600160a01b0316815250506000805160206124b58339815191528160028151811061095457fe5b6001600160a01b0390921660209283029190910190910152737a250d5630b4cf539739df2c5dacb4c659f2488d6338ed1739836000843061099d4261070863ffffffff61151e16565b6040518663ffffffff1660e01b81526004016109bd959493929190612395565b600060405180830381600087803b1580156109d757600080fd5b505af11580156109eb573d6000803e3d6000fd5b505050506040513d6000823e601f3d908101601f19168201604052610a139190810190611db9565b50505b6040516370a0823160e01b81526000906000805160206124b5833981519152906370a0823190610a4a903090600401612017565b60206040518083038186803b158015610a6257600080fd5b505afa158015610a76573d6000803e3d6000fd5b505050506040513d601f19601f82011682018060405250810190610a9a9190611e89565b90508015610b1c576000610abf6127106104da6000548561154390919063ffffffff16565b9050610b12600360009054906101000a90046001600160a01b03166001600160a01b0316639ec5a8946040518163ffffffff1660e01b815260040160206040518083038186803b15801561053957600080fd5b610b1a6112a0565b505b5050565b6003546000906001600160a01b03163314610b4d5760405162461bcd60e51b81526004016103f990612135565b6000805160206124b58339815191526001600160a01b0383161415610b845760405162461bcd60e51b81526004016103f990612191565b735d3a536e4d6dbd6114cc1ead35777bab948e36436001600160a01b0383161415610bc15760405162461bcd60e51b81526004016103f990612272565b73c00e94cb662c3520282e6f5717214004a7f268886001600160a01b0383161415610bfe5760405162461bcd60e51b81526004016103f9906121f0565b6040516370a0823160e01b81526001600160a01b038316906370a0823190610c2a903090600401612017565b60206040518083038186803b158015610c4257600080fd5b505afa158015610c56573d6000803e3d6000fd5b505050506040513d601f19601f82011682018060405250810190610c7a9190611e89565b600354909150610c9d906001600160a01b0384811691168363ffffffff6115bf16565b919050565b6002546001600160a01b031681565b735d3a536e4d6dbd6114cc1ead35777bab948e364381565b6002546001600160a01b03163314610cf35760405162461bcd60e51b81526004016103f990612110565b600055565b6000610749610d05610692565b610d0d611220565b9063ffffffff61151e16565b61271081565b731e0447b19bb6ecfdae1e4ae1694b0c3659614e4e6000610d4e826000805160206124b58339815191526116d8565b90506000610d5b84611823565b90506000805160206124b5833981519152610d9181731e0447b19bb6ecfdae1e4ae1694b0c3659614e4e8463ffffffff61161516565b606086604051602001610da49190612405565b60408051808303601f19018152600380845260808401909252925060609190816020015b610dd0611c13565b815260200190600190039081610dc8579050509050610def8588611836565b81600081518110610dfc57fe5b6020026020010181905250610e10826118c0565b81600181518110610e1d57fe5b6020026020010181905250610e32858561192e565b81600281518110610e3f57fe5b6020908102919091010152604080516001808252818301909252606091816020015b610e69611c65565b815260200190600190039081610e61579050509050610e86611969565b81600081518110610e9357fe5b602090810291909101015260405163a67a6a4560e01b81526001600160a01b0388169063a67a6a4590610ecc908490869060040161205e565b600060405180830381600087803b158015610ee657600080fd5b505af1158015610efa573d6000803e3d6000fd5b50505050505050505050505050565b6003546000906001600160a01b03163314610f365760405162461bcd60e51b81526004016103f990612135565b610f3e611989565b6040516370a0823160e01b81526000805160206124b5833981519152906370a0823190610f6f903090600401612017565b60206040518083038186803b158015610f8757600080fd5b505afa158015610f9b573d6000803e3d6000fd5b505050506040513d601f19601f82011682018060405250810190610fbf9190611e89565b600354604051632988bb9f60e21b81529192506000916001600160a01b039091169063a622ee7c90611003906000805160206124b583398151915290600401612017565b60206040518083038186803b15801561101b57600080fd5b505afa15801561102f573d6000803e3d6000fd5b505050506040513d601f19601f820116820180604052508101906110539190611cc1565b90506001600160a01b03811661107b5760405162461bcd60e51b81526004016103f99061220e565b61109a6000805160206124b5833981519152828463ffffffff6115bf16565b5090565b60005481565b6000818060200190518101906110ba9190611ea1565b905060ff811661067457610674565b60015481565b6002546001600160a01b031633146110f95760405162461bcd60e51b81526004016103f990612110565b600380546001600160a01b0319166001600160a01b0392909216919091179055565b6002546001600160a01b031633146111455760405162461bcd60e51b81526004016103f990612110565b600280546001600160a01b0319166001600160a01b0392909216919091179055565b6002546001600160a01b031633146111915760405162461bcd60e51b81526004016103f990612110565b600155565b6040516370a0823160e01b8152600090735d3a536e4d6dbd6114cc1ead35777bab948e3643906370a08231906111d0903090600401612017565b60206040518083038186803b1580156111e857600080fd5b505afa1580156111fc573d6000803e3d6000fd5b505050506040513d601f19601f820116820180604052508101906107499190611e89565b6040516370a0823160e01b81526000906000805160206124b5833981519152906370a08231906111d0903090600401612017565b6002546001600160a01b0316331461127e5760405162461bcd60e51b81526004016103f990612110565b600480546001600160a01b0319166001600160a01b0392909216919091179055565b6040516370a0823160e01b81526000906000805160206124b5833981519152906370a08231906112d4903090600401612017565b60206040518083038186803b1580156112ec57600080fd5b505afa158015611300573d6000803e3d6000fd5b505050506040513d601f19601f820116820180604052508101906113249190611e89565b90505b50565b737a250d5630b4cf539739df2c5dacb4c659f2488d81565b733d9819210a31b4961b30ef54be2aed79b9c9cd3b81565b6003546001600160a01b031681565b60006113ab83836040518060400160405280601e81526020017f536166654d6174683a207375627472616374696f6e206f766572666c6f7700008152506119b7565b90505b92915050565b6000806113bf611196565b905060006113cb610692565b905060006113e86001610d0d846104da878a63ffffffff61154316565b6040516370a0823160e01b81529091506000906000805160206124b5833981519152906370a082319061141f903090600401612017565b60206040518083038186803b15801561143757600080fd5b505afa15801561144b573d6000803e3d6000fd5b505050506040513d601f19601f8201168201806040525081019061146f9190611e89565b905061147a826119e3565b6040516370a0823160e01b81526000906000805160206124b5833981519152906370a08231906114ae903090600401612017565b60206040518083038186803b1580156114c657600080fd5b505afa1580156114da573d6000803e3d6000fd5b505050506040513d601f19601f820116820180604052508101906114fe9190611e89565b90506000611512828463ffffffff61136916565b98975050505050505050565b6000828201838110156113ab5760405162461bcd60e51b81526004016103f99061215a565b600082611552575060006113ae565b8282028284828161155f57fe5b04146113ab5760405162461bcd60e51b81526004016103f9906121af565b60006113ab83836040518060400160405280601a81526020017f536166654d6174683a206469766973696f6e206279207a65726f000000000000815250611a6c565b610b1a8363a9059cbb60e01b84846040516024016115de929190612045565b60408051601f198184030181529190526020810180516001600160e01b03166001600160e01b031990931692909217909152611aa3565b80158061169d5750604051636eb1769f60e11b81526001600160a01b0384169063dd62ed3e9061164b903090869060040161202b565b60206040518083038186803b15801561166357600080fd5b505afa158015611677573d6000803e3d6000fd5b505050506040513d601f19601f8201168201806040525081019061169b9190611e89565b155b6116b95760405162461bcd60e51b81526004016103f990612336565b610b1a8363095ea7b360e01b84846040516024016115de929190612045565b6000808390506000816001600160a01b031663295c39a56040518163ffffffff1660e01b815260040160206040518083038186803b15801561171957600080fd5b505afa15801561172d573d6000803e3d6000fd5b505050506040513d601f19601f820116820180604052508101906117519190611e89565b90506000805b8281101561180a5760405163062bd3e960e01b81526001600160a01b0385169063062bd3e99061178b90849060040161238c565b60206040518083038186803b1580156117a357600080fd5b505afa1580156117b7573d6000803e3d6000fd5b505050506040513d601f19601f820116820180604052508101906117db9190611cc1565b9150856001600160a01b0316826001600160a01b031614156118025793506113ae92505050565b600101611757565b5060405162461bcd60e51b81526004016103f99061222e565b60006113ae82600263ffffffff61151e16565b61183e611c13565b604080516101008101825260018152600060208083018290528351608081018552828152929384019291908201905b81526020016000815260200185815250815260200184815260200160008152602001306001600160a01b031681526020016000815260200160405180602001604052806000815250815250905092915050565b6118c8611c13565b6040805161010081018252600881526000602080830182905283516080810185528281529293840192919082019081526020016000815260006020918201819052918352820181905260408201819052306060830152608082015260a001929092525090565b611936611c13565b6040805161010081018252600080825260208083018290528351608081018552600181529293840192919082019061186d565b611971611c65565b50604080518082019091523081526001602082015290565b6000611993611196565b9050801561132757610b1c6104a360016119ab610692565b9063ffffffff61136916565b600081848411156119db5760405162461bcd60e51b81526004016103f991906120fd565b505050900390565b60405163db006a7560e01b8152735d3a536e4d6dbd6114cc1ead35777bab948e36439063db006a7590611a1a90849060040161238c565b602060405180830381600087803b158015611a3457600080fd5b505af1158015611a48573d6000803e3d6000fd5b505050506040513d601f19601f82011682018060405250810190610b1c9190611e89565b60008183611a8d5760405162461bcd60e51b81526004016103f991906120fd565b506000838581611a9957fe5b0495945050505050565b6060611af8826040518060400160405280602081526020017f5361666545524332303a206c6f772d6c6576656c2063616c6c206661696c6564815250856001600160a01b0316611b329092919063ffffffff16565b805190915015610b1a5780806020019051810190611b169190611e51565b610b1a5760405162461bcd60e51b81526004016103f9906122ec565b6060611b418484600085611b49565b949350505050565b6060611b5485611c0d565b611b705760405162461bcd60e51b81526004016103f990612290565b60006060866001600160a01b03168587604051611b8d9190611ffb565b60006040518083038185875af1925050503d8060008114611bca576040519150601f19603f3d011682016040523d82523d6000602084013e611bcf565b606091505b50915091508115611be3579150611b419050565b805115611bf35780518082602001fd5b8360405162461bcd60e51b81526004016103f991906120fd565b3b151590565b604080516101008101825260008082526020820152908101611c33611c7c565b8152602001600081526020016000815260200160006001600160a01b0316815260200160008152602001606081525090565b604080518082019091526000808252602082015290565b604080516080810190915260008082526020820190815260200160008152602001600081525090565b600060208284031215611cb6578081fd5b81356113ab81612490565b600060208284031215611cd2578081fd5b81516113ab81612490565b60008060008385036080811215611cf2578283fd5b8435611cfd81612490565b93506020601f1960408382011215611d13578485fd5b611d1d6040612413565b925081870135611d2c81612490565b835260408701358284015291935060608601359167ffffffffffffffff80841115611d55578485fd5b83880189601f820112611d66578586fd5b8035945081851115611d76578586fd5b611d868484601f88011601612413565b91508482528984868301011115611d9b578586fd5b84848201858401375084838583010152809450505050509250925092565b60006020808385031215611dcb578182fd5b825167ffffffffffffffff811115611de1578283fd5b80840185601f820112611df2578384fd5b80519150611e07611e028361243a565b612413565b8281528381019082850185850284018601891015611e23578687fd5b8693505b84841015611e45578051835260019390930192918501918501611e27565b50979650505050505050565b600060208284031215611e62578081fd5b815180151581146113ab578182fd5b600060208284031215611e82578081fd5b5035919050565b600060208284031215611e9a578081fd5b5051919050565b600060208284031215611eb2578081fd5b81516113ab816124a5565b60008060408385031215611ecf578182fd5b8235611eda816124a5565b946020939093013593505050565b80516001600160a01b031682526020908101519082015260400190565b6001600160a01b03169052565b60008151808452611f2a81602086016020860161245a565b601f01601f19169290920160200192915050565b6000610160825160098110611f4f57fe5b80855250602083015160208501526040830151611f6f6040860182611fc4565b50606083015160c0850152608083015160e085015260a0830151611f97610100860182611f05565b5060c083015161012085015260e083015181610140860152611fbb82860182611f12565b95945050505050565b8051151582526020810151611fd881612486565b60208301526040810151611feb81612486565b6040830152606090810151910152565b6000825161200d81846020870161245a565b9190910192915050565b6001600160a01b0391909116815260200190565b6001600160a01b0392831681529116602082015260400190565b6001600160a01b03929092168252602082015260400190565b60006040820160408352808551612075818461238c565b915060209250828701845b828110156120a157612093848351611ee8565b935090840190600101612080565b5050508381038285015284518082528282019080840283018401878501865b838110156120ee57601f198684030185526120dc838351611f3e565b948701949250908601906001016120c0565b50909998505050505050505050565b6000602082526113ab6020830184611f12565b6020808252600b908201526a21676f7665726e616e636560a81b604082015260600190565b6020808252600b908201526a10b1b7b73a3937b63632b960a91b604082015260600190565b6020808252601b908201527f536166654d6174683a206164646974696f6e206f766572666c6f770000000000604082015260600190565b6020808252600490820152631dd85b9d60e21b604082015260600190565b60208082526021908201527f536166654d6174683a206d756c7469706c69636174696f6e206f766572666c6f6040820152607760f81b606082015260800190565b6020808252600490820152630636f6d760e41b604082015260600190565b602080825260069082015265085d985d5b1d60d21b604082015260600190565b60208082526024908201527f4e6f206d61726b6574496420666f756e6420666f722070726f7669646564207460408201526337b5b2b760e11b606082015260800190565b6020808252600490820152636344414960e01b604082015260600190565b6020808252601d908201527f416464726573733a2063616c6c20746f206e6f6e2d636f6e7472616374000000604082015260600190565b6020808252600b908201526a08585d5d1a1bdc9a5e995960aa1b604082015260600190565b6020808252602a908201527f5361666545524332303a204552433230206f7065726174696f6e20646964206e6040820152691bdd081cdd58d8d9595960b21b606082015260800190565b60208082526036908201527f5361666545524332303a20617070726f76652066726f6d206e6f6e2d7a65726f60408201527520746f206e6f6e2d7a65726f20616c6c6f77616e636560501b606082015260800190565b90815260200190565b600060a082018783526020878185015260a0604085015281875180845260c0860191508289019350845b818110156123e45784516001600160a01b0316835293830193918301916001016123bf565b50506001600160a01b03969096166060850152505050608001529392505050565b60ff91909116815260200190565b60405181810167ffffffffffffffff8111828210171561243257600080fd5b604052919050565b600067ffffffffffffffff821115612450578081fd5b5060209081020190565b60005b8381101561247557818101518382015260200161245d565b838111156106745750506000910152565b6002811061132757fe5b6001600160a01b038116811461132757600080fd5b60ff8116811461132757600080fdfe0000000000000000000000006b175474e89094c44da98b954eedeac495271d0fa2646970667358221220d4c46baa4281aa09a7d65cf7c200c5845f30f237bafa73ebcede3ced36443d7564736f6c63430006090033",
    "sourcePath": "d:/Source/Ethereum/YearnStrategies/YearnCompDaiStrat.sol",
    "compiler": {
        "name": "solc",
        "version": "0.6.9+commit.3e3065ac"
    },
    "functionHashes": {
        "DAI()": "e0bab4c4",
        "balanceC()": "b655d653",
        "balanceCInToken()": "4254b506",
        "balanceOf()": "722713f7",
        "balanceOfWant()": "c1a3d44c",
        "cDAI()": "6f6941b9",
        "callFunction(address,(address,uint256),bytes)": "8b418713",
        "comp()": "109d0af8",
        "compound()": "f69e2046",
        "controller()": "f77c4791",
        "deposit()": "d0e30db0",
        "doFlashLoan(uint8,uint256)": "8190af6c",
        "getName()": "17d7de7c",
        "governance()": "5aa6e675",
        "harvest()": "4641257d",
        "performanceFee()": "87788782",
        "performanceMax()": "7cc79113",
        "setController(address)": "92eefe9b",
        "setGovernance(address)": "ab033ea9",
        "setPerformanceFee(uint256)": "70897b23",
        "setStrategist(address)": "c7b9d530",
        "setWithdrawalFee(uint256)": "ac1e5025",
        "strategist()": "1fe4a686",
        "uni()": "edc9af95",
        "want()": "1f1fcd51",
        "weth()": "3fc8cef3",
        "withdraw(address)": "51cff8d9",
        "withdraw(uint256)": "2e1a7d4d",
        "withdrawAll()": "853828b6",
        "withdrawalFee()": "8bc7e8c4",
        "withdrawalMax()": "d5c1ff73"
    },
    "gasEstimates": {
        "creation": {
            "codeDepositCost": "1896400",
            "executionCost": "infinite",
            "totalCost": "infinite"
        },
        "external": {
            "DAI()": "infinite",
            "balanceC()": "infinite",
            "balanceCInToken()": "infinite",
            "balanceOf()": "infinite",
            "balanceOfWant()": "infinite",
            "cDAI()": "364",
            "callFunction(address,(address,uint256),bytes)": "infinite",
            "comp()": "299",
            "compound()": "340",
            "controller()": "1180",
            "deposit()": "infinite",
            "doFlashLoan(uint8,uint256)": "infinite",
            "getName()": "infinite",
            "governance()": "1160",
            "harvest()": "infinite",
            "performanceFee()": "1096",
            "performanceMax()": "317",
            "setController(address)": "22054",
            "setGovernance(address)": "22076",
            "setPerformanceFee(uint256)": "21109",
            "setStrategist(address)": "22076",
            "setWithdrawalFee(uint256)": "21153",
            "strategist()": "1116",
            "uni()": "318",
            "want()": "infinite",
            "weth()": "342",
            "withdraw(address)": "infinite",
            "withdraw(uint256)": "infinite",
            "withdrawAll()": "infinite",
            "withdrawalFee()": "1140",
            "withdrawalMax()": "339"
        },
        "internal": {
            "_withdrawAll()": "infinite",
            "_withdrawC(uint256)": "infinite",
            "_withdrawSome(uint256)": "infinite"
        }
    }
}