{
    "contractName": "YearnCompDaiStrategy",
    "abi": [
        {
            "inputs": [
                {
                    "internalType": "address",
                    "name": "_controller",
                    "type": "address"
                }
            ],
            "stateMutability": "nonpayable",
            "type": "constructor"
        },
        {
            "inputs": [],
            "name": "DAI",
            "outputs": [
                {
                    "internalType": "address",
                    "name": "",
                    "type": "address"
                }
            ],
            "stateMutability": "view",
            "type": "function"
        },
        {
            "inputs": [],
            "name": "balanceC",
            "outputs": [
                {
                    "internalType": "uint256",
                    "name": "",
                    "type": "uint256"
                }
            ],
            "stateMutability": "view",
            "type": "function"
        },
        {
            "inputs": [],
            "name": "balanceCInToken",
            "outputs": [
                {
                    "internalType": "uint256",
                    "name": "",
                    "type": "uint256"
                }
            ],
            "stateMutability": "view",
            "type": "function"
        },
        {
            "inputs": [],
            "name": "balanceOf",
            "outputs": [
                {
                    "internalType": "uint256",
                    "name": "",
                    "type": "uint256"
                }
            ],
            "stateMutability": "view",
            "type": "function"
        },
        {
            "inputs": [],
            "name": "balanceOfWant",
            "outputs": [
                {
                    "internalType": "uint256",
                    "name": "",
                    "type": "uint256"
                }
            ],
            "stateMutability": "view",
            "type": "function"
        },
        {
            "inputs": [],
            "name": "cDAI",
            "outputs": [
                {
                    "internalType": "address",
                    "name": "",
                    "type": "address"
                }
            ],
            "stateMutability": "view",
            "type": "function"
        },
        {
            "inputs": [
                {
                    "internalType": "address",
                    "name": "sender",
                    "type": "address"
                },
                {
                    "components": [
                        {
                            "internalType": "address",
                            "name": "owner",
                            "type": "address"
                        },
                        {
                            "internalType": "uint256",
                            "name": "number",
                            "type": "uint256"
                        }
                    ],
                    "internalType": "struct Account.Info",
                    "name": "account",
                    "type": "tuple"
                },
                {
                    "internalType": "bytes",
                    "name": "data",
                    "type": "bytes"
                }
            ],
            "name": "callFunction",
            "outputs": [],
            "stateMutability": "nonpayable",
            "type": "function"
        },
        {
            "inputs": [],
            "name": "comp",
            "outputs": [
                {
                    "internalType": "address",
                    "name": "",
                    "type": "address"
                }
            ],
            "stateMutability": "view",
            "type": "function"
        },
        {
            "inputs": [],
            "name": "compound",
            "outputs": [
                {
                    "internalType": "contract ComptrollerI",
                    "name": "",
                    "type": "address"
                }
            ],
            "stateMutability": "view",
            "type": "function"
        },
        {
            "inputs": [],
            "name": "controller",
            "outputs": [
                {
                    "internalType": "address",
                    "name": "",
                    "type": "address"
                }
            ],
            "stateMutability": "view",
            "type": "function"
        },
        {
            "inputs": [],
            "name": "deposit",
            "outputs": [],
            "stateMutability": "nonpayable",
            "type": "function"
        },
        {
            "inputs": [],
            "name": "getCurrentPosition",
            "outputs": [
                {
                    "internalType": "uint256",
                    "name": "deposits",
                    "type": "uint256"
                },
                {
                    "internalType": "uint256",
                    "name": "borrows",
                    "type": "uint256"
                }
            ],
            "stateMutability": "view",
            "type": "function"
        },
        {
            "inputs": [],
            "name": "getName",
            "outputs": [
                {
                    "internalType": "string",
                    "name": "",
                    "type": "string"
                }
            ],
            "stateMutability": "pure",
            "type": "function"
        },
        {
            "inputs": [],
            "name": "governance",
            "outputs": [
                {
                    "internalType": "address",
                    "name": "",
                    "type": "address"
                }
            ],
            "stateMutability": "view",
            "type": "function"
        },
        {
            "inputs": [],
            "name": "harvest",
            "outputs": [],
            "stateMutability": "nonpayable",
            "type": "function"
        },
        {
            "inputs": [],
            "name": "leverageTarget",
            "outputs": [
                {
                    "internalType": "uint256",
                    "name": "",
                    "type": "uint256"
                }
            ],
            "stateMutability": "view",
            "type": "function"
        },
        {
            "inputs": [],
            "name": "performanceFee",
            "outputs": [
                {
                    "internalType": "uint256",
                    "name": "",
                    "type": "uint256"
                }
            ],
            "stateMutability": "view",
            "type": "function"
        },
        {
            "inputs": [],
            "name": "performanceMax",
            "outputs": [
                {
                    "internalType": "uint256",
                    "name": "",
                    "type": "uint256"
                }
            ],
            "stateMutability": "view",
            "type": "function"
        },
        {
            "inputs": [
                {
                    "internalType": "uint256",
                    "name": "target",
                    "type": "uint256"
                }
            ],
            "name": "setCollateralTarget",
            "outputs": [],
            "stateMutability": "nonpayable",
            "type": "function"
        },
        {
            "inputs": [
                {
                    "internalType": "address",
                    "name": "_controller",
                    "type": "address"
                }
            ],
            "name": "setController",
            "outputs": [],
            "stateMutability": "nonpayable",
            "type": "function"
        },
        {
            "inputs": [
                {
                    "internalType": "address",
                    "name": "_governance",
                    "type": "address"
                }
            ],
            "name": "setGovernance",
            "outputs": [],
            "stateMutability": "nonpayable",
            "type": "function"
        },
        {
            "inputs": [
                {
                    "internalType": "uint256",
                    "name": "_performanceFee",
                    "type": "uint256"
                }
            ],
            "name": "setPerformanceFee",
            "outputs": [],
            "stateMutability": "nonpayable",
            "type": "function"
        },
        {
            "inputs": [
                {
                    "internalType": "address",
                    "name": "_strategist",
                    "type": "address"
                }
            ],
            "name": "setStrategist",
            "outputs": [],
            "stateMutability": "nonpayable",
            "type": "function"
        },
        {
            "inputs": [
                {
                    "internalType": "uint256",
                    "name": "_withdrawalFee",
                    "type": "uint256"
                }
            ],
            "name": "setWithdrawalFee",
            "outputs": [],
            "stateMutability": "nonpayable",
            "type": "function"
        },
        {
            "inputs": [],
            "name": "strategist",
            "outputs": [
                {
                    "internalType": "address",
                    "name": "",
                    "type": "address"
                }
            ],
            "stateMutability": "view",
            "type": "function"
        },
        {
            "inputs": [],
            "name": "uni",
            "outputs": [
                {
                    "internalType": "address",
                    "name": "",
                    "type": "address"
                }
            ],
            "stateMutability": "view",
            "type": "function"
        },
        {
            "inputs": [],
            "name": "want",
            "outputs": [
                {
                    "internalType": "address",
                    "name": "",
                    "type": "address"
                }
            ],
            "stateMutability": "view",
            "type": "function"
        },
        {
            "inputs": [],
            "name": "weth",
            "outputs": [
                {
                    "internalType": "address",
                    "name": "",
                    "type": "address"
                }
            ],
            "stateMutability": "view",
            "type": "function"
        },
        {
            "inputs": [
                {
                    "internalType": "uint256",
                    "name": "_amount",
                    "type": "uint256"
                }
            ],
            "name": "withdraw",
            "outputs": [],
            "stateMutability": "nonpayable",
            "type": "function"
        },
        {
            "inputs": [
                {
                    "internalType": "contract IERC20",
                    "name": "_asset",
                    "type": "address"
                }
            ],
            "name": "withdraw",
            "outputs": [
                {
                    "internalType": "uint256",
                    "name": "balance",
                    "type": "uint256"
                }
            ],
            "stateMutability": "nonpayable",
            "type": "function"
        },
        {
            "inputs": [],
            "name": "withdrawAll",
            "outputs": [
                {
                    "internalType": "uint256",
                    "name": "balance",
                    "type": "uint256"
                }
            ],
            "stateMutability": "nonpayable",
            "type": "function"
        },
        {
            "inputs": [],
            "name": "withdrawalFee",
            "outputs": [
                {
                    "internalType": "uint256",
                    "name": "",
                    "type": "uint256"
                }
            ],
            "stateMutability": "view",
            "type": "function"
        },
        {
            "inputs": [],
            "name": "withdrawalMax",
            "outputs": [
                {
                    "internalType": "uint256",
                    "name": "",
                    "type": "uint256"
                }
            ],
            "stateMutability": "view",
            "type": "function"
        }
    ],
    "bytecode": "60806040526101f46000556032600155610e746002553480156200002257600080fd5b5060405162002d9238038062002d92833981016040819052620000459162000086565b60038054336001600160a01b03199182168117909255600580548216909217909155600480549091166001600160a01b0392909216919091179055620000b6565b60006020828403121562000098578081fd5b81516001600160a01b0381168114620000af578182fd5b9392505050565b612ccc80620000c66000396000f3fe608060405234801561001057600080fd5b50600436106101fb5760003560e01c8063853828b61161011a578063b655d653116100ad578063d5c1ff731161007c578063d5c1ff73146102d9578063e0bab4c414610233578063edc9af9514610383578063f69e20461461038b578063f77c479114610393576101fb565b8063b655d65314610358578063c1a3d44c14610360578063c7b9d53014610368578063d0e30db01461037b576101fb565b806392eefe9b116100e957806392eefe9b1461030c5780639a561fbf1461031f578063ab033ea914610332578063ac1e502514610345576101fb565b8063853828b6146102e157806387788782146102e95780638b418713146102f15780638bc7e8c414610304576101fb565b8063456d8027116101925780636f6941b9116101615780636f6941b9146102b657806370897b23146102be578063722713f7146102d15780637cc79113146102d9576101fb565b8063456d80271461028b5780634641257d1461029357806351cff8d91461029b5780635aa6e675146102ae576101fb565b80632e1a7d4d116101ce5780632e1a7d4d146102435780633fc8cef314610258578063418f35cc146102605780634254b50614610276576101fb565b8063109d0af81461020057806317d7de7c1461021e5780631f1fcd51146102335780631fe4a6861461023b575b600080fd5b61020861039b565b6040516102159190612667565b60405180910390f35b6102266103b3565b60405161021591906127bc565b6102086103e2565b6102086103f4565b6102566102513660046124d3565b610403565b005b6102086106af565b6102686106c7565b604051610215929190612b36565b61027e61078e565b6040516102159190612b2d565b61027e61084a565b610256610850565b61027e6102a93660046122ec565b610899565b610208610a1b565b610208610a2a565b6102566102cc3660046124d3565b610a42565b61027e610a71565b61027e610ab1565b61027e610ab7565b61027e610c4b565b6102566102ff366004612324565b610c51565b61027e610f6c565b61025661031a3660046122ec565b610f72565b61025661032d3660046124d3565b610fbe565b6102566103403660046122ec565b61100e565b6102566103533660046124d3565b61105a565b61027e611089565b61027e611113565b6102566103763660046122ec565b611147565b610256611193565b6102086112d9565b6102086112f1565b610208611309565b73c00e94cb662c3520282e6f5717214004a7f2688881565b60408051808201909152601581527413195d995c9859d95911185a50dbdb5c14dd1c985d605a1b602082015290565b600080516020612c7783398151915281565b6005546001600160a01b031681565b6004546001600160a01b031633146104365760405162461bcd60e51b815260040161042d90612850565b60405180910390fd5b6040516370a0823160e01b8152600090600080516020612c77833981519152906370a082319061046a903090600401612667565b60206040518083038186803b15801561048257600080fd5b505afa158015610496573d6000803e3d6000fd5b505050506040513d601f19601f820116820180604052508101906104ba91906124eb565b9050818110156104f1576104dc6104d7838363ffffffff61131816565b611363565b91506104ee828263ffffffff6114ab16565b91505b600061051a61271061050e600154866114d090919063ffffffff16565b9063ffffffff61150a16565b90506105c1600460009054906101000a90046001600160a01b03166001600160a01b0316639ec5a8946040518163ffffffff1660e01b815260040160206040518083038186803b15801561056d57600080fd5b505afa158015610581573d6000803e3d6000fd5b505050506040513d601f19601f820116820180604052508101906105a59190612308565b600080516020612c77833981519152908363ffffffff61154c16565b60048054604051632988bb9f60e21b81526000926001600160a01b039092169163a622ee7c9161060191600080516020612c778339815191529101612667565b60206040518083038186803b15801561061957600080fd5b505afa15801561062d573d6000803e3d6000fd5b505050506040513d601f19601f820116820180604052508101906106519190612308565b90506001600160a01b0381166106795760405162461bcd60e51b815260040161042d90612929565b6106a98161068d868563ffffffff61131816565b600080516020612c77833981519152919063ffffffff61154c16565b50505050565b73c02aaa39b223fe8d0a0e5c4f27ead9083c756cc281565b6040516361bfb47160e11b81526000908190735d3a536e4d6dbd6114cc1ead35777bab948e364390829081908190849063c37f68e29061070b903090600401612667565b60806040518083038186803b15801561072357600080fd5b505afa158015610737573d6000803e3d6000fd5b505050506040513d601f19601f8201168201806040525081019061075b9190612503565b93509350935050819450610784670de0b6b3a764000061050e83866114d090919063ffffffff16565b9550505050509091565b600080610799611089565b9050801561084557610842670de0b6b3a764000061050e735d3a536e4d6dbd6114cc1ead35777bab948e36436001600160a01b031663182df0f56040518163ffffffff1660e01b815260040160206040518083038186803b1580156107fd57600080fd5b505afa158015610811573d6000803e3d6000fd5b505050506040513d601f19601f8201168201806040525081019061083591906124eb565b849063ffffffff6114d016565b90505b905090565b60025481565b6005546001600160a01b031633148061087357506003546001600160a01b031633145b61088f5760405162461bcd60e51b815260040161042d90612a19565b610897611193565b565b6004546000906001600160a01b031633146108c65760405162461bcd60e51b815260040161042d90612850565b600080516020612c778339815191526001600160a01b03831614156108fd5760405162461bcd60e51b815260040161042d906128ac565b735d3a536e4d6dbd6114cc1ead35777bab948e36436001600160a01b038316141561093a5760405162461bcd60e51b815260040161042d9061298d565b73c00e94cb662c3520282e6f5717214004a7f268886001600160a01b03831614156109775760405162461bcd60e51b815260040161042d9061290b565b6040516370a0823160e01b81526001600160a01b038316906370a08231906109a3903090600401612667565b60206040518083038186803b1580156109bb57600080fd5b505afa1580156109cf573d6000803e3d6000fd5b505050506040513d601f19601f820116820180604052508101906109f391906124eb565b600454909150610a16906001600160a01b0384811691168363ffffffff61154c16565b919050565b6003546001600160a01b031681565b735d3a536e4d6dbd6114cc1ead35777bab948e364381565b6003546001600160a01b03163314610a6c5760405162461bcd60e51b815260040161042d9061282b565b600055565b6000806000610a7e6106c7565b91509150610aaa81610a9e84610a92611113565b9063ffffffff6114ab16565b9063ffffffff61131816565b9250505090565b61271081565b6004546000906001600160a01b03163314610ae45760405162461bcd60e51b815260040161042d90612850565b610aec6115a2565b6040516370a0823160e01b8152600080516020612c77833981519152906370a0823190610b1d903090600401612667565b60206040518083038186803b158015610b3557600080fd5b505afa158015610b49573d6000803e3d6000fd5b505050506040513d601f19601f82011682018060405250810190610b6d91906124eb565b60048054604051632988bb9f60e21b81529293506000926001600160a01b039091169163a622ee7c91610bb091600080516020612c778339815191529101612667565b60206040518083038186803b158015610bc857600080fd5b505afa158015610bdc573d6000803e3d6000fd5b505050506040513d601f19601f82011682018060405250810190610c009190612308565b90506001600160a01b038116610c285760405162461bcd60e51b815260040161042d90612929565b610c47600080516020612c77833981519152828463ffffffff61154c16565b5090565b60005481565b60008082806020019051810190610c6891906124a2565b9092509050600080516020612c77833981519152735d3a536e4d6dbd6114cc1ead35777bab948e36438315610dff57610cc66001600160a01b038316735d3a536e4d6dbd6114cc1ead35777bab948e3643600063ffffffff6115c816565b610cf46001600160a01b038316735d3a536e4d6dbd6114cc1ead35777bab948e36438563ffffffff6115c816565b60405163073a938160e11b81526001600160a01b03821690630e75270290610d20908690600401612b2d565b602060405180830381600087803b158015610d3a57600080fd5b505af1158015610d4e573d6000803e3d6000fd5b505050506040513d601f19601f82011682018060405250810190610d7291906124eb565b50806001600160a01b031663852a12e3610d8b8561168b565b6040518263ffffffff1660e01b8152600401610da79190612b2d565b602060405180830381600087803b158015610dc157600080fd5b505af1158015610dd5573d6000803e3d6000fd5b505050506040513d601f19601f82011682018060405250810190610df991906124eb565b50610f63565b610e2e6001600160a01b038316735d3a536e4d6dbd6114cc1ead35777bab948e3643600063ffffffff6115c816565b610e5c6001600160a01b038316735d3a536e4d6dbd6114cc1ead35777bab948e36438563ffffffff6115c816565b60405163140e25ad60e31b81526001600160a01b0382169063a0712d6890610e88908690600401612b2d565b602060405180830381600087803b158015610ea257600080fd5b505af1158015610eb6573d6000803e3d6000fd5b505050506040513d601f19601f82011682018060405250810190610eda91906124eb565b50806001600160a01b031663c5ebeaec610ef38561168b565b6040518263ffffffff1660e01b8152600401610f0f9190612b2d565b602060405180830381600087803b158015610f2957600080fd5b505af1158015610f3d573d6000803e3d6000fd5b505050506040513d601f19601f82011682018060405250810190610f6191906124eb565b505b50505050505050565b60015481565b6003546001600160a01b03163314610f9c5760405162461bcd60e51b815260040161042d9061282b565b600480546001600160a01b0319166001600160a01b0392909216919091179055565b6005546001600160a01b03163314610fe85760405162461bcd60e51b815260040161042d906127cf565b610f9681106110095760405162461bcd60e51b815260040161042d906129ab565b600255565b6003546001600160a01b031633146110385760405162461bcd60e51b815260040161042d9061282b565b600380546001600160a01b0319166001600160a01b0392909216919091179055565b6003546001600160a01b031633146110845760405162461bcd60e51b815260040161042d9061282b565b600155565b6040516370a0823160e01b8152600090735d3a536e4d6dbd6114cc1ead35777bab948e3643906370a08231906110c3903090600401612667565b60206040518083038186803b1580156110db57600080fd5b505afa1580156110ef573d6000803e3d6000fd5b505050506040513d601f19601f8201168201806040525081019061084591906124eb565b6040516370a0823160e01b8152600090600080516020612c77833981519152906370a08231906110c3903090600401612667565b6003546001600160a01b031633146111715760405162461bcd60e51b815260040161042d9061282b565b600580546001600160a01b0319166001600160a01b0392909216919091179055565b6040516370a0823160e01b8152600090735d3a536e4d6dbd6114cc1ead35777bab948e3643906370a08231906111cd903090600401612667565b60206040518083038186803b1580156111e557600080fd5b505afa1580156111f9573d6000803e3d6000fd5b505050506040513d601f19601f8201168201806040525081019061121d91906124eb565b111561122b5761122b61169e565b6040516370a0823160e01b8152600090600080516020612c77833981519152906370a082319061125f903090600401612667565b60206040518083038186803b15801561127757600080fd5b505afa15801561128b573d6000803e3d6000fd5b505050506040513d601f19601f820116820180604052508101906112af91906124eb565b905080156112d6576000806112c58360016119c9565b915091506112d38183611a89565b50505b50565b737a250d5630b4cf539739df2c5dacb4c659f2488d81565b733d9819210a31b4961b30ef54be2aed79b9c9cd3b81565b6004546001600160a01b031681565b600061135a83836040518060400160405280601e81526020017f536166654d6174683a207375627472616374696f6e206f766572666c6f770000815250611d27565b90505b92915050565b60008060006113738460016119c9565b6040516370a0823160e01b81529193509150600090600080516020612c77833981519152906370a08231906113ac903090600401612667565b60206040518083038186803b1580156113c457600080fd5b505afa1580156113d8573d6000803e3d6000fd5b505050506040513d601f19601f820116820180604052508101906113fc91906124eb565b90506114088284611a89565b6040516370a0823160e01b8152600090600080516020612c77833981519152906370a082319061143c903090600401612667565b60206040518083038186803b15801561145457600080fd5b505afa158015611468573d6000803e3d6000fd5b505050506040513d601f19601f8201168201806040525081019061148c91906124eb565b905060006114a0828463ffffffff61131816565b979650505050505050565b60008282018381101561135a5760405162461bcd60e51b815260040161042d90612875565b6000826114df5750600061135d565b828202828482816114ec57fe5b041461135a5760405162461bcd60e51b815260040161042d906128ca565b600061135a83836040518060400160405280601a81526020017f536166654d6174683a206469766973696f6e206279207a65726f000000000000815250611d53565b6112d38363a9059cbb60e01b848460405160240161156b9291906126f1565b60408051601f198184030181529190526020810180516001600160e01b03166001600160e01b031990931692909217909152611d8a565b60006115ac611089565b905080156112d6576115c46104d76001610a9e61078e565b5050565b8015806116505750604051636eb1769f60e11b81526001600160a01b0384169063dd62ed3e906115fe903090869060040161267b565b60206040518083038186803b15801561161657600080fd5b505afa15801561162a573d6000803e3d6000fd5b505050506040513d601f19601f8201168201806040525081019061164e91906124eb565b155b61166c5760405162461bcd60e51b815260040161042d90612ad7565b6112d38363095ea7b360e01b848460405160240161156b9291906126f1565b600061135d82600263ffffffff6114ab16565b6116a6611e19565b6040516370a0823160e01b815260009073c00e94cb662c3520282e6f5717214004a7f26888906370a08231906116e0903090600401612667565b60206040518083038186803b1580156116f857600080fd5b505afa15801561170c573d6000803e3d6000fd5b505050506040513d601f19601f8201168201806040525081019061173091906124eb565b905080156112d65761177273c00e94cb662c3520282e6f5717214004a7f26888737a250d5630b4cf539739df2c5dacb4c659f2488d600063ffffffff6115c816565b6117ab73c00e94cb662c3520282e6f5717214004a7f26888737a250d5630b4cf539739df2c5dacb4c659f2488d8363ffffffff6115c816565b6040805160038082526080820190925260609160208201838036833701905050905073c00e94cb662c3520282e6f5717214004a7f26888816000815181106117ef57fe5b60200260200101906001600160a01b031690816001600160a01b03168152505073c02aaa39b223fe8d0a0e5c4f27ead9083c756cc28160018151811061183157fe5b60200260200101906001600160a01b031690816001600160a01b031681525050600080516020612c778339815191528160028151811061186d57fe5b6001600160a01b03909216602092830291909101909101526060737a250d5630b4cf539739df2c5dacb4c659f2488d6338ed173984600085306118b84261070863ffffffff6114ab16565b6040518663ffffffff1660e01b81526004016118d8959493929190612b44565b600060405180830381600087803b1580156118f257600080fd5b505af1158015611906573d6000803e3d6000fd5b505050506040513d6000823e601f3d908101601f1916820160405261192e91908101906123ef565b905060008160028151811061193f57fe5b6020026020010151905060008111156106a957600061196f61271061050e600054856114d090919063ffffffff16565b90506119c2600460009054906101000a90046001600160a01b03166001600160a01b0316639ec5a8946040518163ffffffff1660e01b815260040160206040518083038186803b15801561056d57600080fd5b5050505050565b6000806000806119d76106c7565b9092509050600085156119fb576119f4838863ffffffff6114ab16565b9050611a2d565b868311611a1a5760405162461bcd60e51b815260040161042d906127f4565b611a2a838863ffffffff61131816565b90505b6000611a5c6103e861050e611a4f6103e860025461131890919063ffffffff16565b859063ffffffff6114d016565b905082811015611a7457600194508083039550611a7e565b6000945082810395505b505050509250929050565b731e0447b19bb6ecfdae1e4ae1694b0c3659614e4e6000611ab882600080516020612c77833981519152611edb565b90506000611ac58461168b565b6040516370a0823160e01b8152909150600080516020612c7783398151915290859082906370a0823190611b1190731e0447b19bb6ecfdae1e4ae1694b0c3659614e4e90600401612667565b60206040518083038186803b158015611b2957600080fd5b505afa158015611b3d573d6000803e3d6000fd5b505050506040513d601f19601f82011682018060405250810190611b6191906124eb565b1015611b7f5760405162461bcd60e51b815260040161042d90612a88565b611bad6001600160a01b038216731e0447b19bb6ecfdae1e4ae1694b0c3659614e4e8463ffffffff6115c816565b60608686604051602001611bc29291906127ac565b60408051808303601f19018152600380845260808401909252925060609190816020015b611bee61225a565b815260200190600190039081611be6579050509050611c0d8588612026565b81600081518110611c1a57fe5b6020026020010181905250611c2e826120b0565b81600181518110611c3b57fe5b6020026020010181905250611c50858561211e565b81600281518110611c5d57fe5b6020908102919091010152604080516001808252818301909252606091816020015b611c876122ac565b815260200190600190039081611c7f579050509050611ca4612159565b81600081518110611cb157fe5b602090810291909101015260405163a67a6a4560e01b81526001600160a01b0388169063a67a6a4590611cea908490869060040161270a565b600060405180830381600087803b158015611d0457600080fd5b505af1158015611d18573d6000803e3d6000fd5b50505050505050505050505050565b60008184841115611d4b5760405162461bcd60e51b815260040161042d91906127bc565b505050900390565b60008183611d745760405162461bcd60e51b815260040161042d91906127bc565b506000838581611d8057fe5b0495945050505050565b6060611ddf826040518060400160405280602081526020017f5361666545524332303a206c6f772d6c6576656c2063616c6c206661696c6564815250856001600160a01b03166121799092919063ffffffff16565b8051909150156112d35780806020019051810190611dfd9190612482565b6112d35760405162461bcd60e51b815260040161042d90612a3e565b60408051600180825281830190925260609160208083019080368337019050509050735d3a536e4d6dbd6114cc1ead35777bab948e364381600081518110611e5d57fe5b6001600160a01b039092166020928302919091019091015260405162e1ed9760e51b8152733d9819210a31b4961b30ef54be2aed79b9c9cd3b90631c3db2e090611ead9030908590600401612695565b600060405180830381600087803b158015611ec757600080fd5b505af11580156119c2573d6000803e3d6000fd5b6000808390506000816001600160a01b031663295c39a56040518163ffffffff1660e01b815260040160206040518083038186803b158015611f1c57600080fd5b505afa158015611f30573d6000803e3d6000fd5b505050506040513d601f19601f82011682018060405250810190611f5491906124eb565b90506000805b8281101561200d5760405163062bd3e960e01b81526001600160a01b0385169063062bd3e990611f8e908490600401612b2d565b60206040518083038186803b158015611fa657600080fd5b505afa158015611fba573d6000803e3d6000fd5b505050506040513d601f19601f82011682018060405250810190611fde9190612308565b9150856001600160a01b0316826001600160a01b0316141561200557935061135d92505050565b600101611f5a565b5060405162461bcd60e51b815260040161042d90612949565b61202e61225a565b604080516101008101825260018152600060208083018290528351608081018552828152929384019291908201905b81526020016000815260200185815250815260200184815260200160008152602001306001600160a01b031681526020016000815260200160405180602001604052806000815250815250905092915050565b6120b861225a565b6040805161010081018252600881526000602080830182905283516080810185528281529293840192919082019081526020016000815260006020918201819052918352820181905260408201819052306060830152608082015260a001929092525090565b61212661225a565b6040805161010081018252600080825260208083018290528351608081018552600181529293840192919082019061205d565b6121616122ac565b50604080518082019091523081526001602082015290565b60606121888484600085612190565b949350505050565b606061219b85612254565b6121b75760405162461bcd60e51b815260040161042d906129e2565b60006060866001600160a01b031685876040516121d4919061264b565b60006040518083038185875af1925050503d8060008114612211576040519150601f19603f3d011682016040523d82523d6000602084013e612216565b606091505b5091509150811561222a5791506121889050565b80511561223a5780518082602001fd5b8360405162461bcd60e51b815260040161042d91906127bc565b3b151590565b60408051610100810182526000808252602082015290810161227a6122c3565b8152602001600081526020016000815260200160006001600160a01b0316815260200160008152602001606081525090565b604080518082019091526000808252602082015290565b604080516080810190915260008082526020820190815260200160008152602001600081525090565b6000602082840312156122fd578081fd5b813561135a81612c61565b600060208284031215612319578081fd5b815161135a81612c61565b60008060008385036080811215612339578283fd5b843561234481612c61565b93506040601f1982011215612357578283fd5b506123626040612bb4565b602085013561237081612c61565b8152604085013560208201529150606084013567ffffffffffffffff811115612397578182fd5b80850186601f8201126123a8578283fd5b803591506123bd6123b883612bfb565b612bb4565b8281528760208484010111156123d1578384fd5b6123e2836020830160208501612c1f565b8093505050509250925092565b60006020808385031215612401578182fd5b825167ffffffffffffffff811115612417578283fd5b80840185601f820112612428578384fd5b805191506124386123b883612bdb565b8281528381019082850185850284018601891015612454578687fd5b8693505b84841015612476578051835260019390930192918501918501612458565b50979650505050505050565b600060208284031215612493578081fd5b8151801515811461135a578182fd5b600080604083850312156124b4578182fd5b825180151581146124c3578283fd5b6020939093015192949293505050565b6000602082840312156124e4578081fd5b5035919050565b6000602082840312156124fc578081fd5b5051919050565b60008060008060808587031215612518578081fd5b505082516020840151604085015160609095015191969095509092509050565b600061016082516009811061254957fe5b808552506020830151602085015260408301516125696040860182612614565b50606083015160c0850152608083015160e085015260a08301516125916101008601826125db565b5060c083015161012085015260e0830151816101408601526125b5828601826125e8565b95945050505050565b80516001600160a01b031682526020908101519082015260400190565b6001600160a01b03169052565b60008151808452612600816020860160208601612c2b565b601f01601f19169290920160200192915050565b805115158252602081015161262881612c57565b6020830152604081015161263b81612c57565b6040830152606090810151910152565b6000825161265d818460208701612c2b565b9190910192915050565b6001600160a01b0391909116815260200190565b6001600160a01b0392831681529116602082015260400190565b6001600160a01b038381168252604060208084018290528451918401829052600092858201929091906060860190855b818110156126e35785518516835294830194918301916001016126c5565b509098975050505050505050565b6001600160a01b03929092168252602082015260400190565b600060408201604083528085516127218184612b2d565b915060209250828701845b8281101561274d5761273f8483516125be565b93509084019060010161272c565b505050838103828501528085516127648184612b2d565b91508192508381028201848801865b8381101561279d57858303855261278b838351612538565b94870194925090860190600101612773565b50909998505050505050505050565b9115158252602082015260400190565b60006020825261135a60208301846125e8565b6020808252600b908201526a085cdd1c985d1959da5cdd60aa1b604082015260600190565b6020808252601d908201527f7769746864726177696e67206d6f7265207468616e2062616c616e6365000000604082015260600190565b6020808252600b908201526a21676f7665726e616e636560a81b604082015260600190565b6020808252600b908201526a10b1b7b73a3937b63632b960a91b604082015260600190565b6020808252601b908201527f536166654d6174683a206164646974696f6e206f766572666c6f770000000000604082015260600190565b6020808252600490820152631dd85b9d60e21b604082015260600190565b60208082526021908201527f536166654d6174683a206d756c7469706c69636174696f6e206f766572666c6f6040820152607760f81b606082015260800190565b6020808252600490820152630636f6d760e41b604082015260600190565b602080825260069082015265085d985d5b1d60d21b604082015260600190565b60208082526024908201527f4e6f206d61726b6574496420666f756e6420666f722070726f7669646564207460408201526337b5b2b760e11b606082015260800190565b6020808252600490820152636344414960e01b604082015260600190565b6020808252601f908201527f54617267657420746f6f20636c6f736520746f203478206c6576657261676500604082015260600190565b6020808252601d908201527f416464726573733a2063616c6c20746f206e6f6e2d636f6e7472616374000000604082015260600190565b6020808252600b908201526a08585d5d1a1bdc9a5e995960aa1b604082015260600190565b6020808252602a908201527f5361666545524332303a204552433230206f7065726174696f6e20646964206e6040820152691bdd081cdd58d8d9595960b21b606082015260800190565b6020808252602f908201527f4e6f7420656e6f7567682064616920696e20447944782e20547279207769746860408201526e081cdb585b1b195c88185b5bdd5b9d608a1b606082015260800190565b60208082526036908201527f5361666545524332303a20617070726f76652066726f6d206e6f6e2d7a65726f60408201527520746f206e6f6e2d7a65726f20616c6c6f77616e636560501b606082015260800190565b90815260200190565b918252602082015260400190565b600060a082018783526020878185015260a0604085015281875180845260c0860191508289019350845b81811015612b935784516001600160a01b031683529383019391830191600101612b6e565b50506001600160a01b03969096166060850152505050608001529392505050565b60405181810167ffffffffffffffff81118282101715612bd357600080fd5b604052919050565b600067ffffffffffffffff821115612bf1578081fd5b5060209081020190565b600067ffffffffffffffff821115612c11578081fd5b50601f01601f191660200190565b82818337506000910152565b60005b83811015612c46578181015183820152602001612c2e565b838111156106a95750506000910152565b600281106112d657fe5b6001600160a01b03811681146112d657600080fdfe0000000000000000000000006b175474e89094c44da98b954eedeac495271d0fa2646970667358221220fa00040b810b3f324c3f18b0c3c492673c7f9d890e05992e88b1463992ba88ef64736f6c63430006090033",
    "sourcePath": "d:/Source/Ethereum/YearnStrategies/YearnCompDaiStrat.sol",
    "compiler": {
        "name": "solc",
        "version": "0.6.9+commit.3e3065ac"
    },
    "functionHashes": {
        "DAI()": "e0bab4c4",
        "balanceC()": "b655d653",
        "balanceCInToken()": "4254b506",
        "balanceOf()": "722713f7",
        "balanceOfWant()": "c1a3d44c",
        "cDAI()": "6f6941b9",
        "callFunction(address,(address,uint256),bytes)": "8b418713",
        "comp()": "109d0af8",
        "compound()": "f69e2046",
        "controller()": "f77c4791",
        "deposit()": "d0e30db0",
        "getCurrentPosition()": "418f35cc",
        "getName()": "17d7de7c",
        "governance()": "5aa6e675",
        "harvest()": "4641257d",
        "leverageTarget()": "456d8027",
        "performanceFee()": "87788782",
        "performanceMax()": "7cc79113",
        "setCollateralTarget(uint256)": "9a561fbf",
        "setController(address)": "92eefe9b",
        "setGovernance(address)": "ab033ea9",
        "setPerformanceFee(uint256)": "70897b23",
        "setStrategist(address)": "c7b9d530",
        "setWithdrawalFee(uint256)": "ac1e5025",
        "strategist()": "1fe4a686",
        "uni()": "edc9af95",
        "want()": "1f1fcd51",
        "weth()": "3fc8cef3",
        "withdraw(address)": "51cff8d9",
        "withdraw(uint256)": "2e1a7d4d",
        "withdrawAll()": "853828b6",
        "withdrawalFee()": "8bc7e8c4",
        "withdrawalMax()": "d5c1ff73"
    },
    "gasEstimates": {
        "creation": {
            "codeDepositCost": "2293600",
            "executionCost": "infinite",
            "totalCost": "infinite"
        },
        "external": {
            "DAI()": "infinite",
            "balanceC()": "infinite",
            "balanceCInToken()": "infinite",
            "balanceOf()": "infinite",
            "balanceOfWant()": "infinite",
            "cDAI()": "297",
            "callFunction(address,(address,uint256),bytes)": "infinite",
            "comp()": "299",
            "compound()": "362",
            "controller()": "1202",
            "deposit()": "infinite",
            "getCurrentPosition()": "infinite",
            "getName()": "infinite",
            "governance()": "1182",
            "harvest()": "infinite",
            "leverageTarget()": "1074",
            "performanceFee()": "1096",
            "performanceMax()": "339",
            "setCollateralTarget(uint256)": "21154",
            "setController(address)": "22054",
            "setGovernance(address)": "22098",
            "setPerformanceFee(uint256)": "21131",
            "setStrategist(address)": "22098",
            "setWithdrawalFee(uint256)": "21175",
            "strategist()": "1183",
            "uni()": "340",
            "want()": "infinite",
            "weth()": "320",
            "withdraw(address)": "infinite",
            "withdraw(uint256)": "infinite",
            "withdrawAll()": "infinite",
            "withdrawalFee()": "1140",
            "withdrawalMax()": "272"
        },
        "internal": {
            "_calculateDesiredPosition(uint256,bool)": "infinite",
            "_claimComp()": "infinite",
            "_harvest()": "infinite",
            "_withdrawAll()": "infinite",
            "_withdrawC(uint256)": "infinite",
            "_withdrawSome(uint256)": "infinite",
            "doFlashLoan(bool,uint256)": "infinite"
        }
    }
}